:100000000C94EA2D0C9400000C9400000C94000059
:100010000C9400000C9400000C9400000C94000060
:100020000C9400000C9400000C9400000C94000050
:100030000C9400000C9400000C9400000C94000040
:100040000C9400000C9400000C9400000C94000030
:100050000C9400000C9400000C9400000C94000020
:100060000C9400000C9400000C9400000C94000010
:100070000C9400000C9400000C9400000C94000000
:100080000C9400000C9400000C9400000C940000F0
:100090000C9400000C9400000C9400000C940000E0
:1000A0000C9400000C9400000C9400000C940000D0
:1000B0000C9400000C9400000C9400000C940000C0
:1000C0000C9400000C9400000C9400000C940000B0
:1000D0000C9400000C9400000C9400000C940000A0
:0400E0000C9400007C
:105BD400BFEFBDBFB1E2BEBF0E94762ECDB7DEB728
:105BE4002197CDBFDEBF21962F923F924F925F92B5
:105BF400BDB1B062BDB9BEB1BF7DBEB9BFEFB7B96B
:105C0400B0E0B8B9B0E0B4B9B5B7BF7EB5BFBFEFC7
:105C1400B5B9BADDBCE02B2EB5DCB1E02B2EB2DC7D
:105C2400B8E92B2EB4E23B2EA1DDB7EC2B2EB4E267
:105C34003B2ECFDEB7EE2B2EB3E23B2EBCDEBDE314
:105C44002B2EB4E23B2ED3DEB3EE2B2EB2E03B2E52
:105C540037DCDBDE088333C0B6DFF801329605910A
:105C6400159118012DDC3AC0AEDFF80105911591AC
:105C7400180126DC33C077DFA6DFF80136960591DC
:105C8400159118011DDC2AC09EDFF8013496059198
:105C94001591180115DC22C096DFB1E04B2EB0E05F
:105CA4005B2E180111DF1AC08EDFBFEF4B2E5B2E67
:105CB40018010ADF13C087DF1801CBDC0FC008818D
:105CC400023009F4C9CF033079F20630A1F2013071
:105CD400D9F2043009F3053039F3EDCFBACF5F9030
:085CE4004F903F902F90FFCF7D
:10578C00B0912B00B77FB0932B00B0912B00BB7F57
:10579C00B0932B00B0912B00BF7EB0932B00B09137
:1057AC002B00BF7DB0932B00B0912B00BF7BB0932F
:1057BC002B00B0912B00BF77B0932B00B0912A0037
:1057CC00B860B0932A00B0912A00B460B0932A005C
:1057DC00B0912A00B068B0932A00B0912A00B0644E
:1057EC00B0932A00B0912A00B062B0932A00B09115
:1057FC002A00B061B0932A00B4DEB3DEB2DEB09101
:10580C002B00B064B0932B00B0912B00B068B09318
:10581C002B00B0912B00B860B0932B00AADEB09196
:10582C002B00B77FB0932B009CDEB0912B00B8609F
:10583C00B0932B009EDEB0912B00B77FB0932B0062
:10584C0090DEB0912B00B860B0932B0092DEB0913B
:10585C002B00B77FB0932B0084DEB0912B00BF7769
:10586C00B0932B00B0912B00B860B0932B0081DE6D
:10587C00B0912B00B77FB0932B0073DEB0912B004F
:10588C00B860B0932B0075DEB0912B00B77FB0934E
:10589C002B00B0912B00BF7BB0932B00B0912B0051
:1058AC00B061B0932B00B0912B00B860B0932B007B
:1058BC0060DEB0912B00B77FB0932B0052DEB0911D
:1058CC002B00BF7EB0932B00B0912B00B068B0932F
:1058DC002B00B0912B00B860B0932B004ADEB09136
:1058EC002B00B77FB0932B00B0912B00BF77B093F8
:1058FC002B00B0912B00B860B0932B003ADEB09126
:10590C002B00B77FB0932B002CDEB0912B00B8602E
:10591C00B0932B002EDEB0912B00B77FB0932B00F1
:10592C00B0912B00B068B0932B00B0912B00B860F5
:10593C00B0932B001EDEB0912B00B77FB0932B00E1
:10594C0010DEB0912B00BF77B0932B00B0912B00E1
:10595C00B860B0932B000DDEB0912B00B77FB093E5
:10596C002B00B0912B00B061B0932B00B0912B00A9
:10597C00B062B0932B00B0912B00B064B0932B00AD
:10598C00B0912B00B068B0932B00B0912B00B86095
:10599C00B0932B00EEDDB0912B00B77FB0932B00B2
:0E59AC00E0DDB0916B02B160B0936B02089524
:10556E0013E708E40A95F1F71A95E1F7000008959C
:00557E002D
:0A557E0005E00A95F1F7000008951A
:1055880027FAB0912B00B4F9B0932B0026FAB0910A
:105598002B00B5F9B0932B0025FAB0912B00B6F982
:1055A800B0932B0024FAB0912B00B7F9B0932B00DD
:1055B800B0916B0200902B00E894B0FF689402F859
:1055C80000922B00B0912B00B860B0932B00D3DF72
:1055D800B0912B00B77FB0932B0023FAB0912B002A
:1055E800B4F9B0932B0022FAB0912B00B5F9B0931F
:1055F8002B0021FAB0912B00B6F9B0932B0020FABA
:10560800B0912B00B7F9B0932B00B0916B020090CA
:105618002B00E894B0FF689402F800922B00B09138
:105628002B00B860B0932B00A6DFB0912B00B77F9A
:10563800B0932B00B0916B02B0FF02C094DF01C0A1
:045648008BDF089557
:0E55600012E009E00A95F1F71A95E1F70895B7
:105770002F923F92209260023092610220900402A8
:0C578000309005029FDE3F902F900895AE
:1054C4002F923F92B2E03B1611F4BBEB2B1639F04E
:1054D400B0E03B1611F4B0E02B1609F001C03BC05C
:1054E40020920402309205020091200210912102C0
:1054F400B02FB12B71F00091040210910502F80154
:105504007096059115911801E0912002F091210205
:1055140009950091600210916102B02FB12B49F0FE
:105524002090040230900502E0916002F091610243
:1055340009950091040210910502F801389605912D
:1055440015919801B02FB12B31F03F932F93F901AE
:0C55540009952F913F913F902F900895F2
:104A3A00CF93DF93CDB7DEB76197CDBFDEBF2196A7
:104A4A002F923F924F925F920BEB12E020163106A3
:104A5A0039F0B0E03B1611F4B0E02B1609F001C0B2
:104A6A0024C09E010091690210916A021F930F935C
:104A7A00B4E0BF93B8E5BF933F932F9392DBADB7F2
:104A8A00BEB71696ADBFBEBF8E012801B9E03B2E58
:104A9A00B1E02B2E3EDB0091690210916A020150AF
:104AAA0010400093690210936A025F904F903F9002
:0E4ABA002F906096CDBFDEBFDF91CF910895A3
:1041AC00CF93DF93CDB7DEB72297CDBFDEBF21967D
:1041BC002F923F924F925F926F927F922F81388510
:1041CC00FE018E01075F1F4F0E5F1F4F019311936E
:1041DC008E013F932F93380149845A84190114DAC4
:1041EC002F913F91A801F801E20FF31FB0E0B083CB
:1041FC008A017F906F905F904F903F902F90219607
:0A420C00CDBFDEBFDF91CF91089512
:10361400CF93DF93CDB7DEB72A97CDBFDEBF219618
:1036240040E050E0F20182010F5F1F4F2801049136
:103634000C83002309F449C50C81053261F00C8127
:10364400F101008381010F5F1F4F18018A010F5F91
:103654001F4FA801E7CF20E030E000E010E0B80100
:1036640028C08B010860B80182010F5F1F4F280139
:1036740035C08B010160B80182010F5F1F4F280123
:103684002DC08B010260B80182010F5F1F4F28011A
:1036940025C08B011860B80182010F5F1F4F2801FC
:1036A4001DC08B010460B80182010F5F1F4F280108
:1036B40015C0F20104910D32A1F2F201049100321D
:1036C400C1F2F20104910B32E1F2F20104910332EE
:1036D40001F3F2010491003321F301C0C1CF61FF72
:1036E40006C08B010E7FB801872F762F02C0872F6B
:1036F400762F73FF06C0072F182F0B7F702F812F93
:1037040000C0F201049110E03F922F92202E0E94FB
:10371400F1062F903F90002331F120E030E0942F08
:10372400A52F02C0252F362F89014AE050E00E94C0
:10373400E906F2012491020FB0E01B1F0053104070
:10374400502F612F82010F5F1F4F2801F801049150
:1037540010E03F922F92202E0E94F1062F903F906E
:10376400002301F71EC0F20104910A32A9F4F30107
:1037740021913191F90101911191902FA12F89018A
:103784000E5F1F4FF3010193119382010F5F1F4FCF
:103794002801092F1A2F01C08901942FA52F502F1A
:1037A400612FF20104910E3209F051C082010F5FC2
:1037B4001F4F2801F80104910A32B9F4F301219151
:1037C4003191F90101911191480189010E5F1F4F57
:1037D400F3010193119382010F5F1F4F280194019C
:1037E400872E982E792F8A2F31C088249924392F37
:1037F4004A2FF201049110E03F922F92202E0E9452
:10380400F1062F903F900023D1F06F935F934F9375
:103814003F9384014AE050E00E94E9063F914F91B2
:103824005F916F91F2012491020FB0E01B1F0053CE
:103834001040480182010F5F1F4F2801DACF8F9398
:103844007F93732F842F94018F909F9006C020E064
:1038540030E0872E982E792F8A2FF20182010F5F94
:103864001F4F280104910C83EDC0072F182F2EC47D
:10387400BEE4BD83B2E0BE832FC0B7E2BD83B2E035
:10388400BE8320E030E028C084010064902FA12F83
:10389400490119C1982DA92D490115C1840100625E
:1038A400902FA12F02C0982DA92D092F1A2F00683F
:1038B400902FA12F490107C1F30101911191F80142
:1038C400019111910D831E83F301019111910E5FFA
:1038D4001F4FF301019311930D811E81103009F4E0
:1038E400003021F4B2E2BD83B2E0BE83B0E0BF8316
:1038F400B887672F782FC401852E962EA9012D81B4
:103904003E810F811885F801E20FF31F0081002327
:1039140039F00F8118850F5F1F4F0F831887EFCF82
:103924009A01AC01982DA92DB22FB32B39F00F8138
:1039340018852017310710F42F8338870F811885D5
:1039440009171A0740F40F801884092F1A2F001939
:103954001109C80103C000E010E0C80143FD15C00F
:103964009C018C0101501040C801B22FB32B61F0AF
:10397400F101B0E2B08381010F5F1F4F18018B0189
:103984000F5F1F4FB801ECCF00C02F8138850F8126
:103994001885015010400F831887B22FB32BA1F064
:1039A400ED81FE810081F101008381010F5F1F4FD2
:1039B40018010D811E810F5F1F4F0D831E838B0124
:1039C4000F5F1F4FB801E1CF43FF17C0AC019A014D
:1039D4008A0101501040A801B22FB32B61F0F1010C
:1039E400B0E2B08381010F5F1F4F18018B010F5F9D
:1039F4001F4FB801ECCFAB0101C0AB0113CEF301F3
:103A040001911191F80100810C83F301019111914D
:103A14000E5F1F4FF301019311938E010C5F1F4F33
:103A24000D831E83B1E0BF83B0E0B887952FA62F26
:103A3400672F782FA40178CF8401006C902FA12FD9
:103A4400490141C00C81003009F40FCF0C810C36C0
:103A540009F40ECF0C810C3409F40ACF0C8105341F
:103A640009F40BCF0C81063609F407CF0C81053617
:103A740009F403CF0C81073609F4FFCE0C810F360D
:103A840009F402CF0C81043609F404CF0C81093601
:103A940009F400CF0C81003709F400CF0C810835FC
:103AA40009F4FCCE0C81083709F4FDCE0C810337F0
:103AB40009F402CF0C81033609F4A1CF0C81053738
:103AC40009F4BACFAACF092F1A2F007C1070103036
:103AD40009F4003039F5F30101911191F8010191D4
:103AE40011910D831E83F301019111910E5F1F4FFC
:103AF400F301019311932D813E8100E010E0201722
:103B040031076CF4092F1A2F036098010D801E8071
:103B140000E010E0001911090D831E8302C0292F53
:103B24003A2F12C0F30101911191F8010191119101
:103B34000D831E83F301019111910E5F1F4FF30159
:103B440001931193292F3A2FB0E09B1611F4B0E0A2
:103B54008B1671F40D811E81103009F4003049F484
:103B640084010F5F1F4F902FA12F892E9A2E00C022
:103B740000C0022F007C402F7EC0B1E0BC839F9226
:103B84008F92852E962E972FA82F722F832F5F91B9
:103B94006F910C810530B1F00C81202F30E0220FA1
:103BA400331F00E314E0F901E00FF11F2591359173
:103BB4000D811E810217130708F404C00C810F5FE6
:103BC4000C83E7CF452F562F692F982D272F382F99
:103BD4007A2FA92D60C0B1E0BC83982DA92D49018D
:103BE4000C810430B1F00C81202F30E0220F331F00
:103BF4000AE314E0F901E00FF11F259135910D81DD
:103C04001E810217130708F404C00C810F5F0C8394
:103C1400E7CF6F935F93492F5A2F9401672F782F23
:103C24009F91AF9138C0B1E0BC83982DA92D490173
:103C34000C810630B1F00C81202F30E0220F331FAD
:103C440004E214E0F901E00FF11F259135910D8193
:103C54001E810217130708F404C00C810F5F0C8344
:103C6400E7CF6F935F93492F5A2F9401672F782FD3
:103C74009F91AF9110C0403009F47FCF403C09F4CC
:103C84007CCF403809F4A7CF403469F2952FA62F92
:103C9400A401672F782F0C8110E00417150714F482
:103CA4004C8309C00C814017B0E05B0724F40C81FD
:103CB40010E0A80100C0B92FBA2B61F0890103708C
:103CC4001070B02FB12B49F0092F1A2F015010405A
:103CD400C80102C0892F9A2F02C0892F9A2F481732
:103CE40059072CF48C01041B150BC80102C080E099
:103CF40090E08901047C1870183009F4003449F408
:103D0400B82FB92B29F08C0101501040C80100C014
:103D140014C08901007C1870183009F4003869F463
:103D240002E010E00817190724F48C010250104037
:103D340002C000E010E0C80100C022FF6CC021FFF7
:103D440012C020FF03C0BDE2B88302C0BBE2B88347
:103D54000881F101008381010F5F1F4F18018B015E
:103D64000F5F1F4F34C020FF0BC0F101B0E2B083DE
:103D740081010F5F1F4F18018B010F5F1F4F27C079
:103D84008901007C1870183009F40038F9F4F10145
:103D9400B0E3B08381010F5F1F4F18018B010F5FE8
:103DA4001F4FB80125FF03C0B8E5B98302C0B8E7C7
:103DB400B9830981F101008381010F5F1F4F18014D
:103DC4008B010F5F1F4FB8018B0101C08B01B82F0E
:103DD400B92BE1F0B9014A01580101C0C601F10152
:103DE400B0E3B08381010F5F1F4F180185010F5F9E
:103DF4001F4F58018C01015010406801B02FB12BA6
:103E040069F79B01A401C601850100C04C01C901E9
:103E14009A01B8017FC0B82FB92BC9F023FD1AC08D
:103E240001C0C401F101B0E2B08381010F5F1F4FF3
:103E340018018B010F5F1F4FB8018C010150104016
:103E44004801B02FB12B69F78B01C40101C08B016C
:103E5400B80100C021FF13C020FF03C0BDE2BA8334
:103E640002C0BBE2BA830A81F101008381010F5FC2
:103E74001F4F18018B010F5F1F4FB8010EC020FFA9
:103E84000CC0F101B0E2B08381010F5F1F4F180134
:103E94008B010F5F1F4FB80100C08901007C1870AF
:103EA400183009F4003459F4F101B0E3B08381010E
:103EB4000F5F1F4F18018B010F5F1F4F27C0890130
:103EC400007C1870183009F40038F9F4F101B0E3FB
:103ED400B08381010F5F1F4F18018B010F5F1F4FCC
:103EE400B80125FF03C0B8E5BB8302C0B8E7BB83B4
:103EF4000B81F101008381010F5F1F4F18018B01BA
:103F04000F5F1F4FB8018B0101C08B014C01C90128
:103F14009A01B8010C8110E00217130764F4F1014F
:103F2400B0E3B08381010F5F1F4F18018B010F5F56
:103F34001F4FB801EFCFA9019A018A010150104027
:103F44005801B22FB32B09F49DC0082F007C0987B8
:103F540080C09501220F331F00E314E0F901E00F44
:103F6400F11F459155919F938F937F936F930D818B
:103F74001E810E94FB068C014AE050E00E94FB0671
:103F84008D016F917F918F919F91005D0C836DC026
:103F940085FF22C09501220F331F0AE314E0F901C3
:103FA400E00FF11F459155919F938F937F936F93EA
:103FB4000D811E810E94FB068C016F917F918F9170
:103FC4009F9198012F7030700AE713E0F901E00F18
:103FD400F11F04910C8321C09501220F331F0AE3C2
:103FE40014E0F901E00FF11F459155919F938F93D0
:103FF4007F936F930D811E810E94FB068C016F914C
:104004007F918F919F9198012F70307009E613E092
:10401400F901E00FF11F04910C8327C09501220FD1
:10402400331F04E214E0F901E00FF11F45915591AB
:104034009F938F937F936F930D811E810E94FB0644
:104044008C016F917F918F919F910770005D0C831C
:104054000CC00985003009F47CCF003C09F479CF09
:10406400003809F495CF0034C9F20C81F1010083C2
:1040740081010F5F1F4F18018B010F5F1F4FB801A4
:10408400A5015ACF83FF1CC000E010E008151905F4
:10409400D4F4AB01940100C0F101B0E2B08381011A
:1040A4000F5F1F4F18018A010F5F1F4FA80189017D
:1040B400015010409801B02FB12B71F78A0101C053
:1040C4008B01A80101C0AB01ADCA8A012996CDBFFD
:0840D400DEBFDF91CF910895DA
:100DE20009E3021528F0B0E32B1610F001E001C070
:040DF20000E0089580
:100DD2009801249F8001259F100D349F100D0895C6
:000DE20011
:100DF600C801BA01AA1BBB1B51E107C0AA1FBB1F32
:100E0600A617B70710F0A61BB70B881F991F5A9590
:080E1600A9F78095909508955D
:10411C002F920FC0B0E82B2E19C0B0EC2B2E16C06E
:10412C00B4E92B2E13C0B4ED2B2E10C0B0E82B2EFF
:10413C000DC0B1E02B1671F3B2E02B1671F3B3E0A6
:10414C002B1671F3B4E02B1671F3F0CF032D015045
:10415C00020D202E202E0E94C42AB0916B02BE7F2D
:10416C00B0936B0210E0E12FF0E0E40DF51D00813F
:10417C00002379F0E12FF0E0E40DF51D00811F9391
:10418C002F92202E34DA2F901F91012F0F5F102FBA
:10419C00EACFB0916B02B160B0936B022F9008958F
:0041AC0013
:1035FA00B0916B02BE7FB0936B020E94C42AB09155
:0A360A006B02B160B0936B020895EB
:104930002F923F924F925F920BEB12E020163106BE
:1049400039F0B0E03B1611F4B0E02B1609F001C0CD
:1049500019C0F101709605911591B02FB12B91F00E
:10496000F101709605911591F8010491002351F021
:10497000F1017096059115912801B1E03B2EB1E04F
:0E4980002B2EACDB5F904F903F902F90089550
:1040DC00F20104910023D9F0F20104915F924F9206
:1040EC00402EE1D94F905F9082010F5F1F4F280146
:1040FC00F2010491002359F0F20104912F92202E29
:10410C0076DA2F9082010F5F1F4F2801F1CF0895AF
:00411C00A3
:1034B2002F920FC0B0E82B2E19C0B0EC2B2E16C0E5
:1034C200B4E92B2E13C0B4ED2B2E10C0B0E82B2E76
:1034D2000DC0B1E02B1671F3B2E02B1671F3B3E01D
:1034E2002B1671F3B4E02B1671F3F0CF032D0150BC
:1034F200020D202EB0916B02B160B0936B02202EB0
:103502000E94C42AB0916B02BE7FB0936B02242C3E
:103512000E94C42AB0916B02B160B0936B022F90EB
:0235220008950A
:10498E00CF93DF93CDB7DEB76097CDBFDEBF219655
:10499E002F923F924F925F926F927F920BEB12E0AB
:1049AE002016310639F0B0E03B1611F4B0E02B16AC
:1049BE0009F001C02FC0F1017296259135910AE6DA
:1049CE0014E02017310749F0F10172960591159107
:1049DE00103009F4003009F001C01CC0F1017296CC
:1049EE0005911591F801319605911591103009F444
:1049FE00003009F40FC08E013101B4E74B2EB4E044
:104A0E005B2E180101DC8E012801BDE03B2EB1E0CA
:104A1E002B2E7DDB7F906F905F904F903F902F906D
:0C4A2E002F96CDBFDEBFDF91CF91089521
:10421600CF93DF93CDB7DEB72497CDBFDEBF219610
:10422600F101B0E0B083B2E07B1611F4BBEB6B1684
:1042360039F0B0E07B1611F4B0E06B1609F002C05D
:10424600810190C2F301729605911591143009F41B
:104256000A3649F0F301729605911591103009F46A
:10426600003009F002C081017DC2F301729605910A
:104276001591F801319605911591103009F4003029
:1042860011F481016FC2F3017296059115910A83AB
:104296001B834DC2F101B0E3B083F3017296059121
:1042A6001591F80133960491083008F5F3017296DA
:1042B60035914591E32FF42F319605911591F8012B
:1042C6002081E32FF42F33960491B02F01E010E004
:1042D600BB2321F0000F111FBA95E1F702231070DE
:1042E600B02FB12B19F0F101B1E3B08385C0F30112
:1042F600729605911591F80133960491003100F5F7
:10430600F301729645915591FA01319605911591F1
:10431600F80121913191FA0133960491B02F01E011
:1043260010E0BB2321F0000F111FBA95E1F702231D
:104336001323B02FB12B19F0F101B1E3B0835CC0A8
:10434600F301729605911591F801339604910032A6
:1043560050F5F301729625913591F9013196059143
:104366001591F8014191519161917191F90133963D
:104376000491B02F01E010E020E030E0BB2331F0E3
:10438600000F111F221F331FBA95D1F704231523DF
:1043960026233723B02FB12BB22BB32B19F0F10103
:1043A600B1E3B08329C0F301729625913591F901E5
:1043B600319605911591F801419151916191719153
:1043C600F90133960491B02F01E010E020E030E0CF
:1043D600BB2331F0000F111F221F331FBA95D1F7EF
:1043E6000423152326233723B02FB12BB22BB32B4F
:1043F60019F0F101B1E3B08381010F5F1F4F18017E
:10440600F801B0E0B083ADC1F30172960591159144
:104416000D5F1F4F0883198378C0F30172960591CB
:104426001591F801319605911591F801008110E07A
:104436003F922F921F930F935F924F923F922F922C
:10444600B2DEADB7BEB71696ADBFBEBF2F903F90DA
:1044560075C0F301729605911591F8013196059193
:104466001591F801019111913F922F921F930F938D
:104476005F924F923F922F9296DEADB7BEB71696D9
:10448600ADBFBEBF2F903F9059C0F3017296059104
:104496001591F801319605911591F8010191119147
:1044A600219131913F922F923F932F931F930F9318
:1044B6005F924F923F922F9268D8ADB7BEB71896CB
:1044C600ADBFBEBF2F903F9039C0F30172960591E4
:1044D6001591F801319605911591F8010191119107
:1044E600219131913F922F923F932F931F930F93D8
:1044F6005F924F923F922F9248D8ADB7BEB71896AB
:10450600ADBFBEBF2F903F9019C018812981E12F02
:10451600F22F0491013009F480CFE12FF22F04919C
:10452600023009F496CFE12FF22F0491043009F4FA
:10453600ACCFE12FF22F0491083039F212C1F3010A
:104546007296059115910D5F1F4F088319837CC0E4
:10455600F301729605911591F80131960591159121
:10456600F801008110E007FD1FEF3F922F921F9385
:104576000F935F924F923F922F9215DEADB7BEB763
:104586001696ADBFBEBF2F903F9077C0F3017296CF
:1045960005911591F801319605911591F801019152
:1045A60011913F922F921F930F935F924F923F92DA
:1045B6002F92F9DDADB7BEB71696ADBFBEBF2F9031
:1045C6003F905BC0F301729605911591F801319603
:1045D60005911591F80101911191219131913F9227
:1045E6002F923F932F931F930F935F924F923F9279
:1045F6002F920E94C81AADB7BEB71896ADBFBEBF00
:104606002F903F903AC0F301729605911591F801EB
:10461600319605911591F8010191119121913191F0
:104626003F922F923F932F931F930F935F924F9238
:104636003F922F920E94C81AADB7BEB71896ADBF6B
:10464600BEBF2F903F9019C018812981E12FF22F0C
:104656000491013009F47CCFE12FF22F049102304E
:1046660009F494CFE12FF22F0491043009F4AACF74
:10467600E12FF22F0491083031F273C0F3017296E4
:10468600059115910D5F1F4F0883198342C0F301F1
:10469600729605911591F801319605911591F801DB
:1046A60001911191219131913F922F923F932F9336
:1046B6001F930F935F924F923F922F920E94921AEE
:1046C600ADB7BEB71896ADBFBEBF2F903F902EC0F8
:1046D600F301729605911591F801319605911591A0
:1046E600F80101911191219131913F922F923F93BF
:1046F6002F931F930F935F924F923F922F920E9498
:10470600921AADB7BEB71896ADBFBEBF2F903F90F9
:104716000DC018812981E12FF22F0491043009F48C
:10472600B6CFE12FF22F0491083091F21AC01A8108
:104736002B81E12FF22F0491013009F4ABCDE12F4B
:10474600F22F0491023009F45FCEE12FF22F04918B
:10475600033009F4F4CEE12FF22F0491043009F46A
:104766008DCF81012396CDBFDEBFDF91CF91089516
:0047760043
:10359000CF93DF93CDB7DEB72297CDBFDEBF2196A5
:1035A0002F923F924F925F926F927F922F81388538
:1035B000FE018E01075F1F4F0E5F1F4F0193119396
:1035C0008E013F932F93380149845A841901C9D938
:1035D0002F913F91A801F801E20FF31FB0E0B083F3
:1035E0008A017F906F905F904F903F902F9021962F
:0A35F000CDBFDEBFDF91CF9108953B
:10296200CF93DF93CDB7DEB72A97CDBFDEBF2196D7
:1029720040E050E0F20182010F5F1F4F28010491F5
:102982000C83002309F48DC50C81053261F00C81A2
:10299200F101008381010F5F1F4F18018A010F5F50
:1029A2001F4FA801E7CF20E030E000E010E0B801BF
:1029B20028C08B010860B80182010F5F1F4F2801F8
:1029C20035C08B010160B80182010F5F1F4F2801E2
:1029D2002DC08B010260B80182010F5F1F4F2801D9
:1029E20025C08B011860B80182010F5F1F4F2801BB
:1029F2001DC08B010460B80182010F5F1F4F2801C7
:102A020015C0F20104910D32A1F2F20104910032DB
:102A1200C1F2F20104910B32E1F2F20104910332AC
:102A220001F3F2010491003321F301C0C1CF61FF30
:102A320004C08B010E7FB80100C063FF04C08B018C
:102A42000B7FB80100C0F201049110E03F922F9277
:102A5200202E0E94F1062F903F90002319F120E0D2
:102A620030E0CA0101C09A0189014AE050E00E94A7
:102A7200E906F2012491020FB0E01B1F005310403F
:102A8200A80182010F5F1F4F2801F801049110E095
:102A92003F922F92202E0E94F1062F903F9000230A
:102AA20011F71AC0F20104910A3299F4F30121914B
:102AB2003191F90101911191C80189010E5F1F4FF6
:102AC200F3010193119382010F5F1F4F28018C01C3
:102AD20001C08901CA01A801F20104910E3209F074
:102AE2004EC082010F5F1F4F2801F80104910A3284
:102AF200B1F4F30121913191F90101911191480150
:102B020089010E5F1F4FF3010193119382010F5F41
:102B12001F4F28019B01B4018A01AC012BC020E0A8
:102B220030E0F201049110E03F922F92202E0E9499
:102B3200F1062F903F900023B1F05F934F938901EC
:102B42004AE050E00E94E9064F915F91F201249120
:102B5200020FB0E01B1F00531040980182010F5F6B
:102B62001F4F2801DECF7F936F93B9018A01AC0119
:102B72002F913F91902FA12F4A015B0107C000E0E6
:102B820010E04C01942FA52F9B015801F201820104
:102B92000F5F1F4F280104910C83E6C0840182C499
:102BA200890100619801F2CFBDE3BD83B2E0BE832B
:102BB20040E050E01FC089010064680116C169014C
:102BC20014C189010062980100C08901006868018E
:102BD2000CC1F30101911191F801019111910D8341
:102BE2001E83F301019111910E5F1F4FF3010193B7
:102BF2001193A5010D811E81103009F4003021F4DA
:102C0200B8E3BD83B2E0BE83B0E0BF83B887B4014E
:102C1200892E9A2EC9012D813E810F811885F801D6
:102C2200E20FF31F0081002339F00F8118850F5F37
:102C32001F4F0F831887EFCF9C01CA01AB01B4016C
:102C4200B82FB92B39F00F8118858017910710F42E
:102C52008F8398870F8118850617170738F40F801E
:102C620018848B0100191109B80103C000E010E0BB
:102C7200B80123FD1CC0C9019B018B01015010400A
:102C8200B801B22FB32B61F0F101B0E2B083810140
:102C92000F5F1F4F18018A010F5F1F4FA801ECCF72
:102CA2007F936F93BA01AC018F919F9103C0CB01C7
:102CB200BA01A9012F8138850F8118850150104072
:102CC2000F831887B22FB32BA1F0ED81FE81008113
:102CD200F101008381010F5F1F4F18010D811E81D9
:102CE2000F5F1F4F0D831E838B010F5F1F4FB801B4
:102CF200E1CF43FF17C0AC019A018A010150104095
:102D0200A801B22FB32B61F0F101B0E2B0838101CF
:102D12000F5F1F4F18018B010F5F1F4FB801ECCFE0
:102D2200AB0101C0AB0126CEF30101911191F80173
:102D320000810C83F301019111910E5F1F4FF3018A
:102D4200019311938E010C5F1F4F0D831E83B1E01F
:102D5200BF83B0E0B887692F7A2FC501A40170CF75
:102D62008901006C680141C00C81003009F416CF62
:102D72000C810C3609F414CF0C810C3409F410CFF9
:102D82000C81053409F410CF0C81063609F40CCFFE
:102D92000C81053609F408CF0C81073609F404CFFB
:102DA2000C810F3609F407CF0C81043609F407CFE2
:102DB2000C81093609F403CF0C81003709F401CFE5
:102DC2000C81083509F4FDCE0C81083709F4FDCEDB
:102DD2000C81033709F4FDCE0C81033609F4A4CF2C
:102DE2000C81053709F4BCCFADCF8601007C107091
:102DF200103009F4003009F051C0C4FA0EF015C0C9
:102E0200F30101911191F8010191119121913191F7
:102E12000D831E832F833887F301019111910C5F7B
:102E22001F4FF3010193119316C0F3010191119108
:102E3200F8010191119120E017FD2FEF322F0D8340
:102E42001E832F833887F301019111910E5F1F4F6B
:102E5200F301019311934D815E816F81788500E0CA
:102E620010E020E030E04017510762077307A4F436
:102E720086010360A8010D801E8000E010E00019A9
:102E820011090F80188420E030E0200931090D83F8
:102E92001E832F83388701C0A6012CC0C4FA0EF00E
:102EA20015C0F30101911191F80101911191219144
:102EB20031910D831E832F833887F3010191119184
:102EC2000C5F1F4FF3010193119313C0F3010191A2
:102ED2001191F801019111910D831E83B0E0BF831E
:102EE200B887F301019111910E5F1F4FF301019316
:102EF2001193A601B0E0BB1611F4B0E0AB1691F449
:102F02000D811E812F813885303029F4203019F44B
:102F1200103009F4003039F485010F5F1F4F98011A
:102F2200590100C000C0042F007C802F7EC0B1E098
:102F3200BC836A010C810A30F1F00C81202F30E051
:102F4200220F331F220F331F0FE312E0F901E00FAC
:102F5200F11F45915591659175910D811E812F81CA
:102F62003885041715072607370708F404C00C81B3
:102F72000F5F0C83DFCFA5019601B401892F9A2F31
:102F820064C0B1E0BC836A010C810830F1F00C81AD
:102F9200202F30E0220F331F220F331F07E612E0EB
:102FA200F901E00FF11F45915591659175910D81E0
:102FB2001E812F813885041715072607370708F465
:102FC20004C00C810F5F0C83DFCFA5019601B40111
:102FD200892F9A2F3AC0B1E0BC836A010C810C3070
:102FE200F1F00C81202F30E0220F331F220F331F0C
:102FF20007EB11E0F901E00FF11F45915591659141
:1030020075910D811E812F813885041715072607BA
:10301200370708F404C00C810F5F0C83DFCFA501D2
:103022009601B401892F9A2F10C0803009F47FCF06
:10303200803C09F47CCF803809F4A3CF803459F264
:103042009A01A501B401892F9A2F0C8110E004176F
:10305200150714F44C8309C00C814017B0E05B07DC
:1030620024F40C8110E0A80100C0B82FB92B59F04C
:10307200890103701070B02FB12B31F08C01015017
:103082001040C80100C000C0481759072CF48C0139
:10309200041B150BC80102C080E090E08901047C8A
:1030A2001870183009F4003449F4B82FB92B29F0FC
:1030B2008C0101501040C80100C014C08901007C7D
:1030C2001870183009F4003869F402E010E00817AB
:1030D200190724F48C010250104002C000E010E0F5
:1030E200C80100C022FF6CC021FF12C020FF03C034
:1030F200BDE2B88302C0BBE2B8830881F10100835C
:1031020081010F5F1F4F18018B010F5F1F4F34C0EA
:1031120020FF0BC0F101B0E2B08381010F5F1F4FAE
:1031220018018B010F5F1F4F27C08901007C1870A7
:10313200183009F40038F9F4F101B0E3B0838101E9
:103142000F5F1F4F18018B010F5F1F4FB80125FF43
:1031520003C0B8E5B98302C0B8E7B9830981F101B8
:10316200008381010F5F1F4F18018B010F5F1F4FFB
:10317200B8018B0101C08B01B82FB92BE1F0B90165
:103182004A01580101C0C601F101B0E3B0838101D7
:103192000F5F1F4F180185010F5F1F4F58018C01F0
:1031A200015010406801B02FB12B69F79B01A401B7
:1031B200C601850100C05C01C80149019A017FC0B6
:1031C200B82FB92BC9F023FD1AC001C0C401F10107
:1031D200B0E2B08381010F5F1F4F18018B010F5FB7
:1031E2001F4FB8018C01015010404801B02FB12B84
:1031F20069F78B01C40101C08B01B80100C021FF36
:1032020013C020FF03C0BDE2BA8302C0BBE2BA838F
:103212000A81F101008381010F5F1F4F18018B01A9
:103222000F5F1F4FB8010EC020FF0CC0F101B0E2CA
:10323200B08381010F5F1F4F18018B010F5F1F4F7A
:10324200B80100C08901007C1870183009F40034FC
:1032520059F4F101B0E3B08381010F5F1F4F1801F0
:103262008B010F5F1F4F27C08901007C1870183037
:1032720009F40038F9F4F101B0E3B08381010F5F82
:103282001F4F18018B010F5F1F4FB80125FF03C0AD
:10329200B8E5BB8302C0B8E7BB830B81F1010083B1
:1032A20081010F5F1F4F18018B010F5F1F4FB80184
:1032B2008B0101C08B015C01C80149019A010C819B
:1032C20010E00217130764F4F101B0E3B083810147
:1032D2000F5F1F4F18018C010F5F1F4FC801EFCF07
:1032E200A9019A018A01015010406801B22FB32B43
:1032F20009F4B3C0082D007C098796C09601220FFD
:10330200331F220F331F0FE312E0F901E00FF11F09
:1033120045915591659175919F938F930D811E8172
:103322002F8138850E9403048B019C014AE050E002
:1033320060E070E00E9403048D019F018F919F91D4
:10334200005D0C837DC085FA0EF028C09601220F25
:10335200331F220F331F07E612E0F901E00FF11FBE
:1033620045915591659175919F938F930D811E8122
:103372002F8138850E9403048B019C018F919F91BC
:10338200A801B9014F7050706070707001EF13E0C6
:10339200F801E40FF51F04910C8327C09601220F58
:1033A200331F220F331F07E612E0F901E00FF11F6E
:1033B20045915591659175919F938F930D811E81D2
:1033C2002F8138850E9403048B019C018F919F916C
:1033D200A801B9014F7050706070707002E014E083
:1033E200F801E40FF51F04910C832AC09601220F05
:1033F200331F220F331F07EB11E0F901E00FF11F1A
:1034020045915591659175919F938F930D811E8181
:103412002F8138850E9403048B019C018F919F911B
:103422000770005D0C830CC00985003009F466CF7B
:10343200003C09F463CF003809F485CF0034B1F2BF
:103442000C81F101008381010F5F1F4F18018C0174
:103452000F5F1F4FC801A60144CF83FA0EF01CC0B4
:1034620000E010E00A151B05D4F4AC01950100C080
:10347200F101B0E2B08381010F5F1F4F18018A0191
:103482000F5F1F4FA8018901015010409801B02F12
:10349200B12B71F78A0101C08C01A80101C0AC01F6
:1034A20069CA8A012996CDBFDEBFDF91CF91089507
:0034B2001A
:10080600C9019A01AB01B801A1E21A2EAA1BBB1BB2
:10081600FD010DC0AA1FBB1FEE1FFF1FA217B307C6
:10082600E407F50720F0A20BB30BE40BF50B661FEC
:10083600771F881F991F1A9469F7609570958095A0
:0408460090950895EC
:10352400CF93DF93CDB7DEB72297CDBFDEBF219611
:103534002F923F924F925F926F927F922F813885A4
:10354400FE018E01075F1F4F0E5F1F4F0193119302
:103554008E013F932F93380149845A8419010E94A4
:103564000F072F913F91A801F801E20FF31FB0E07C
:10357400B0838A017F906F905F904F903F902F901F
:0C3584002196CDBFDEBFDF91CF910895EE
:100E1E00CF93DF93CDB7DEB7A397CDBFDEBF2196BD
:100E2E00B0E0B98FBA8FF20182010F5F1F4F280118
:100E3E0004910A87002311F40C94A9140A85053233
:100E4E0071F00A85F101008381010F5F1F4F1801B8
:100E5E00098D1A8D0F5F1F4F098F1A8FE4CFB0E0E7
:100E6E00BB87BC87B0E0BD87BE8732C00D851E85AF
:100E7E0008600D871E8782010F5F1F4F28013DC03E
:100E8E000D851E8501600D871E8782010F5F1F4F26
:100E9E00280133C00D851E8502600D871E878201D5
:100EAE000F5F1F4F280129C00D851E8518600D8705
:100EBE001E8782010F5F1F4F28011FC00D851E85E3
:100ECE0004600D871E8782010F5F1F4F280115C01A
:100EDE00F20104910D3251F2F2010491003281F2CD
:100EEE00F20104910B32B1F2F20104910332E1F2FC
:100EFE00F2010491003311F301C0B7CF0D851E85A9
:100F0E0001FF05C00D851E850E7F0D871E870D8581
:100F1E001E8503FF05C00D851E850B7F0D871E8761
:100F2E00F201049110E03F922F92202E53DF2F906A
:100F3E003F90002309F1B0E0BB87BC870B851C8571
:100F4E004AE050E03FDFF2012491020FB0E01B1F98
:100F5E00005310400B871C8782010F5F1F4F280123
:100F6E00F801049110E03F922F92202E33DF2F9044
:100F7E003F90002319F716C0F20104910A3291F442
:100F8E00F30121913191F901019111910B871C8788
:100F9E0089010E5F1F4FF3010193119382010F5FC1
:100FAE001F4F2801F20104910E3209F03DC082015B
:100FBE000F5F1F4F2801F80104910A3299F4F301D3
:100FCE0021913191F90101911191088719878901B8
:100FDE000E5F1F4FF3010193119382010F5F1F4F9D
:100FEE00280121C0B0E0B887B987F201049110E062
:100FFE003F922F92202EEEDE2F903F90002399F0FD
:10100E00088519854AE050E0DDDEF2012491020FD9
:10101E00B0E01B1F005310400887198782010F5F35
:10102E001F4F2801E2CF08C0B0E0B887B9870D8501
:10103E001E8510610D871E87F20182010F5F1F4F03
:10104E00280104910A87FEC0098D1A8D0C94AB14E9
:10105E000D851E8500610D871E87EECF0D851E85C1
:10106E0014600D871E872FC10D851E8500620D87AA
:10107E001E870D851E8511600D871E8724C10D8567
:10108E001E8512600D871E871EC10D851E8500648C
:10109E000D871E8718C117C10D851E8500620D872D
:1010AE001E870D851E8500680D871E870CC1F301F6
:1010BE0001911191F801019111910D8B1E8BF3018C
:1010CE00019111910E5F1F4FF301019311930D8941
:1010DE001E89103009F4003021F4B2E6BD8BB2E067
:1010EE00BE8BB0E0BF8BB88F2D893E890F89188DCE
:1010FE00F801E20FF31F0081002339F00F89188DDC
:10110E000F5F1F4F0F8B188FEFCF08851985B02FEC
:10111E00B12B59F0288539850F89188D2017310785
:10112E0020F4088519850F8B188F2B853C850F8928
:10113E00188D0217130748F40F88188C0B851C8521
:10114E00001911090B871C8703C0B0E0BB87BC8751
:10115E000D851E8503FD19C02B853C850B851C85D1
:10116E00015010400B871C87B22FB32B71F0F10189
:10117E00B0E2B08381010F5F1F4F1801098D1A8DE8
:10118E000F5F1F4F098F1A8FE7CF2F89388D0F8969
:10119E00188D015010400F8B188FB22FB32BB1F05A
:1011AE00ED89FE890081F101008381010F5F1F4FE0
:1011BE0018010D891E890F5F1F4F0D8B1E8B098D18
:1011CE001A8D0F5F1F4F098F1A8FDFCF0D851E856A
:1011DE0003FF19C02B853C850B851C8501501040E3
:1011EE000B871C87B22FB32B71F0F101B0E2B083E5
:1011FE0081010F5F1F4F1801098D1A8D0F5F1F4F51
:10120E00098F1A8FE7CF0FCEF30101911191F801DB
:10121E0000810A87F301019111910E5F1F4FF301B7
:10122E00019311938E01065F1F4F0D8B1E8BB1E044
:10123E00BF8BB0E0B88F69CF0D851E85006C0D8712
:10124E001E8741C00A85003009F4FECE0A850C3691
:10125E0009F4FECE0A850C3409F4FACE0A85063658
:10126E0009F4FCCE0A85053409F4FECE0A8505364E
:10127E0009F4FFCE0A85073609F401CF0A850F3629
:10128E0009F403CF0A85043609F405CF0A85093619
:10129E0009F401CF0A85003709F4FECE0A85083518
:1012AE0009F4FACE0A85083709F4FBCE0A8503370E
:1012BE0009F4FDCE0A85033609F4A6CF0A85053753
:1012CE0009F4BACFAFCF0D851E8500701770B02F01
:1012DE00B12B09F4C1C70D851E8514FF04C0B6E0FD
:1012EE00B887B0E0B987F30101911191F80101912E
:1012FE001191219131910F87188B298B3A8BF30124
:10130E00019111910C5F1F4FF301019311933F92C5
:10131E002F9240E050E060E070E00F851889298937
:10132E003A898CDA002800E009F001E02F903F9016
:10133E000023A9F00F85188929893A89B0E00B2777
:10134E00B0E01B27B0E02B27B0E83B270F87188BA8
:10135E00298B3A8B0D851E8503600D871E87B0E0A5
:10136E00BB8BBC8B3F922F920F85188929893A89A6
:10137E0040E050E060E070E01EDD002800E009F083
:10138E0001E02F903F90002309F48BC0AE014D5E1B
:10139E005F4FFE013F960191119121913191B7E17D
:1013AE003695279517950795BA95D1F710700E5764
:1013BE001040FA01019311930B891C8901501040C2
:1013CE000B8B1C8B43E050E0FDDC0B8B1C8B7F9258
:1013DE006F925F924F923F922F924AE050E052D915
:1013EE008B012F903F904F905F906F907F900B8B63
:1013FE001C8B20E030E00217130734F40B891C8994
:10140E00015010400B8B1C8B0B8800E000197F9253
:10141E006F925F924F923F922F92202ED1DA2F90A1
:10142E003F904F905F906F907F903F922F924F859D
:10143E00588969897A8950D90D8B1E8B2F8B388FDD
:10144E0040E050E060E87FE30D891E892F89388DDA
:10145E00F5D9002800E009F001E02F903F9000231D
:10146E0039F00B891C89015010400B8B1C8B19C055
:10147E003F922F9240E050E060E271E40D891E89A8
:10148E002F89388D8EDC002800E009F001E02F90C6
:10149E003F90002331F00B891C890F5F1F4F0B8B80
:1014AE001C8B2B893C8900E010E0021713071CF0FF
:1014BE00B1E0BA8702C00B890A870D851E8510FD23
:1014CE0015C00D851E8511FF10C02B893C890CEFB0
:1014DE001FEF2017310744F02B893C8908851985A9
:1014EE00201731070CF401C001C055C308851985BA
:1014FE00B02FB12B51F00D851E8511FF06C008854A
:10150E00198501501040088719872885398508E00C
:10151E0010E00217130718F4B8E0BA8702C0088566
:10152E000A873F922F920F85188929893A8940E0C0
:10153E0050E060E070E03FDC002800E009F001E0E0
:10154E002F903F90002309F4B8C07F926F925F9264
:10155E004F923F922F922B8833DAA801B9010F8553
:10156E00188929893A89EFDB0F87188B298B3A8BDB
:10157E000A8400E00019202E23DAA801B9010F8594
:10158E00188929893A89DFDB2F903F904F905F9021
:10159E006F907F900F87188B298B3A8BDEDB08DCE0
:1015AE003F922F92A801B9010F85188929893A898E
:1015BE00C0DB40E050E060E07FE3F3DB0028B0E00A
:1015CE0009F0B1E00B2F2F903F90002389F03F924E
:1015DE002F920F85188929893A8940E050E060E002
:1015EE007FE300D92F903F900F87188B298B3A8B72
:1015FE000F85188929893A89B0DB4A8550E04F5FFB
:10160E005F4FBA01660F771F660F771F47E152E0F3
:10161E00FB01E40FF51F45915591659175910417E6
:10162E00150726073707C0F03F922F920F851889AE
:10163E0029893A894DEC5CEC6CEC7DE34DD82F900A
:10164E003F900F87188B298B3A8B0B891C890F5F64
:10165E001F4F0B8B1C8B31C00F85188929893A8936
:10166E007CDB4A85642F70E0660F771F660F771F4D
:10167E0047E152E0FB01E40FF51F4591559165914D
:10168E0075910417150726073707B8F43F922F9266
:10169E000F85188929893A8940E050E060E271E4AB
:1016AE001BD82F903F900F87188B298B3A8B0B8965
:1016BE001C89015010400B8B1C8B0D851E8511FF54
:1016CE006FC00D851E8513FD6BC0288539850AE018
:1016DE0010E00217130724F4BAE0B887B0E0B98718
:1016EE000F85188929893A8938DB0D8B1E8B2F8B34
:1016FE00388F0D891E892F89388DB02FB12BB22BC3
:10170E00B32B49F14AE050E060E070E00D891E898C
:10171E002F89388D71D88D019F01303029F42030FA
:10172E0019F4103009F40030B1F408851985015010
:10173E001040088719874AE050E060E070E00D899C
:10174E001E892F89388D58D88B019C010D8B1E8BCD
:10175E002F8B388FCECF188529850A851017B0E0CC
:10176E002B07F4F408840A8500197F926F925F921A
:10177E004F923F922F92202E23D9A801B9010F85A7
:10178E00188929893A89DFDA2F903F904F905F9020
:10179E006F907F900F87188B298B3A8B08850A875D
:1017AE002885398589010B5F1F4F08010B851C8524
:1017BE00001911090B871C87B22FB32B29F40D8545
:1017CE001E8513FD01C006C00B851C8501501040FF
:1017DE000B871C870D851E8503701070B02FB12BE3
:1017EE0031F00B851C85015010400B871C870D8531
:1017FE001E8502FF48C00D851E8501FF17C00D8591
:10180E001E8500FF03C0BDE2B88302C0BBE2B883F1
:10181E000881F101008381010F5F1F4F1801098DAF
:10182E001A8D0F5F1F4F098F1A8F11C00D851E85E0
:10183E0000FF0DC0F101B0E2B08381010F5F1F4FB9
:10184E001801098D1A8D0F5F1F4F098F1A8F2B8567
:10185E003C8500E010E002171307A4F4F101B0E399
:10186E00B08381010F5F1F4F1801098D1A8D0F5F15
:10187E001F4F098F1A8F0B851C85015010400B8747
:10188E001C87E5CF4BC00D851E8503FD1BC02B8528
:10189E003C8500E010E002171307A4F4F101B0E25A
:1018AE00B08381010F5F1F4F1801098D1A8D0F5FD5
:1018BE001F4F098F1A8F0B851C85015010400B8707
:1018CE001C87E5CF0D851E8501FF17C00D851E8572
:1018DE0000FF03C0BDE2B98302C0BBE2B983098138
:1018EE00F101008381010F5F1F4F1801098D1A8DC1
:1018FE000F5F1F4F098F1A8F11C00D851E8500FFB8
:10190E000DC0F101B0E2B08381010F5F1F4F1801CE
:10191E00098D1A8D0F5F1F4F098F1A8F0F8518892A
:10192E0029893A891ADA0D8B1E8B2F8B388F0A85EF
:10193E00202F30E0220F331F220F331F07E112E05A
:10194E00F901E00FF11F45915591659175910D8942
:10195E001E892F89388D0E9403048B019C01005D26
:10196E00F101008381010F5F1F4F1801098D1A8D40
:10197E000F5F1F4F098F1A8F08851985B02FB12B56
:10198E0029F40D851E8513FD01C062C0F101BEE272
:10199E00B08381010F5F1F4F1801098D1A8D0F5FE4
:1019AE001F4F098F1A8F0A84B0E01B2E08851985E8
:1019BE0000191109088719870A85002381F10A8504
:1019CE0001500A87202F30E0220F331F220F331FC2
:1019DE0007E112E0F901E00FF11F45915591659174
:1019EE0075910D891E892F89388D0E9403048B01F4
:1019FE009C014AE050E060E070E00E9403048D011B
:101A0E009F01005DF101008381010F5F1F4F1801DF
:101A1E00098D1A8D0F5F1F4F098F1A8FCDCF088535
:101A2E001985B02FB12BA1F0F101B0E3B083810184
:101A3E000F5F1F4F1801098D1A8D0F5F1F4F098FF2
:101A4E001A8F088519850150104008871987E7CF2E
:101A5E000D851E8505FF0EC0F101B5E4B083810131
:101A6E000F5F1F4F1801098D1A8D0F5F1F4F098FC2
:101A7E001A8F0DC0F101B5E6B08381010F5F1F4FC4
:101A8E001801098D1A8D0F5F1F4F098F1A8F2B8921
:101A9E003C8900E010E020173107B4F40B881C8855
:101AAE0000E010E0001911090B8B1C8BF101BDE257
:101ABE00B08381010F5F1F4F1801098D1A8D0F5FC3
:101ACE001F4F098F1A8F0DC0F101BBE2B083810148
:101ADE000F5F1F4F1801098D1A8D0F5F1F4F098F52
:101AEE001A8F7F926F925F924F923F922F924AE09F
:101AFE0050E00B891C890E9449038B012F903F9067
:101B0E00005DF101008381010F5F1F4F1801098DE8
:101B1E001A8D0F5F1F4F098F1A8F3F922F924AE037
:101B2E0050E00B891C890E9449038C012F903F9035
:101B3E004F905F906F907F90005DF1010083810167
:101B4E000F5F1F4F1801098D1A8D0F5F1F4F098FE1
:101B5E001A8F0D851E8503FF1DC02B853C8500E069
:101B6E0010E002171307B4F4F101B0E2B083810163
:101B7E000F5F1F4F1801098D1A8D0F5F1F4F098FB1
:101B8E001A8F0B851C85015010400B871C87B02FB8
:101B9E00B12B51F748C90D851E8511FFAFC02B899A
:101BAE003C8900E010E0201731075CF40B891C899A
:101BBE000150104008010885198500191109088780
:101BCE0019870F85188929893A89C7D80D8B1E8BDD
:101BDE002F8B388FB1E0BA870A850A30F1F00A856B
:101BEE00202F30E0220F331F220F331F07E112E0A8
:101BFE00F901E00FF11F45915591659175910D8990
:101C0E001E892F89388D041715072607370708F404
:101C1E0004C00A850F5F0A87DFCF0A84B0E01B2E4F
:101C2E000885198500191109088719870D891E89DC
:101C3E002F89388DBDD83F922F92A801B9010F85FB
:101C4E00188929893A8975D82F903F900F8F18A33C
:101C5E0029A33AA37F926F925F924F923F922F9257
:101C6E0028840E94E7042F903F904F905F906F90D2
:101C7E007F904F8D58A169A17AA13F922F920E9419
:101C8E00730340E050E060E07FE30E94F9032F9081
:101C9E003F9063D80D8B1E8B2F8B388F088519853F
:101CAE00B02FB12B59F14AE050E060E070E00D89A1
:101CBE001E892F89388D0E9403048D019F013030BB
:101CCE0029F4203019F4103009F40030B9F44AE048
:101CDE0050E060E070E00D891E892F89388D0E94DA
:101CEE0003048B019C010D8B1E8B2F8B388F088567
:101CFE0019850150104008871987D0CF288539855E
:101D0E000CE010E0021713078CF03F922F922884FC
:101D1E000E942C044F85588969897A890E94F9039B
:101D2E002F903F900F87188B298B3A8B3F922F92D3
:101D3E000F85188929893A8940E050E060E070E00B
:101D4E003AD8002800E009F001E02F903F900023E0
:101D5E0009F46FC00F85188929893A890E94B40643
:101D6E00303029F4203019F4103009F4003009F025
:101D7E0060C02B893C8901E010E0021713070CF0BC
:101D8E0058C07F926F925F924F923F922F922B8804
:101D9E000E94E704A801B9010F85188929893A899B
:101DAE000E94AA062F903F904F905F906F907F9069
:101DBE003F922F924FE550E769E870E40E942504A8
:101DCE000028B0E009F0B1E00B2F2F903F900023D8
:101DDE0039F00B891C89095010400B8B1C8B06C0E7
:101DEE000B891C89085010400B8B1C8B7F926F92B5
:101DFE005F924F923F922F922B880E94E704A80188
:101E0E00B9010F85188929893A890E94AA062F904F
:101E1E003F904F905F906F907F900E94B4060D8B15
:101E2E001E8B2F8B388FB0E0BF87B88BB98BBA8BD8
:101E3E0023C00F85188929893A890E94B4060D8B13
:101E4E001E8B2F8B388F0D891E892F89388D0E94FE
:101E5E00DF063F922F92A801B9010F8518892989B3
:101E6E003A890E94A0062F903F900F87188B298BDE
:101E7E003A8BB0E0BB8BBC8BB1E0BA870A850A30D7
:101E8E00F1F00A85202F30E0220F331F220F331F6F
:101E9E0007E112E0F901E00FF11F459155916591AF
:101EAE0075910D891E892F89388D04171507260700
:101EBE00370708F404C00A850F5F0A87DFCF48850D
:101ECE0059850A85202F30E0240F351F0B891C8978
:101EDE00020F131F08010B851C85001911090B87B2
:101EEE001C870D851E8513FD06C008851985B02F2C
:101EFE00B12B09F406C00B851C85015010400B87D1
:101F0E001C870D851E8503701070B02FB12B31F01C
:101F1E000B851C85015010400B871C870D851E8577
:101F2E0002FF48C00D851E8501FF17C00D851E8559
:101F3E0000FF03C0BDE2BA8302C0BBE2BA830A81CE
:101F4E00F101008381010F5F1F4F1801098D1A8D5A
:101F5E000F5F1F4F098F1A8F11C00D851E8500FF51
:101F6E000DC0F101B0E2B08381010F5F1F4F180168
:101F7E00098D1A8D0F5F1F4F098F1A8F2B853C8588
:101F8E0000E010E002171307A4F4F101B0E3B083F0
:101F9E0081010F5F1F4F1801098D1A8D0F5F1F4FA3
:101FAE00098F1A8F0B851C85015010400B871C87DB
:101FBE00E5CF4BC00D851E8503FD1BC02B853C85D3
:101FCE0000E010E002171307A4F4F101B0E2B083B1
:101FDE0081010F5F1F4F1801098D1A8D0F5F1F4F63
:101FEE00098F1A8F0B851C85015010400B871C879B
:101FFE00E5CF0D851E8501FF17C00D851E8500FFDF
:10200E0003C0BDE2BB8302C0BBE2BB830B81F10107
:10201E00008381010F5F1F4F1801098D1A8D0F5F0D
:10202E001F4F098F1A8F11C00D851E8500FF0DC021
:10203E00F101B0E2B08381010F5F1F4F1801098DCE
:10204E001A8D0F5F1F4F098F1A8F1A850A8501503F
:10205E000A87112371F10A85202F30E0220F331FDA
:10206E00220F331F07E112E0F901E00FF11F459136
:10207E005591659175910D891E892F89388D0E9414
:10208E0003048B019C014AE050E060E070E00E9486
:10209E0003048D019F01005DF101008381010F5F3B
:1020AE001F4F1801098D1A8D0F5F1F4F098F1A8F41
:1020BE00CCCF2B893C8900E010E002171307A4F463
:1020CE00F101B0E3B08381010F5F1F4F1801098D3D
:1020DE001A8D0F5F1F4F098F1A8F0B891C890150A4
:1020EE0010400B8B1C8BE5CF2885398508E010E05E
:1020FE00021713071CF4B8E0BA8702C008850A87D6
:10210E000A84B0E01B2E088519850019110908876D
:10211E0019870A85002329F40D851E8513FD01C03C
:10212E000DC0F101BEE2B08381010F5F1F4F180198
:10213E00098D1A8D0F5F1F4F098F1A8F7F926F9225
:10214E005F924F923F922F922A840E94E7042F9023
:10215E003F904F905F906F907F903F922F924F8560
:10216E00588969897A890E9473032F903F900E9443
:10217E00B4060D8B1E8B2F8B388F0A85002381F1B1
:10218E000A8501500A87202F30E0220F331F220FBD
:10219E00331F07E112E0F901E00FF11F4591559150
:1021AE00659175910D891E892F89388D0E940304C2
:1021BE008B019C014AE050E060E070E00E94030455
:1021CE008D019F01005DF101008381010F5F1F4FA3
:1021DE001801098D1A8D0F5F1F4F098F1A8FCDCFE2
:1021EE0008851985B02FB12BA1F0F101B0E3B083B2
:1021FE0081010F5F1F4F1801098D1A8D0F5F1F4F41
:10220E00098F1A8F08851985015010400887198784
:10221E00E7CF0D851E8503FF1DC02B853C8500E095
:10222E0010E002171307B4F4F101B0E2B08381019C
:10223E000F5F1F4F1801098D1A8D0F5F1F4F098FEA
:10224E001A8F0B851C85015010400B871C87B02FF1
:10225E00B12B51F70C941A070D851E85007C10705A
:10226E00103009F4003009F052C00D851E8504FFB0
:10227E0015C0F30101911191F80101911191219174
:10228E0031910D8B1E8B2F8B388FF3010191119194
:10229E000C5F1F4FF3010193119316C0F3010191CF
:1022AE001191F8010191119120E017FD2FEF322FBE
:1022BE000D8B1E8B2F8B388FF301019111910E5FB9
:1022CE001F4FF301019311934D895E896F89788DAC
:1022DE0000E010E020E030E040175107620773077E
:1022EE00ACF40D851E8503600D871E870D881E8834
:1022FE0000E010E0001911090F88188C20E030E082
:10230E00200931090D8B1E8B2F8B388F2CC00D851C
:10231E001E8504FF15C0F30101911191F801019181
:10232E001191219131910D8B1E8B2F8B388FF301D3
:10233E00019111910C5F1F4FF3010193119313C083
:10234E00F30101911191F801019111910D8B1E8BE9
:10235E00B0E0BF8BB88FF301019111910E5F1F4F4B
:10236E00F3010193119308851985103009F400309B
:10237E0091F40D891E892F89388D303029F4203043
:10238E0019F4103009F4003031F4088519850F5F07
:10239E001F4F088719870D85007C802F6CC0B1E018
:1023AE00BA870A850A30F1F00A85202F30E0220F15
:1023BE00331F220F331F07E112E0F901E00FF11F67
:1023CE0045915591659175910D891E892F89388D8D
:1023DE00041715072607370708F404C00A850F5F90
:1023EE000A87DFCF53C0B1E0BA870A850830F1F013
:1023FE000A85202F30E0220F331F220F331F07E8EC
:10240E0012E0F901E00FF11F45915591659175911B
:10241E000D891E892F89388D041715072607370752
:10242E0008F404C00A850F5F0A87DFCF2FC0B1E022
:10243E00BA870A850C30F1F00A85202F30E0220F82
:10244E00331F220F331F07EE11E0F901E00FF11FCA
:10245E0045915591659175910D891E892F89388DFC
:10246E00041715072607370708F404C00A850F5FFF
:10247E000A87DFCF0BC0803009F491CF803C09F47E
:10248E008ECF803809F4AFCF803489F20A85288543
:10249E00398510E0021713071CF408850A870BC054
:1024AE00188529850A851017B0E02B0724F40A85B4
:1024BE000887B0E0B9870B851C85B02FB12B69F06A
:1024CE000D851E8503701070B02FB12B31F00B856A
:1024DE001C85015010400B871C872B853C85088579
:1024EE001985021713074CF4088419840B851C8573
:1024FE00001911090B871C8703C0B0E0BB87BC878E
:10250E000D851E85047C1870183009F4003461F4B2
:10251E000B851C85B02FB12B31F00B851C8501501E
:10252E0010400B871C8719C00D851E85007C187006
:10253E00183009F4003889F42B853C8502E010E050
:10254E00021713073CF40B851C85025010400B87B5
:10255E001C8703C0B0E0BB87BC870D851E8502FFBC
:10256E0074C00D851E8501FF17C00D851E8500FFE9
:10257E0003C0BDE2BC8302C0BBE2BC830C81F1018F
:10258E00008381010F5F1F4F1801098D1A8D0F5F98
:10259E001F4F098F1A8F3DC00D851E8500FF0EC07F
:1025AE00F101B0E2B08381010F5F1F4F1801098D59
:1025BE001A8D0F5F1F4F098F1A8F2BC00D851E8529
:1025CE00007C1870183009F4003819F5F101B0E3E9
:1025DE00B08381010F5F1F4F1801098D1A8D0F5F98
:1025EE001F4F098F1A8F0D851E8505FF03C0B8E595
:1025FE00BD8302C0B8E7BD830D81F1010083810167
:10260E000F5F1F4F1801098D1A8D0F5F1F4F098F16
:10261E001A8F0B851C85B02FB12BB1F0F101B0E3F1
:10262E00B08381010F5F1F4F1801098D1A8D0F5F47
:10263E001F4F098F1A8F0B851C85015010400B8779
:10264E001C87B02FB12B51F78CC00B851C85B02F7A
:10265E00B12BD1F00D851E8503FD16C0F101B0E240
:10266E00B08381010F5F1F4F1801098D1A8D0F5F07
:10267E001F4F098F1A8F0B851C85015010400B8739
:10268E001C87B02FB12B51F70D851E8501FF17C08A
:10269E000D851E8500FF03C0BDE2BE8302C0BBE2F6
:1026AE00BE830E81F101008381010F5F1F4F180160
:1026BE00098D1A8D0F5F1F4F098F1A8F11C00D854F
:1026CE001E8500FF0DC0F101B0E2B08381010F5FE6
:1026DE001F4F1801098D1A8D0F5F1F4F098F1A8F0B
:1026EE000D851E85007C1870183009F4003471F4C5
:1026FE00F101B0E3B08381010F5F1F4F1801098D07
:10270E001A8D0F5F1F4F098F1A8F2BC00D851E85D7
:10271E00007C1870183009F4003819F5F101B0E397
:10272E00B08381010F5F1F4F1801098D1A8D0F5F46
:10273E001F4F098F1A8F0D851E8505FF03C0B8E543
:10274E00BF8302C0B8E7BF830F81F101008381010F
:10275E000F5F1F4F1801098D1A8D0F5F1F4F098FC5
:10276E001A8F288539850A8510E00217130774F42D
:10277E00F101B0E3B08381010F5F1F4F1801098D86
:10278E001A8D0F5F1F4F098F1A8FEBCF2885398552
:10279E00088519850150104008871987B22FB32B71
:1027AE0009F4ADC00D85007C0F8F8FC0088519858B
:1027BE009801220F331F220F331F07E112E0F90198
:1027CE00E00FF11F45915591659175910D891E8907
:1027DE002F89388D0E9403048B019C014AE050E042
:1027EE0060E070E00E9403048D019F01005D0A8786
:1027FE0078C00D851E8505FF26C0088519859801B0
:10280E00220F331F220F331F07E812E0F901E00FEA
:10281E00F11F45915591659175910D891E892F89ED
:10282E00388D0E9403048B019C01A801B9014F70E1
:10283E0050706070707008E513E0F801E40FF51F3A
:10284E0004910A8725C0088519859801220F331F28
:10285E00220F331F07E812E0F901E00FF11F459137
:10286E005591659175910D891E892F89388D0E941C
:10287E0003048B019C01A801B9014F705070607068
:10288E00707007E413E0F801E40FF51F04910A8756
:10289E0028C0088519859801220F331F220F331F78
:1028AE0007EE11E0F901E00FF11F45915591659189
:1028BE0075910D891E892F89388D0E9403048B0115
:1028CE009C010770005D0A870CC00F8D003009F463
:1028DE006DCF003C09F46ACF003809F48ACF00347A
:1028EE00C1F20A85F101008381010F5F1F4F1801AC
:1028FE00098D1A8D0F5F1F4F098F1A8F47CF0D85C8
:10290E001E8503FF1DC02B853C8500E010E00217DD
:10291E001307B4F4F101B0E2B08381010F5F1F4FD2
:10292E001801098D1A8D0F5F1F4F098F1A8F0B8596
:10293E001C85015010400B871C87B02FB12B51F70F
:10294E000C941A07098D1A8DA296CDBFDEBFDF91AA
:04295E00CF91089578
:1009CE00CF93DF93CDB7DEB72497CDBFDEBF219691
:1009DE00B0E02B160CF0D5C000E00219202E0E361A
:1009EE000CF475C044E62F9250E047FD5FEF022DE8
:1009FE0010E027FC1FEF46DE062F2F9010E007FDBC
:100A0E001FEF0E5E1F4F9801220F331F220F331F51
:100A1E000FE411E0F901E00FF11F059115912591F9
:100A2E003591088319832A833B8344E62F9250E045
:100A3E0047FD5FEF022D10E027FC1FEF23DE082F8E
:100A4E004AE010E007FD1FEF50E047FD5FEF1ADEB2
:100A5E00062F10E007FD1FEF075F1F4F9801220FB3
:100A6E00331F220F331F0FE411E0F901E00FF11FC6
:100A7E004591559165917591088119812A813B8126
:100A8E002BDE2F90088319832A833B834AE050E0A4
:100A9E0047FD5FEF022D10E027FC1FEFF3DD082F5F
:100AAE00202F30E007FD3FEF220F331F220F331FA1
:100ABE000FE411E0F901E00FF11F45915591659199
:100ACE007591088119812A813B8106DE2CC10AE0CD
:100ADE0002150CF044C04AE02F9250E047FD5FEF44
:100AEE00022D10E027FC1FEFCDDD062F2F9010E01A
:100AFE0007FD1FEF075F1F4F9801220F331F220FB5
:100B0E00331F0FE411E0F901E00FF11F059115916C
:100B1E0025913591088319832A833B834AE050E05F
:100B2E0047FD5FEF022D10E027FC1FEFABDD082F16
:100B3E00202F30E007FD3FEF220F331F220F331F10
:100B4E000FE411E0F901E00FF11F45915591659108
:100B5E007591088119812A813B81BEDDE4C0222D69
:100B6E0030E027FC3FEF220F331F220F331F0FE41D
:100B7E0011E0F901E00FF11F0591159125913591C5
:100B8E00D2C0BEE62B160CF475C044E62F9250E090
:100B9E0047FD5FEF022D10E027FC1FEF73DD062FE0
:100BAE002F9010E007FD1FEF0E5E1F4F9801220FD2
:100BBE00331F220F331F03E811E0F901E00FF11F7D
:100BCE000591159125913591088319832A833B83CD
:100BDE0044E62F9250E047FD5FEF022D10E027FC18
:100BEE001FEF50DD082F4AE010E007FD1FEF50E029
:100BFE0047FD5FEF47DD062F10E007FD1FEF075F94
:100C0E001F4F9801220F331F220F331F03E811E0ED
:100C1E00F901E00FF11F459155916591759108818C
:100C2E0019812A813B8158DD2F90088319832A83ED
:100C3E003B834AE050E047FD5FEF022D10E027FCBA
:100C4E001FEF20DD082F202F30E007FD3FEF220F92
:100C5E00331F220F331F03E811E0F901E00FF11FDC
:100C6E004591559165917591088119812A813B8134
:100C7E0033DD59C00AE002150CF044C04AE02F9251
:100C8E0050E047FD5FEF022D10E027FC1FEFFADC6E
:100C9E00062F2F9010E007FD1FEF075F1F4F9801E3
:100CAE00220F331F220F331F03E811E0F901E00F6B
:100CBE00F11F0591159125913591088319832A838A
:100CCE003B834AE050E047FD5FEF022D10E027FC2A
:100CDE001FEFD8DC082F202F30E007FD3FEF220F4B
:100CEE00331F220F331F03E811E0F901E00FF11F4C
:100CFE004591559165917591088119812A813B81A4
:100D0E00EBDC11C0222D30E027FC3FEF220F331F0A
:100D1E00220F331F03E811E0F901E00FF11F0591D7
:100D2E001591259135912396CDBFDEBFDF91CF91E1
:020D3E00089516
:10069200C801BA0197FB092E07260AD077FD04D0BC
:1006A2000CD006D000201AF4709561957F4F089502
:1006B200F6F7909581959F4F0895AA1BBB1B51E1B8
:1006C20007C0AA1FBB1FA617B70710F0A61BB70BC0
:1006D200881F991F5A95A9F780959095BC01CD0165
:0406E20008950895DA
:1006E600042E152E262E372E88DF002E112E222EB2
:0406F600332E089502
:10060000B9DF81F1E62ED52EC42EB32EA22E912E67
:10061000802E002D112D222D332DACDF19F16E25EA
:100620004C0D5D1D40385307F4F441387FEF5707F8
:10063000FCF088279927AA27BB2770E2B695A795D3
:1006400097958795379527951795079520F4880DE9
:10065000991DAA1DBB1D7A9589F7032F3A2F292FC3
:10066000182F9DDF0AC00FEF102F2FE73FE7FACFBB
:0C0670000027102F202F302FF5CF089509
:10057400F7DF79F0632F6078220F331F432F5FE793
:10058400451B55275040269530E8232B3327989454
:0A05940003C0442755276627089589
:10056400002329F4112319F4222309F433230895D1
:0005740087
:10059E00E2DF11F19F938F938EE790E0332351F0BA
:1005AE00369527951795079548175907B4F44F5F59
:1005BE005F4FF4CF80959095019622239AF0000F0D
:1005CE00111F221F481759071CF041505040F5CFFC
:1005DE00002711272227332708C033270FEF102FAC
:0C05EE002FE7322F8F919F91ACDF089512
:1005500009D039F041585F4F342F220F3695279537
:04056000362B089599
:10085800CF93DF93CDB7DEB72497CDBFDEBF219608
:10086800BEE62B1608F45AC044E6022DABDF10E0B2
:100878000E5E1F4F9801220F331F220F331F0FE404
:1008880011E0F901E00FF11F0591159125913591BE
:100898002F9240E050E060E07FE321DF2F90088353
:1008A80019832A833B8344E6022D8CDF092F4AE013
:1008B80089DF10E0075F1F4F9801220F331F220FB7
:1008C800331F0FE411E0F901E00FF11F4591559135
:1008D80065917591088119812A813B812F92FFDEEC
:1008E8002F90088319832A833B834AE0022D6ADF0D
:1008F800092F202F30E0220F331F220F331F0FE460
:1009080011E0F901E00FF11F45915591659175913D
:10091800088119812A813B81E2DE4FC00AE0021575
:10092800C0F54AE0022D4EDF10E0075F1F4F980127
:10093800220F331F220F331F0FE411E0F901E00FDC
:10094800F11F05911591259135912F9240E050E0C6
:1009580060E07FE3C4DE2F90088319832A833B83FA
:100968004AE0022D2FDF092F202F30E0220F331FFE
:10097800220F331F0FE411E0F901E00FF11F459139
:10098800559165917591088119812A813B81A7DE6E
:1009980014C0222D30E0220F331F220F331F0FE423
:1009A80011E0F901E00FF11F05911591259135919D
:1009B80040E050E060E07FE392DE2396CDBFDEBFEB
:0609C800DF91CF910895BC
:1007CC00992779E004C0991F941708F0941B001F17
:0807DC007A95C9F70095089514
:0E084A00CCDF1CF40024039401C000240895A8
:0E07E400042E152E262E372E47DF00230895F3
:10067C00BEDF332332F070DF11F001E003C000273E
:06068C0001C00FEF08950C
:0605FA0068944EDF089535
:10049A00F8DF09F441C0E62ED52EC42EB32EA22EC3
:1004AA00912E802E002D112D222D332DEADF09F4F5
:1004BA003DC0842F952F8C199D09B9F072F490953F
:1004CA00809501964C2D5D2D883180F535952795BF
:1004DA00179507950197D1F708C08831E8F4B594C4
:1004EA00A794979487940197D1F766272EF0080D61
:1004FA00191D2A1D3B1D09C0801A910AA20AB30AB6
:10050A00082D192D2A2D3B2D332312F4B1DF60E873
:10051A0041D001C018D016C0002D112D222D332D27
:10052A00D6F71BD0C1F340E83427F5CF082D192D93
:10053A002A2D3B2D4C2D5D2D6E2D33235AF798DF36
:06054A0060E8E8CF08950F
:0E048C0073D021F0662309F0F2DF98940895F2
:10047A0000951095209530950F5F1F4F2F4F3F4FD6
:02048A000895D3
:0E0DC4000FDD19F00024039401C000240895EF
:0E0DB00019DD1CF00024039401C000240895F6
:100D5400042E152E262E372EDBDC002E112E222EED
:040D6400332E08958D
:100714003F932F931F930F93002D112D222D332DD3
:1007240027DF09F44BC0E62ED52EC42EB32EA22EFD
:10073400912E802E0F911F912F913F9119DF61F11E
:100744006E254C195D09403853073CF541387FEF5D
:1007540057077CF180E27724632E522E412E302FEE
:10076400222711270027000F111F221F331F441CAB
:10077400551C661C771C28F0481859086A087B0821
:1007840004C0480C591C6A1C7B1C0AF001608A9541
:1007940051F74150504001DF16C00FEF102F2FE7E3
:1007A4003FE76623C9F3DCDEB9F3342D30E83425A2
:1007B400F3CF0027102F202F302FEECF0F900F9064
:0807C4000F900F90EACF089599
:100D680005DCF1F05523C2F04F31A8F44731C1F04A
:100D780050F44195495E05C0359527951795079517
:100D88004A95D1F70DC04751000F111F221F331F7D
:100D98004A95D1F705C03FE7232F132F032F03C030
:080DA800662309F066DB0895E3
:060DBE0068949CDC08951E
:1006FA0047E16627552726F0332312F4B9DE60E86E
:04070A0049DF089526
:100D4000042E152E262E372E58DC002E112E222E84
:040D5000332E0895A1
:1007F200042E152E262E372E89DF002E112E222EA4
:04080200332E0895F4
:06070E00E894C4DE08952A
:1047CE00CF93DF93CDB7DEB76097CDBFDEBF219617
:1047DE002F923F924F925F926F927F920BEB12E06D
:1047EE002016310639F0B0E03B1611F4B0E02B166E
:1047FE0009F001C02FC0F1017296259135910AE69C
:10480E0014E02017310749F0F101729605911591C8
:10481E00103009F4003009F001C01CC0F10172968D
:10482E0005911591F801319605911591103009F405
:10483E00003009F40FC08E013101B0E74B2EB4E009
:10484E005B2E1801E1DC8E012801BDE03B2EB1E0AC
:10485E002B2E5DDC7F906F905F904F903F902F904E
:0C486E002F96CDBFDEBFDF91CF910895E3
:10487A00CF93DF93CDB7DEB76097CDBFDEBF21966A
:10488A002F923F924F925F926F927F920BEB12E0C0
:10489A002016310639F0B0E03B1611F4B0E02B16C1
:1048AA0009F001C034C0F1017296259135910AE6EA
:1048BA0014E02017310749F0F1017296059115911C
:1048CA00103009F4003009F001C021C0F1017296DC
:1048DA0005911591F801319605911591103009F459
:1048EA00003009F414C0FE01B0E3B0838E01310137
:1048FA00B8E74B2EB4E05B2E180188DCFE0100817C
:10490A00402EBFE03B2EB1E02B2E0E94591A7F9019
:10491A006F905F904F903F902F902F96CDBFDEBF44
:06492A00DF91CF9108951A
:104786002F923F924F925F92B3E14B2EB2E05B2E97
:10479600B9E03B2EB1E02B2EBEDC5F904F903F90F0
:0447A6002F900895B3
:1047AA002F923F924F925F92BAE04B2EB2E05B2E6D
:1047BA00B9E03B2EB1E02B2EACDC5F904F903F90DE
:0447CA002F9008958F
:1059D6002F923F9220920002309201022090040200
:0C59E600309005026CDD3F902F9008957A
:1059BA002F923F9220920202309203022090040218
:0C59CA00309005027ADD3F902F90089588
:1059F2002F923F92209208023092090220900402D4
:0C5A0200309005025EDD3F902F9008956B
:105A0E002F923F924F925F926F926624B6E95B2E71
:105A1E004424B3E22B2EB0E03B2E21DB002311F009
:105A2E0001E047C06624B6E95B2EB1E04B2EB3E22F
:105A3E002B2EB0E03B2E13DB002311F002E039C019
:105A4E006624B6E95B2EB2E04B2EB3E22B2EB0E00D
:105A5E003B2E05DB002311F003E02BC06624B6E9D4
:105A6E005B2EB3E04B2EB3E22B2EB0E03B2EF7DADB
:105A7E00002311F006E01DC06624B6E95B2EB4E0EB
:105A8E004B2EB3E22B2EB0E03B2EE9DA002311F0C1
:105A9E0005E00FC06624B6E95B2EB5E04B2EB3E2EF
:105AAE002B2EB0E03B2EDBDA002311F004E001C018
:0E5ABE0000E06F905F904F903F902F90089502
:10506C00CF93DF93CDB7DEB72297CDBFDEBF2196AE
:10507C00B0E0B983B42D11E0BB2319F0110FBA9530
:10508C00E9F71883F101008101230023B0E009F452
:10509C00B1E00B2F0625B1F000E0051530F465DB0F
:1050AC0064DB052D0150502EF7CFF10110810881E2
:1050BC0001230023B0E009F4B1E00B2F062511F019
:1050CC00BFEFB98309812196CDBFDEBFDF91CF91B0
:0250DC00089535
:104776001BE008E50A95F1F71A95E1F700000895A0
:0047860033
:0A5BCA0000910402109105020895F5
:105B6A00CF93DF93CDB7DEB72297CDBFDEBF2196A5
:105B7A000091040210910502123009F40B3B49F01E
:105B8A000091040210910502103009F4003009F066
:105B9A0001C010C00091040210910502F8013A9662
:105BAA000591159108831983B02FB12B19F0E8815B
:105BBA00F98109952196CDBFDEBFDF91CF91089576
:005BCA00DB
:105ACC00CF93DF93CDB7DEB72297CDBFDEBF219644
:105ADC00B2E03B1611F4BBEB2B1639F0B0E03B16E1
:105AEC0011F4B0E02B1609F001C033C0F1013E9661
:105AFC0005911591B02FB12B39F0F1013E9605911E
:105B0C001591F801099525C0F10172960591159131
:105B1C000883198308C04CDB1CC0DBDA1AC0D9DA45
:105B2C0018C01CDC16C018812981E12FF22F0491BA
:105B3C00013089F3E12FF22F0491023071F3E12F40
:105B4C00F22F0491033059F3E12FF22F049104301A
:0E5B5C0041F32196CDBFDEBFDF91CF910895BA
:1051BC00B2E03B1611F4BBEB2B1639F0B0E03B160A
:1051CC0011F4B0E02B1609F001C0C7C000915E02CB
:1051DC0010915F02B02FB12B31F0E0915E02F09193
:1051EC005F020995BAC0F1017296059115911430C0
:1051FC0009F40A3649F0F1017296059115911030B7
:10520C0009F4003009F001C0A8C0F10172960591B3
:10521C001591F801319605911591103009F4003073
:10522C0009F49BC0F101729605911591F801339622
:10523C0004910830C0F4F101729605911591F801B2
:10524C00319625913591F80133960491B02F11E0E8
:10525C00BB2319F0110FBA95E9F7F9010081012769
:10526C00F90100837AC0F101729605911591F8014C
:10527C00339604910031E8F4F10172960591159181
:10528C00F801319645915591F80133960491B02F60
:10529C0021E030E0BB2321F0220F331FBA95E1F758
:1052AC00FA010191119102271327FA01019311932D
:1052BC0054C0F101729605911591F8013396049141
:1052CC00003230F5F101729605911591F801319685
:1052DC0065917591F80133960491B02F41E050E03F
:1052EC00BB2321F0440F551FBA95E1F7FB01019147
:1052FC0011912191319104271527B0E057FDBFEF93
:10530C002B273B27FB01019311932193319325C04C
:10531C00F101729605911591F8013196659175918F
:10532C00F80133960491B02F41E050E0BB2321F0FB
:10533C00440F551FBA95E1F7FB0101911191219191
:10534C00319104271527B0E057FDBFEF2B273B27E2
:0C535C00FB0101931193219331930895FC
:1050DE00CF93DF93CDB7DEB72297CDBFDEBF21963C
:1050EE00B2E03B1611F4BBEB2B1639F0B0E03B16D9
:1050FE0011F4B0E02B1609F001C053C000911E024E
:10510E0010911F02B02FB12B31F0E0911E02F091E1
:10511E001F02099546C0F101729605911591143042
:10512E0009F40A3649F0F101729605911591103085
:10513E0009F4003009F001C034C0F10172960591F6
:10514E001591F801319605911591103009F4003042
:10515E0009F427C0F1017296059115910D5F1F4F4D
:10516E000883198308C015DE1CC070DD1AC0B2DEBC
:10517E0018C0A7DC16C018812981E12FF22F0491E7
:10518E00013089F3E12FF22F0491023071F3E12FF8
:10519E00F22F0491043059F3E12FF22F04910830CD
:0E51AE0041F32196CDBFDEBFDF91CF91089572
:104DA000F101729605911591F801349605911591CE
:104DB000143009F40A3469F0F101729605911591E5
:104DC000F801349605911591103009F4003009F07E
:104DD00010C0F101729605911591F8013196159167
:104DE0002591E12FF22F0081040DE12FF22F008396
:104DF00077C0F101729625913591F90131960591AF
:104E00001591F8010081802F90E007FD9FEF840D40
:104E1000951DF901349605911591F801459155912B
:104E2000659175918C0120E097FD2FEF322F0417CB
:104E30001507260737078CF4F10172960591159135
:104E4000F801319625913591F80134960591159127
:104E5000F8010491F901008343C0F1017296259194
:104E60003591F901319605911591F8010081402F96
:104E700050E007FD5FEF440D551DF9013496059193
:104E80001591F801349605911591259135910417E6
:104E90001507B0E057FDBFEF2B073B0794F4F10176
:104EA000729605911591F801319625913591F80189
:104EB000349605911591F80134960491F901008317
:104EC0000FC0F101729605911591F8013196159177
:104ED0002591E12FF22F0081040DE12FF22F0083A5
:024EE000089533
:104C5A00F101729605911591F80134960591159115
:104C6A00143009F40A3469F0F1017296059115912C
:104C7A00F801349605911591103009F4003009F0C5
:104C8A0011C0F101729605911591F801319625919D
:104C9A003591F90101911191040D151DF901019345
:104CAA00119378C0F101729625913591F9013196E7
:104CBA0005911591F80101911191C201800F911F7F
:104CCA00F901349605911591F8014591559165912F
:104CDA0075918C0120E097FD2FEF322F04171507ED
:104CEA00260737079CF4F101729605911591F80190
:104CFA00319625913591F801349605911591F8016F
:104D0A0005911591F9010193119344C0F10172962D
:104D1A0025913591F901319605911591F801019185
:104D2A001191A201400F511FF90134960591159175
:104D3A00F8013496059115912591359104171507B7
:104D4A00B0E057FDBFEF2B073B07A4F4F1017296C1
:104D5A0005911591F801319625913591F80134960E
:104D6A0005911591F801349605911591F901019370
:104D7A00119310C0F101729605911591F8013196BF
:104D8A0025913591F90101911191040D151DF90132
:064D9A000193119308953E
:104EE200F101729605911591F8013496059115918B
:104EF200143009F40A3469F0F101729605911591A2
:104F0200F801349605911591103009F4003009F03A
:104F12001AC0F101729605911591F80131964591E9
:104F22005591FA010191119121913191040D151DB3
:104F3200B0E057FCBFEF2B1F3B1FFA010193119307
:104F42002193319391C0F101729685919591FC0163
:104F5200319605911591F8010191119121913191AB
:104F6200A20160E057FC6FEF762F400F511F621FC6
:104F7200731FFC01349605911591F8010591159165
:104F8200259135914017510762077307BCF4F1016F
:104F9200729605911591F801319645915591F80156
:104FA200349605911591F801059115912591359148
:104FB200FA01019311932193319356C0F101729634
:104FC20085919591FC01319605911591F801019118
:104FD200119121913191A20160E057FC6FEF762F80
:104FE200400F511F621F731FFC01349605911591EA
:104FF200F8013496059115912591359104171507FD
:1050020026073707C4F4F101729605911591F8014C
:10501200319645915591F801349605911591F80113
:1050220034960591159125913591FA0101931193C9
:105032002193319319C0F101729605911591F801EE
:10504200319645915591FA01019111912191319138
:10505200040D151DB0E057FCBFEF2B1F3B1FFA01DB
:0A50620001931193219331930895F7
:104AD000F101729605911591F801349605911591A1
:104AE000143009F40A3469F0F101729605911591B8
:104AF000F801349605911591103009F4003009F051
:104B00001AC0F101729605911591F80131964591FF
:104B10005591FA010191119121913191040D151DC9
:104B2000B0E057FCBFEF2B1F3B1FFA01019311931D
:104B30002193319391C0F101729685919591FC0179
:104B4000319605911591F8010191119121913191C1
:104B5000A20160E057FC6FEF762F400F511F621FDC
:104B6000731FFC01349605911591F801059115917B
:104B7000259135914017510762077307BCF4F10185
:104B8000729605911591F801319645915591F8016C
:104B9000349605911591F80105911591259135915E
:104BA000FA01019311932193319356C0F10172964A
:104BB00085919591FC01319605911591F80101912E
:104BC000119121913191A20160E057FC6FEF762F96
:104BD000400F511F621F731FFC0134960591159100
:104BE000F801349605911591259135910417150713
:104BF00026073707C4F4F101729605911591F80163
:104C0000319645915591F801349605911591F80129
:104C100034960591159125913591FA0101931193DF
:104C20002193319319C0F101729605911591F80104
:104C3000319645915591FA0101911191219131914E
:104C4000040D151DB0E057FCBFEF2B1F3B1FFA01F1
:0A4C5000019311932193319308950D
:10536800CF93DF93CDB7DEB72897CDBFDEBF2196A9
:10537800B2E03B1611F4BBEB2B1639F0B0E03B164C
:1053880011F4B0E02B1609F001C092C000911C0284
:1053980010911D02B02FB12B31F0E0911C02F09159
:1053A8001D02099585C0F101729605911591143079
:1053B80009F40A3649F0F1017296059115911030F9
:1053C80009F4003009F001C073C0F101729605912B
:1053D8001591F801319605911591103009F40030B6
:1053E80009F466C0F1017296059115910D5F1F4F82
:1053F8000E831F8350C0F101729605911591F80133
:105408003196459155918A010C831D83FA010191CA
:10541800119121913191088319832A833B83820159
:1054280020E057FC2FEF322F4BDB488159816A81EE
:105438007B810E94F9034C815D81FA0101931193EC
:105448002193319335C0F101729605911591F801B8
:105458003196459155918A010C831D83FA0101917A
:10546800119121913191088319832A833B83820109
:1054780020E057FC2FEF322F23DB488159816A81C6
:105488007B810E94F9034C815D81FA01019311939C
:10549800219331930DC01E812F81E12FF22F0491AA
:1054A800043009F4A8CFE12FF22F0491083059F203
:0C54B8002796CDBFDEBFDF91CF91089595
:084AC800E8940E947D030895AB
:10565600CF93DF93CDB7DEB72297CDBFDEBF2196BE
:10566600B2E03B1611F4BBEB2B1639F0B0E03B165B
:1056760011F4B0E02B1609F001C071C0F1013C969F
:1056860005911591B02FB12B39F0F1013C9605919A
:105696001591F801099563C0F1017296059115916E
:1056A600143009F40A3649F0F10172960591159104
:1056B600103009F4003009F001C051C0F1017296B2
:1056C600059115910883198334C000910802109141
:1056D6000902B02FB12B29F0E0910802F0910902DE
:1056E60009953DC00091020210910302B02FB12B23
:1056F60029F0E0910202F0910302099530C0009171
:10570600000210910102B02FB12B29F0E0910002A6
:10571600F0910102099523C000910602109107023B
:10572600B02FB12B29F0E0910602F09107020995FE
:1057360016C018812981E12FF22F0491013029F238
:10574600E12FF22F0491023069F2E12FF22F04913A
:105756000330A9F2E12FF22F04910430E9F22196E9
:0A576600CDBFDEBFDF91CF910895A3
:0A564C0005900D920197E1F7089513
:105CEC00A0E0B2E0E4EEF0E08BE690E00E94262B20
:025CFC00089509
:10031F00CF02E302BB02F702000000000000000062
:04032F00CF036A048A
:1002CF00E3021F03BB023303000000000000000025
:0402DF008B036A041F
:1003BE004D656E7520312020202020202020202009
:0103CE00002E
:1002E3001F03CF02BB02BB02C323D52300000000C0
:0402F300BE036A04D8
:1002F700BB02BB021F03BB02000000001D2500005C
:04030700AD036A04D4
:1003CF004D656E75203220202020202020202020F7
:0103DF00001D
:1003AD004D656E7520322E312020202020202020FA
:0103BD00003F
:100333000B03A702CF02BB02000000000000000075
:040343009C035E04B5
:10038B004D656E752033202020202020202020203A
:01039B000061
