:100000000C94BE1A0C9400000C9400000C94000098
:100010000C9400000C9400000C9400000C94000060
:100020000C9400000C9400000C9400000C94000050
:100030000C9400000C9400000C9400000C94000040
:100040000C9400000C9400000C9400000C94000030
:100050000C9400000C9400000C9400000C94000020
:100060000C9400000C9400000C9400000C94000010
:100070000C9400000C9400000C9400000C94000000
:100080000C9400000C9400000C9400000C940000F0
:100090000C9400000C9400000C9400000C940000E0
:1000A0000C9400000C9400000C9400000C940000D0
:1000B0000C9400000C9400000C9400000C940000C0
:1000C0000C9400000C9400000C9400000C940000B0
:1000D0000C9400000C9400000C9400000C940000A0
:0400E0000C9400007C
:10357C00BFEFBDBFB1E2BEBF0E944A1BCDB7DEB7E5
:10358C002197CDBFDEBF21962F923F924F925F9233
:10359C00BDB1B062BDB9BEB1BF7DBEB9BFEFB7B9E9
:1035AC00B0E0B8B9B0E0B4B9B5B7BF7EB5BFBFEF46
:1035BC00B5B974DDBCE02B2E88DEB1E02B2E85DE98
:1035CC00BDEE2B2EB3E13B2E5BDDB7E22B2EB4E12F
:1035DC003B2E3ADDB3EC2B2EB2E13B2E43DDB9EDA5
:1035EC002B2EB1E13B2E57DFB8E32B2EB2E03B2E56
:1035FC0019DA5FDF088333C049DFF8013296059191
:10360C00159118010FDA3AC041DFF80105911591B7
:10361C00180108DA33C03ADFF80136960591159196
:10362C00180100DAB4DE2AC031DFF80134960591B6
:10363C0015911801F7D922C029DFB1E04B2EB0E06B
:10364C005B2E1801D4DE1AC021DFBFEF4B2E5B2E90
:10365C001801CDDE13C01ADF180164DC0FC008811D
:10366C00023009F4C9CF033079F20630A1F20130EF
:10367C00D9F2043009F3053039F3EDCFBACF5F90AE
:08368C004F903F902F90FFCFFB
:1030A800B0912B00B77FB0932B00B0912B00BB7F62
:1030B800B0932B00B0912B00BF7EB0932B00B09142
:1030C8002B00BF7DB0932B00B0912B00BF7BB0933A
:1030D8002B00B0912B00BF77B0932B00B0912A0042
:1030E800B860B0932A00B0912A00B460B0932A0067
:1030F800B0912A00B068B0932A00B0912A00B06459
:10310800B0932A00B0912A00B062B0932A00B0911F
:103118002A00B061B0932A0081DD80DD7FDDB091A7
:103128002B00B064B0932B00B0912B00B068B09323
:103138002B00B0912B00B860B0932B0069DCB091E4
:103148002B00B77FB0932B0069DDB0912B00B860DE
:10315800B0932B005DDCB0912B00B77FB0932B00B0
:103168005DDDB0912B00B860B0932B0051DCB091BD
:103178002B00B77FB0932B0051DDB0912B00BF77A8
:10318800B0932B00B0912B00B860B0932B0040DCBB
:10319800B0912B00B77FB0932B0040DDB0912B008E
:1031A800B860B0932B0034DCB0912B00B77FB0939C
:1031B8002B00B0912B00BF7BB0932B00B0912B005C
:1031C800B061B0932B00B0912B00B860B0932B0086
:1031D8001FDCB0912B00B77FB0932B001FDDB0919F
:1031E8002B00BF7EB0932B00B0912B00B068B0933A
:1031F8002B00B0912B00B860B0932B0009DCB09184
:103208002B00B77FB0932B00B0912B00BF77B09302
:103218002B00B0912B00B860B0932B00F9DBB09174
:103228002B00B77FB0932B00F9DCB0912B00B8606E
:10323800B0932B00EDDBB0912B00B77FB0932B0040
:10324800B0912B00B068B0932B00B0912B00B86000
:10325800B0932B00DDDBB0912B00B77FB0932B0030
:10326800DDDCB0912B00BF77B0932B00B0912B0021
:10327800B860B0932B00CCDBB0912B00B77FB09334
:103288002B00B0912B00B061B0932B00B0912B00B4
:10329800B062B0932B00B0912B00B064B0932B00B8
:1032A800B0912B00B068B0932B00B0912B00B860A0
:1032B800B0932B00ADDBB0912B00B77FB0932B0000
:0E32C800ADDCB0916402B160B0936402089571
:102C240013E708E40A95F1F71A95E1F7000008950F
:002C3400A0
:0A2A180005E00A95F1F700000895AB
:1032D60027FAB0912B00B4F9B0932B0026FAB091DF
:1032E6002B00B5F9B0932B0025FAB0912B00B6F957
:1032F600B0932B0024FAB0912B00B7F9B0932B00B2
:10330600B091640200902B00E894B0FF689402F834
:1033160000922B00B0912B00B860B0932B0079DBA4
:10332600B0912B00B77FB0932B0023FAB0912B00FE
:10333600B4F9B0932B0022FAB0912B00B5F9B093F3
:103346002B0021FAB0912B00B6F9B0932B0020FA8E
:10335600B0912B00B7F9B0932B00B09164020090A6
:103366002B00E894B0FF689402F800922B00B0910D
:103376002B00B860B0932B004CDBB0912B00B77FCD
:10338600B0932B00B0916402B0FF02C048DC01C0CC
:0433960045DB089576
:0E2A220012E009E00A95F1F71A95E1F7089520
:10308C002F923F9220925C0230925D0220901C02A3
:0C309C0030901D02C7DC3F902F9008957B
:102A30002F923F92B1E03B1611F4B0EC2B1639F017
:102A4000B0E03B1611F4B0E02B1609F001C03BC01A
:102A500020921C0230921D0200915C0210915D02D6
:102A6000B02FB12B71F000911C0210911D02F801E2
:102A70007096059115911801E0915C02F0915D024C
:102A800009950091600210916102B02FB12B49F0BD
:102A900020901C0230901D02E0916002F0916102D2
:102AA000099500911C0210911D02F80138960591BC
:102AB00015919801B02FB12B31F03F932F93F9016D
:0C2AC00009952F913F913F902F900895B1
:1027DA002F923F924F925F92B22DB32951F0F1019D
:1027EA000491002331F02101B1E03B2EB1E02B2E00
:0C27FA0095DA5F904F903F902F9008956B
:101D2600F20104910023D9F0F20104915F924F92DF
:101D3600402ED4DE4F905F9082010F5F1F4F280127
:101D4600F2010491002359F0F20104912F92202E02
:101D56005DDF2F9082010F5F1F4F2801F1CF08959D
:001D66007D
:101AE2002F920FC0B0E82B2E19C0B0EC2B2E16C0CF
:101AF200B4E92B2E13C0B4ED2B2E10C0B0E82B2E60
:101B02000DC0B1E02B1671F3B2E02B1671F3B3E006
:101B12002B1671F3B4E02B1671F3F0CF032D0150A5
:101B2200020D202EB0916402B160B0936402202EA7
:101B32000E946B19B0916402BE7FB0936402242CA0
:101B42000E946B19B0916402B160B09364022F904D
:021B52000895F4
:101C1200B0916402BE7FB09364020E946B19B091CE
:0A1C22006402B160B09364020895FB
:10274C00CF93DF93CDB7DEB76197CDBFDEBF2196B8
:10275C002F923F924F925F9200EC11E020163106BF
:10276C0039F0B0E03B1611F4B0E02B1609F001C0C3
:10277C0024C09E0100916202109163021F930F937B
:10278C00B3E0BF93BFE4BF933F932F93E9DAADB7A8
:10279C00BEB71696ADBFBEBF8E012801B9E03B2E69
:1027AC00B1E02B2E72DA009162021091630201509B
:1027BC00104000936202109363025F904F903F9021
:0E27CC002F906096CDBFDEBFDF91CF910895B4
:101D6C00CF93DF93CDB7DEB72297CDBFDEBF2196E1
:101D7C002F923F924F925F926F927F922F81388574
:101D8C00FE018E01075F1F4F0E5F1F4F01931193D2
:101D9C008E013F932F93380149845A8419010E9474
:101DAC003D022F913F91A801F801E20FF31FB0E023
:101DBC00B0838A017F906F905F904F903F902F90EF
:0C1DCC002196CDBFDEBFDF91CF910895BE
:10047A00CF93DF93CDB7DEB72A97CDBFDEBF2196E4
:10048A0040E050E0F20182010F5F1F4F2801049102
:10049A000C83002309F43FC50C81053261F00C81FD
:1004AA00F101008381010F5F1F4F18018A010F5F5D
:1004BA001F4FA801E7CF20E030E000E010E0B801CC
:1004CA0028C08B010860B80182010F5F1F4F280105
:1004DA0035C08B010160B80182010F5F1F4F2801EF
:1004EA002DC08B010260B80182010F5F1F4F2801E6
:1004FA0025C08B011860B80182010F5F1F4F2801C8
:10050A001DC08B010460B80182010F5F1F4F2801D3
:10051A0015C0F20104910D32A1F2F20104910032E8
:10052A00C1F2F20104910B32E1F2F20104910332B9
:10053A0001F3F2010491003321F301C0C1CF61FF3D
:10054A0006C08B010E7FB801872F762F02C0872F36
:10055A00762F73FF06C0072F182F0B7F702F812F5E
:10056A0000C0F201049110E03F922F92202E27DF63
:10057A002F903F90002321F120E030E0942FA52F07
:10058A0002C0252F362F89014AE050E010DFF20120
:10059A002491020FB0E01B1F00531040502F612F0F
:1005AA0082010F5F1F4F2801F801049110E03F926A
:1005BA002F92202E04DF2F903F90002311F71EC0A8
:1005CA00F20104910A32A9F4F30121913191F9015E
:1005DA0001911191902FA12F89010E5F1F4FF301F5
:1005EA000193119382010F5F1F4F2801092F1A2FC0
:1005FA0001C08901942FA52F502F612FF201049178
:10060A000E3209F04FC082010F5F1F4F2801F80117
:10061A0004910A32B9F4F30121913191F90101915E
:10062A001191480189010E5F1F4FF3010193119344
:10063A0082010F5F1F4F28019401872E982E792F70
:10064A008A2F2FC088249924392F4A2FF201049126
:10065A0010E03F922F92202EB2DE2F903F9000237F
:10066A00C9F06F935F934F933F9384014AE050E040
:10067A009EDE3F914F915F916F91F2012491020F9B
:10068A00B0E01B1F00531040480182010F5F1F4F4B
:10069A002801DCCF8F937F93732F842F94018F903F
:1006AA009F9006C020E030E0872E982E792F8A2F5F
:1006BA00F20182010F5F1F4F280104910C83EDC0E4
:1006CA00072F182F29C4BCE4BD83B2E0BE832FC014
:1006DA00B5E2BD83B2E0BE8320E030E028C08401E9
:1006EA000064902FA12F490119C1982DA92D490104
:1006FA0015C184010062902FA12F02C0982DA92D47
:10070A00092F1A2F0068902FA12F490107C1F30161
:10071A0001911191F801019111910D831E83F30149
:10072A00019111910E5F1F4FF301019311930D81F6
:10073A001E81103009F4003021F4B0E2BD83B2E02A
:10074A00BE83B0E0BF83B887672F782FC401852E98
:10075A00962EA9012D813E810F811885F801E20F9D
:10076A00F31F0081002339F00F8118850F5F1F4F97
:10077A000F831887EFCF9A01AC01982DA92DB22FBC
:10078A00B32B39F00F8118852017310710F42F8306
:10079A0038870F81188509171A0740F40F801884C3
:1007AA00092F1A2F00191109C80103C000E010E02F
:1007BA00C80143FD15C09C018C0101501040C801BD
:1007CA00B22FB32B61F0F101B0E2B08381010F5F68
:1007DA001F4F18018B010F5F1F4FB801ECCF00C0EC
:1007EA002F8138850F811885015010400F83188793
:1007FA00B22FB32BA1F0ED81FE810081F1010083BC
:10080A0081010F5F1F4F18010D811E810F5F1F4F5E
:10081A000D831E838B010F5F1F4FB801E1CF43FF8A
:10082A0017C0AC019A018A0101501040A801B22FE9
:10083A00B32B61F0F101B0E2B08381010F5F1F4F6A
:10084A0018018B010F5F1F4FB801ECCFAB0101C03C
:10085A00AB0118CEF30101911191F80100810C83CB
:10086A00F301019111910E5F1F4FF301019311934F
:10087A008E010C5F1F4F0D831E83B1E0BF83B0E072
:10088A00B887952FA62F672F782FA40178CF8401D8
:10089A00006C902FA12F490141C00C81003009F44E
:1008AA000FCF0C810C3609F40ECF0C810C3409F4ED
:1008BA000ACF0C81053409F40BCF0C81063609F4F2
:1008CA0007CF0C81053609F403CF0C81073609F4EA
:1008DA00FFCE0C810F3609F402CF0C81043609F4DD
:1008EA0004CF0C81093609F400CF0C81003709F4D2
:1008FA0000CF0C81083509F4FCCE0C81083709F4C5
:10090A00FDCE0C81033709F402CF0C81033609F4BA
:10091A00A1CF0C81053709F4BACFAACF092F1A2F14
:10092A00007C1070103009F4003039F5F3010191A0
:10093A001191F801019111910D831E83F301019127
:10094A0011910E5F1F4FF301019311932D813E8187
:10095A0000E010E0201731076CF4092F1A2F03600A
:10096A0098010D801E8000E010E0001911090D8326
:10097A001E8302C0292F3A2F12C0F301019111914F
:10098A00F801019111910D831E83F30101911191D7
:10099A000E5F1F4FF30101931193292F3A2FB0E0F5
:1009AA009B1611F4B0E08B1671F40D811E81103084
:1009BA0009F4003049F484010F5F1F4F902FA12FD3
:1009CA00892E9A2E00C000C0022F007C402F7EC0C4
:1009DA00B1E0BC839F928F92852E962E972FA82FD7
:1009EA00722F832F5F916F910C810530B1F00C81CA
:1009FA00202F30E0220F331F07E213E0F901E00F46
:100A0A00F11F259135910D811E810217130708F4F4
:100A1A0004C00C810F5F0C83E7CF452F562F692F37
:100A2A00982D272F382F7A2FA92D60C0B1E0BC83CB
:100A3A00982DA92D49010C810430B1F00C81202F89
:100A4A0030E0220F331F01E313E0F901E00FF11F39
:100A5A00259135910D811E810217130708F404C0F0
:100A6A000C810F5F0C83E7CF6F935F93492F5A2F47
:100A7A009401672F782F9F91AF9138C0B1E0BC8362
:100A8A00982DA92D49010C810630B1F00C81202F37
:100A9A0030E0220F331F0BE113E0F901E00FF11FE1
:100AAA00259135910D811E810217130708F404C0A0
:100ABA000C810F5F0C83E7CF6F935F93492F5A2FF7
:100ACA009401672F782F9F91AF9110C0403009F49D
:100ADA007FCF403C09F47CCF403809F4A7CF40349B
:100AEA0069F2952FA62FA401672F782F0C8110E0A9
:100AFA000417150714F44C8309C00C814017B0E0A1
:100B0A005B0724F40C8110E0A80100C0B92FBA2BAE
:100B1A0061F0890103701070B02FB12B49F0092FD1
:100B2A001A2F01501040C80102C0892F9A2F02C003
:100B3A00892F9A2F481759072CF48C01041B150B7F
:100B4A00C80102C080E090E08901047C1870183066
:100B5A0009F4003449F4B82FB92B29F08C0101505B
:100B6A001040C80100C014C08901007C18701830F8
:100B7A0009F4003869F402E010E00817190724F4B0
:100B8A008C010250104002C000E010E0C80100C011
:100B9A0022FF6CC021FF12C020FF03C0BDE2B88350
:100BAA0002C0BBE2B8830881F101008381010F5FB3
:100BBA001F4F18018B010F5F1F4F34C020FF0BC05E
:100BCA00F101B0E2B08381010F5F1F4F18018B0161
:100BDA000F5F1F4F27C08901007C1870183009F475
:100BEA000038F9F4F101B0E3B08381010F5F1F4FC0
:100BFA0018018B010F5F1F4FB80125FF03C0B8E52D
:100C0A00B98302C0B8E7B9830981F1010083810180
:100C1A000F5F1F4F18018B010F5F1F4FB8018B0128
:100C2A0001C08B01B82FB92BE1F0B9014A01580173
:100C3A0001C0C601F101B0E3B08381010F5F1F4F0C
:100C4A00180185010F5F1F4F58018C010150104098
:100C5A006801B02FB12B69F79B01A401C601850178
:100C6A0000C04C01C9019A01B8017FC0B82FB92B45
:100C7A00C9F023FD1AC001C0C401F101B0E2B0837A
:100C8A0081010F5F1F4F18018B010F5F1F4FB801C2
:100C9A008C01015010404801B02FB12B69F78B012C
:100CAA00C40101C08B01B80100C021FF13C020FF9D
:100CBA0003C0BDE2BA8302C0BBE2BA830A81F10172
:100CCA00008381010F5F1F4F18018B010F5F1F4FB8
:100CDA00B8010EC020FF0CC0F101B0E2B08381015F
:100CEA000F5F1F4F18018B010F5F1F4FB80100C024
:100CFA008901007C1870183009F4003459F4F101A4
:100D0A00B0E3B08381010F5F1F4F18018B010F5FA2
:100D1A001F4F27C08901007C1870183009F4003869
:100D2A00F9F4F101B0E3B08381010F5F1F4F18019D
:100D3A008B010F5F1F4FB80125FF03C0B8E5BB83C6
:100D4A0002C0B8E7BB830B81F101008381010F5F09
:100D5A001F4F18018B010F5F1F4FB8018B0101C094
:100D6A008B014C01C9019A01B8010C8110E00217EC
:100D7A00130764F4F101B0E3B08381010F5F1F4FE1
:100D8A0018018B010F5F1F4FB801EFCFA9019A011C
:100D9A008A01015010405801B22FB32B09F498C0B0
:100DAA00082F007C09877BC09501220F331F07E2B9
:100DBA0013E0F901E00FF11F459155919F938F932D
:100DCA007F936F930D811E8104DB8C014AE050E012
:100DDA0000DB8D016F917F918F919F91005D0C8354
:100DEA006AC085FF21C09501220F331F01E313E07A
:100DFA00F901E00FF11F459155919F938F937F93CE
:100E0A006F930D811E81E5DA8C016F917F918F912D
:100E1A009F9198012F70307003E912E0F901E00FF9
:100E2A00F11F04910C8320C09501220F331F01E3A7
:100E3A0013E0F901E00FF11F459155919F938F93AC
:100E4A007F936F930D811E81C4DA8C016F917F911C
:100E5A008F919F9198012F70307002E812E0F9018A
:100E6A00E00FF11F04910C8326C09501220F331F56
:100E7A000BE113E0F901E00FF11F459155919F93A2
:100E8A008F937F936F930D811E81A3DA8C016F91EB
:100E9A007F918F919F910770005D0C830CC009852B
:100EAA00003009F481CF003C09F47ECF003809F400
:100EBA0098CF0034D1F20C81F101008381010F5FD8
:100ECA001F4F18018B010F5F1F4FB801A5015FCF9C
:100EDA0083FF1CC000E010E008151905D4F4AB012B
:100EEA00940100C0F101B0E2B08381010F5F1F4F8E
:100EFA0018018A010F5F1F4FA80189010150104094
:100F0A009801B02FB12B71F78A0101C08B01A8019A
:100F1A0001C0AB01B7CA8A012996CDBFDEBFDF91F6
:040F2A00CF910895C6
:1003C80009E3021528F0B0E32B1610F001E001C094
:0403D80000E00895A4
:1003B8009801249F8001259F100D349F100D0895EA
:0003C80035
:1003DC00C801BA01AA1BBB1B51E107C0AA1FBB1F56
:1003EC00A617B70710F0A61BB70B881F991F5A95B5
:0803FC00A9F780959095089582
:101C96002F920FC0B0E82B2E19C0B0EC2B2E16C019
:101CA600B4E92B2E13C0B4ED2B2E10C0B0E82B2EAA
:101CB6000DC0B1E02B1671F3B2E02B1671F3B3E051
:101CC6002B1671F3B4E02B1671F3F0CF032D0150F0
:101CD600020D202E202E0E946B19B0916402BE7F49
:101CE600B093640210E0E12FF0E0E40DF51D0081F1
:101CF600002379F0E12FF0E0E40DF51D00811F933C
:101D06002F92202E83DF2F901F91012F0F5F102F10
:101D1600EACFB0916402B160B09364022F90089547
:001D2600BD
:10284E00CF93DF93CDB7DEB76297CDBFDEBF2196B4
:10285E002F923F924F925F9200EC11E020163106BC
:10286E0039F0B0E03B1611F4B0E02B1609F001C0C0
:10287E00C2C0F1017296259135910BE513E0201738
:10288E00310749F0F101729605911591103009F456
:10289E00003009F001C0AFC0F1017296059115919B
:1028AE00F801319605911591103009F4003009F4B4
:1028BE00A2C0F1017296059115910D5F1F4F088B05
:1028CE00198B78C0F101729605911591F801319628
:1028DE0005911591F8010081202F30E007FD3FEFA3
:1028EE008E013F932F93B3E0BF93B5E8BF931F9331
:1028FE000F9335DAADB7BEB71696ADBFBEBF74C077
:10290E00F101729605911591F80131960591159187
:10291E00F801219131918E013F932F93B3E0BF9334
:10292E00B1E8BF931F930F931ADAADB7BEB71696E1
:10293E00ADBFBEBF59C0F101729605911591F80158
:10294E00319605911591F801219131914191519155
:10295E008E015F934F933F932F93B3E0BF93B3E7F3
:10296E00BF931F930F935BD9ADB7BEB71896ADBF8C
:10297E00BEBF3AC0F101729605911591F8013196DC
:10298E0005911591F80121913191419151918E014D
:10299E005F934F933F932F93B3E0BF93B5E5BF93F0
:1029AE001F930F933CD9ADB7BEB71896ADBFBEBF40
:1029BE001BC01AC018892989E12FF22F049101300A
:1029CE0009F480CFE12FF22F0491023009F498CF51
:1029DE00E12FF22F0491043009F4ADCFE12FF22F45
:1029EE000491083039F2E5CF8E012801BDE03B2E6F
:1029FE00B1E02B2E49D95F904F903F902F9061966A
:0A2A0E00CDBFDEBFDF91CF91089528
:101C2C00CF93DF93CDB7DEB72297CDBFDEBF219622
:101C3C002F923F924F925F926F927F922F813885B5
:101C4C00FE018E01075F1F4F0E5F1F4F0193119313
:101C5C008E013F932F93380149845A84190198D9E6
:101C6C002F913F91A801F801E20FF31FB0E0B08370
:101C7C008A017F906F905F904F903F902F902196AC
:0A1C8C00CDBFDEBFDF91CF910895B8
:100F9C00CF93DF93CDB7DEB72A97CDBFDEBF2196B7
:100FAC0040E050E0F20182010F5F1F4F28010491D5
:100FBC000C83002309F488C50C81053261F00C8187
:100FCC00F101008381010F5F1F4F18018A010F5F30
:100FDC001F4FA801E7CF20E030E000E010E0B8019F
:100FEC0028C08B010860B80182010F5F1F4F2801D8
:100FFC0035C08B010160B80182010F5F1F4F2801C2
:10100C002DC08B010260B80182010F5F1F4F2801B8
:10101C0025C08B011860B80182010F5F1F4F28019A
:10102C001DC08B010460B80182010F5F1F4F2801A6
:10103C0015C0F20104910D32A1F2F20104910032BB
:10104C00C1F2F20104910B32E1F2F201049103328C
:10105C0001F3F2010491003321F301C0C1CF61FF10
:10106C0004C08B010E7FB80100C063FF04C08B016C
:10107C000B7FB80100C0F201049110E03F922F9257
:10108C00202E9CD92F903F90002309F120E030E0D6
:10109C00CA0101C09A0189014AE050E087D9F201E6
:1010AC002491020FB0E01B1F00531040A8018201D5
:1010BC000F5F1F4F2801F801049110E03F922F920F
:1010CC00202E7CD92F903F90002321F71AC0F201DB
:1010DC0004910A3299F4F30121913191F9010191B2
:1010EC001191C80189010E5F1F4FF30101931193F8
:1010FC0082010F5F1F4F28018C0101C08901CA01B9
:10110C00A801F20104910E3209F04CC082010F5F6C
:10111C001F4F2801F80104910A32B1F4F301219117
:10112C003191F90101911191480189010E5F1F4F15
:10113C00F3010193119382010F5F1F4F28019B0153
:10114C00B4018A01AC0129C020E030E0F201049125
:10115C0010E03F922F92202E31D92F903F900023F8
:10116C00A9F05F934F9389014AE050E01FD94F914A
:10117C005F91F2012491020FB0E01B1F005310404D
:10118C00980182010F5F1F4F2801E0CF7F936F936F
:10119C00B9018A01AC012F913F91902FA12F4A01E7
:1011AC005B0107C000E010E04C01942FA52F9B01C0
:1011BC005801F20182010F5F1F4F280104910C832B
:1011CC00E6C0840182C4890100619801F2CFBBE3BF
:1011DC00BD83B2E0BE8340E050E01FC089010064D3
:1011EC00680116C1690114C189010062980100C02F
:1011FC008901006868010CC1F30101911191F8019A
:10120C00019111910D831E83F301019111910E5FD8
:10121C001F4FF30101931193A5010D811E81103015
:10122C0009F4003021F4B6E3BD83B2E0BE83B0E034
:10123C00BF83B887B401892E9A2EC9012D813E81B6
:10124C000F811885F801E20FF31F0081002339F09C
:10125C000F8118850F5F1F4F0F831887EFCF9C01ED
:10126C00CA01AB01B401B82FB92B39F00F81188525
:10127C008017910710F48F8398870F8118850617B4
:10128C00170738F40F8018848B0100191109B80165
:10129C0003C000E010E0B80123FD1CC0C9019B0194
:1012AC008B0101501040B801B22FB32B61F0F1014A
:1012BC00B0E2B08381010F5F1F4F18018A010F5FED
:1012CC001F4FA801ECCF7F936F93BA01AC018F91A4
:1012DC009F9103C0CB01BA01A9012F8138850F81E1
:1012EC001885015010400F831887B22FB32BA1F033
:1012FC00ED81FE810081F101008381010F5F1F4FA1
:10130C0018010D811E810F5F1F4F0D831E838B01F2
:10131C000F5F1F4FB801E1CF43FF17C0AC019A011B
:10132C008A0101501040A801B22FB32B61F0F101DA
:10133C00B0E2B08381010F5F1F4F18018B010F5F6B
:10134C001F4FB801ECCFAB0101C0AB012BCEF301A9
:10135C0001911191F80100810C83F301019111911C
:10136C000E5F1F4FF301019311938E010C5F1F4F02
:10137C000D831E83B1E0BF83B0E0B887692F7A2F4D
:10138C00C501A40170CF8901006C680141C00C81BA
:10139C00003009F416CF0C810C3609F414CF0C81F3
:1013AC000C3409F410CF0C81053409F410CF0C81E6
:1013BC00063609F40CCF0C81053609F408CF0C81E4
:1013CC00073609F404CF0C810F3609F407CF0C81D2
:1013DC00043609F407CF0C81093609F403CF0C81CC
:1013EC00003709F401CF0C81083509F4FDCE0C81CE
:1013FC00083709F4FDCE0C81033709F4FDCE0C81BE
:10140C00033609F4A4CF0C81053709F4BCCFADCF5A
:10141C008601007C1070103009F4003009F051C0C6
:10142C00C4FA0EF015C0F30101911191F80101916C
:10143C001191219131910D831E832F833887F301F4
:10144C00019111910C5F1F4FF3010193119316C081
:10145C00F30101911191F8010191119120E017FD17
:10146C002FEF322F0D831E832F833887F3010191C9
:10147C0011910E5F1F4FF301019311934D815E810A
:10148C006F81788500E010E020E030E040175107D4
:10149C0062077307A4F486010360A8010D801E8007
:1014AC0000E010E0001911090F80188420E030E0F2
:1014BC00200931090D831E832F83388701C0A601B3
:1014CC002CC0C4FA0EF015C0F30101911191F80172
:1014DC0001911191219131910D831E832F833887B6
:1014EC00F301019111910C5F1F4FF30101931193C3
:1014FC0013C0F30101911191F801019111910D8328
:10150C001E83B0E0BF83B887F301019111910E5F88
:10151C001F4FF30101931193A601B0E0BB1611F418
:10152C00B0E0AB1691F40D811E812F8138853030DF
:10153C0029F4203019F4103009F4003039F4850105
:10154C000F5F1F4F9801590100C000C0042F007C91
:10155C00802F7EC0B1E0BC836A010C810A30F1F0AF
:10156C000C81202F30E0220F331F220F331F08E78E
:10157C0011E0F901E00FF11F4591559165917591BD
:10158C000D811E812F813885041715072607370713
:10159C0008F404C00C810F5F0C83DFCFA50196010A
:1015AC00B401892F9A2F64C0B1E0BC836A010C810D
:1015BC000830F1F00C81202F30E0220F331F220F66
:1015CC00331F00EA11E0F901E00FF11F459155912D
:1015DC00659175910D811E812F8138850417150732
:1015EC002607370708F404C00C810F5F0C83DFCF8C
:1015FC00A5019601B401892F9A2F3AC0B1E0BC83A2
:10160C006A010C810C30F1F00C81202F30E0220F9C
:10161C00331F220F331F08E411E0F901E00FF11F13
:10162C0045915591659175910D811E812F8138855C
:10163C00041715072607370708F404C00C810F5F41
:10164C000C83DFCFA5019601B401892F9A2F10C00E
:10165C00803009F47FCF803C09F47CCF803809F4CA
:10166C00A3CF803459F29A01A501B401892F9A2F86
:10167C000C8110E00417150714F44C8309C00C817D
:10168C004017B0E05B0724F40C8110E0A80100C007
:10169C00B82FB92B59F0890103701070B02FB12BF2
:1016AC0031F08C0101501040C80100C000C0481737
:1016BC0059072CF48C01041B150BC80102C080E0E7
:1016CC0090E08901047C1870183009F4003449F456
:1016DC00B82FB92B29F08C0101501040C80100C063
:1016EC0014C08901007C1870183009F4003869F4B2
:1016FC0002E010E00817190724F48C010250104086
:10170C0002C000E010E0C80100C022FF6CC021FF45
:10171C0012C020FF03C0BDE2B88302C0BBE2B88395
:10172C000881F101008381010F5F1F4F18018B01AC
:10173C000F5F1F4F34C020FF0BC0F101B0E2B0832C
:10174C0081010F5F1F4F18018B010F5F1F4F27C0C7
:10175C008901007C1870183009F40038F9F4F10193
:10176C00B0E3B08381010F5F1F4F18018B010F5F36
:10177C001F4FB80125FF03C0B8E5B98302C0B8E715
:10178C00B9830981F101008381010F5F1F4F18019B
:10179C008B010F5F1F4FB8018B0101C08B01B82F5C
:1017AC00B92BE1F0B9014A01580101C0C601F101A0
:1017BC00B0E3B08381010F5F1F4F180185010F5FEC
:1017CC001F4F58018C01015010406801B02FB12BF4
:1017DC0069F79B01A401C601850100C05C01C80129
:1017EC0049019A017FC0B82FB92BC9F023FD1AC04B
:1017FC0001C0C401F101B0E2B08381010F5F1F4F42
:10180C0018018B010F5F1F4FB8018C010150104064
:10181C004801B02FB12B69F78B01C40101C08B01BA
:10182C00B80100C021FF13C020FF03C0BDE2BA8382
:10183C0002C0BBE2BA830A81F101008381010F5F10
:10184C001F4F18018B010F5F1F4FB8010EC020FFF7
:10185C000CC0F101B0E2B08381010F5F1F4F180182
:10186C008B010F5F1F4FB80100C08901007C1870FD
:10187C00183009F4003459F4F101B0E3B08381015C
:10188C000F5F1F4F18018B010F5F1F4F27C089017E
:10189C00007C1870183009F40038F9F4F101B0E349
:1018AC00B08381010F5F1F4F18018B010F5F1F4F1A
:1018BC00B80125FF03C0B8E5BB8302C0B8E7BB8302
:1018CC000B81F101008381010F5F1F4F18018B0108
:1018DC000F5F1F4FB8018B0101C08B015C01C80168
:1018EC0049019A010C8110E00217130764F4F1010D
:1018FC00B0E3B08381010F5F1F4F18018C010F5FA4
:10190C001F4FC801EFCFA9019A018A010150104065
:10191C006801B22FB32B09F4B3C0082D007C0987E2
:10192C0096C09601220F331F220F331F08E711E0D8
:10193C00F901E00FF11F45915591659175919F93B8
:10194C008F930D811E812F8138850E9414028B018B
:10195C009C014AE050E060E070E00E9414028D01AE
:10196C009F018F919F91005D0C837DC085FA0EF0D5
:10197C0028C09601220F331F220F331F00EA11E0FB
:10198C00F901E00FF11F45915591659175919F9368
:10199C008F930D811E812F8138850E9414028B013B
:1019AC009C018F919F91A801B9014F70507060708C
:1019BC00707000E612E0F801E40FF51F04910C833F
:1019CC0027C09601220F331F220F331F00EA11E0AC
:1019DC00F901E00FF11F45915591659175919F9318
:1019EC008F930D811E812F8138850E9414028B01EB
:1019FC009C018F919F91A801B9014F70507060703C
:101A0C00707008EE12E0F801E40FF51F04910C83DE
:101A1C002AC09601220F331F220F331F08E411E056
:101A2C00F901E00FF11F45915591659175919F93C7
:101A3C008F930D811E812F8138850E9414028B019A
:101A4C009C018F919F910770005D0C830CC00985E0
:101A5C00003009F466CF003C09F463CF003809F478
:101A6C0085CF0034B1F20C81F101008381010F5F4D
:101A7C001F4F18018C010F5F1F4FC801A60144CFE7
:101A8C0083FA0EF01CC000E010E00A151B05D4F41C
:101A9C00AC01950100C0F101B0E2B08381010F5F90
:101AAC001F4F18018A010F5F1F4FA80189010150B8
:101ABC0010409801B02FB12B71F78A0101C08C0135
:101ACC00A80101C0AC016ECA8A012996CDBFDEBF48
:061ADC00DF91CF91089597
:10042800C9019A01AB01B801A1E21A2EAA1BBB1B94
:10043800FD010DC0AA1FBB1FEE1FFF1FA217B307A8
:10044800E407F50720F0A20BB30BE40BF50B661FCE
:10045800771F881F991F1A9469F760957095809582
:0404680090950895CE
:10258600CF93DF93CDB7DEB76297CDBFDEBF21967F
:102596002F923F924F925F9200EC11E02016310687
:1025A60039F0B0E03B1611F4B0E02B1609F001C08B
:1025B600C0C0F1017296259135910BE513E0201705
:1025C600310749F0F101729605911591103009F421
:1025D600003009F001C0ADC0F10172960591159168
:1025E600F801319605911591103009F4003009F47F
:1025F600A0C0F1017296059115910D5F1F4F088BD2
:10260600198B76C0F101729605911591F8013196F4
:1026160005911591F8010081202F30E08E013F933E
:102626002F93B3E0BF93B9E8BF931F930F939BDB40
:10263600ADB7BEB71696ADBFBEBF74C0F1017296F8
:1026460005911591F801319605911591F8012191A1
:1026560031918E013F932F93B3E0BF93BDE7BF93B4
:102666001F930F9380DBADB7BEB71696ADBFBEBF47
:1026760059C0F101729605911591F80131960591AF
:102686001591F80121913191419151918E015F93FC
:102696004F933F932F93B3E0BF93B8E7BF931F9336
:1026A6000F93C1DAADB7BEB71896ADBFBEBF3AC07D
:1026B600F101729605911591F801319605911591E2
:1026C600F80121913191419151918E015F934F9380
:1026D6003F932F93B3E0BF93B9E4BF931F930F9338
:1026E600A2DAADB7BEB71896ADBFBEBF1BC01AC043
:1026F60018892989E12FF22F0491013009F482CF3C
:10270600E12FF22F0491023009F498CFE12FF22F36
:102716000491043009F4ADCFE12FF22F0491083073
:1027260039F2E5CF8E012801BDE03B2EB1E02B2E1C
:10273600AFDA5F904F903F902F906196CDBFDEBF8E
:06274600DF91CF91089520
:1023B2002F923F924F9280E300EC11E020163106FB
:1023C20039F0B0E03B1611F4B0E02B1609F001C071
:1023D200D5C0F1017296259135910BE513E02017D6
:1023E200310749F0F101729605911591103009F407
:1023F200003009F001C0C2C0F10172960591159139
:10240200F801319605911591103009F4003009F464
:10241200B5C0F101729605911591F80133960491B8
:10242200083008F5F101729635914591E32FF42FAA
:10243200319605911591F8012081E32FF42F3396FF
:102442000491B02F01E010E0BB2321F0000F111F17
:10245200BA95E1F702231070B02FB12B11F001E30E
:1024620001C0082F85C0F101729605911591F801FE
:1024720033960491003100F5F10172964591559120
:10248200FA01319605911591F80121913191FA01E4
:1024920033960491B02F01E010E0BB2321F0000F2E
:1024A200111FBA95E1F702231323B02FB12B11F0BC
:1024B20001E301C0082F5CC0F101729605911591EC
:1024C200F80133960491003250F5F101729625918C
:1024D2003591F901319605911591F801419151918A
:1024E20061917191F90133960491B02F01E010E0EE
:1024F20020E030E0BB2331F0000F111F221F331FF9
:10250200BA95D1F70423152326233723B02FB12BF5
:10251200B22BB32B11F001E301C0082F29C0F10146
:10252200729625913591F901319605911591F8012F
:102532004191519161917191F90133960491B02FBA
:1025420001E010E020E030E0BB2331F0000F111F6A
:10255200221F331FBA95D1F70423152326233723CD
:10256200B02FB12BB22BB32B11F001E301C0082F16
:10257200402EBFE03B2EB1E02B2EB2DA4F903F90BF
:042582002F900895F9
:102806002F923F924F925F92BAE04B2EB2E05B2E30
:10281600B9E03B2EB1E02B2E3BDA5F904F903F9014
:042826002F90089552
:10282A002F923F924F925F92B3E14B2EB2E05B2E12
:10283A00B9E03B2EB1E02B2E29DA5F904F903F9002
:04284A002F9008952E
:103054002F923F92209202023092030220901C028F
:0C30640030901D02E3DC3F902F90089597
:103070002F923F9220921E0230921F0220901C023B
:0C30800030901D02D5DC3F902F90089589
:1034A2002F923F92209208023092090220901C0231
:0C34B20030901D02BCDA3F902F9008956E
:1034BE002F923F924F925F926F926624B6E95B2EE7
:1034CE004424B3E22B2EB0E03B2EADDB002311F0F3
:1034DE0001E047C06624B6E95B2EB1E04B2EB3E2A5
:1034EE002B2EB0E03B2E9FDB002311F002E039C003
:1034FE006624B6E95B2EB2E04B2EB3E22B2EB0E083
:10350E003B2E91DB002311F003E02BC06624B6E9BD
:10351E005B2EB3E04B2EB3E22B2EB0E03B2E83DBC3
:10352E00002311F006E01DC06624B6E95B2EB4E060
:10353E004B2EB3E22B2EB0E03B2E75DB002311F0A9
:10354E0005E00FC06624B6E95B2EB5E04B2EB3E264
:10355E002B2EB0E03B2E67DB002311F004E001C000
:0E356E0000E06F905F904F903F902F90089577
:102C3400CF93DF93CDB7DEB72297CDBFDEBF21960A
:102C4400B0E0B983B42D11E0BB2319F0110FBA958C
:102C5400E9F71883F101008101230023B0E009F4AE
:102C6400B1E00B2F0625B1F000E0051530F4C6D80D
:102C7400C5D8052D0150502EF7CFF10110810881E0
:102C840001230023B0E009F4B1E00B2F062511F075
:102C9400BFEFB98309812196CDBFDEBFDF91CF910C
:022CA400089591
:101E00001BE008E50A95F1F71A95E1F7000008953F
:001E1000D2
:0A34980000911C0210911D0208951E
:10339A00CF93DF93CDB7DEB72297CDBFDEBF21969D
:1033AA0000911C0210911D02113009F4003C49F0F1
:1033BA0000911C0210911D02103009F4003009F02E
:1033CA0001C010C000911C0210911D02F8013A962A
:1033DA000591159108831983B02FB12B19F0E88153
:1033EA00F98109952196CDBFDEBFDF91CF9108956E
:0033FA00D3
:1033FA00CF93DF93CDB7DEB72297CDBFDEBF21963D
:10340A00B1E03B1611F4B0EC2B1639F0B0E03B16E4
:10341A0011F4B0E02B1609F001C033C0F1013E9659
:10342A0005911591B02FB12B39F0F1013E96059116
:10343A001591F801099525C0F1017296059115912A
:10344A000883198308C099DC1CC028DC1AC026DC52
:10345A0018C037DB16C018812981E12FF22F049199
:10346A00013089F3E12FF22F0491023071F3E12F39
:10347A00F22F0491033059F3E12FF22F0491043013
:0E348A0041F32196CDBFDEBFDF91CF910895B3
:102D8400B1E03B1611F4B0EC2B1639F0B0E03B1671
:102D940011F4B0E02B1609F001C0C7C00091040281
:102DA40010910502B02FB12B31F0E0910402F091A3
:102DB40005020995BAC0F101729605911591133077
:102DC40009F40B3549F0F101729605911591103013
:102DD40009F4003009F001C0A8C0F1017296059110
:102DE4001591F801319605911591103009F40030D0
:102DF40009F49BC0F101729605911591F80133967F
:102E040004910830C0F4F101729605911591F8010E
:102E1400319625913591F80133960491B02F11E044
:102E2400BB2319F0110FBA95E9F7F90100810127C5
:102E3400F90100837AC0F101729605911591F801A8
:102E4400339604910031E8F4F101729605911591DD
:102E5400F801319645915591F80133960491B02FBC
:102E640021E030E0BB2321F0220F331FBA95E1F7B4
:102E7400FA010191119102271327FA010193119389
:102E840054C0F101729605911591F801339604919D
:102E9400003230F5F101729605911591F8013196E1
:102EA40065917591F80133960491B02F41E050E09B
:102EB400BB2321F0440F551FBA95E1F7FB010191A3
:102EC40011912191319104271527B0E057FDBFEFEF
:102ED4002B273B27FB01019311932193319325C0A9
:102EE400F101729605911591F801319665917591EC
:102EF400F80133960491B02F41E050E0BB2321F058
:102F0400440F551FBA95E1F7FB01019111912191ED
:102F1400319104271527B0E057FDBFEF2B273B273E
:0C2F2400FB010193119321933193089558
:102CA600CF93DF93CDB7DEB72297CDBFDEBF219698
:102CB600B1E03B1611F4B0EC2B1639F0B0E03B1640
:102CC60011F4B0E02B1609F001C053C000915E026A
:102CD60010915F02B02FB12B31F0E0915E02F091BE
:102CE6005F02099546C0F101729605911591133060
:102CF60009F40B3549F0F1017296059115911030E2
:102D060009F4003009F001C034C0F1017296059152
:102D16001591F801319605911591103009F400309E
:102D260009F427C0F1017296059115910D5F1F4FA9
:102D36000883198308C0F6D91CC095DA1AC02DD9A4
:102D460018C063D816C018812981E12FF22F04918B
:102D5600013089F3E12FF22F0491023071F3E12F54
:102D6600F22F0491043059F3E12FF22F0491083029
:0E2D760041F32196CDBFDEBFDF91CF910895CE
:10212A00F101729605911591F80134960591159170
:10213A00133009F4093369F0F1017296059115918A
:10214A00F801349605911591103009F4003009F020
:10215A0010C0F101729605911591F8013196159109
:10216A002591E12FF22F0081040DE12FF22F008338
:10217A0077C0F101729625913591F9013196059151
:10218A001591F8010081402F50E007FD5FEF440DE3
:10219A00551DF901349605911591F801349605916A
:1021AA0015912591359104171507B0E057FDBFEF3A
:1021BA002B073B0794F4F101729605911591F801EA
:1021CA00319625913591F801349605911591F801CA
:1021DA0034960491F901008343C0F1017296259166
:1021EA003591F901319605911591F8010081802FF9
:1021FA0090E007FD9FEF840D951DF9013496059136
:10220A001591F80145915591659175918C0120E0E0
:10221A0097FD2FEF322F04171507260737078CF47F
:10222A00F101729605911591F80131962591359132
:10223A00F801349605911591F8010491F90100838A
:10224A000FC0F101729605911591F8013196159119
:10225A002591E12FF22F0081040DE12FF22F008347
:02226A000895D5
:10226C00F101729605911591F8013496059115912D
:10227C00133009F4093369F0F10172960591159147
:10228C00F801349605911591103009F4003009F0DD
:10229C0011C0F101729605911591F80131962591B5
:1022AC003591F90101911191040D151DF90101935D
:1022BC00119378C0F101729625913591F9013196FF
:1022CC0005911591F80101911191A201400F511F37
:1022DC00F901349605911591F801349605911591F3
:1022EC002591359104171507B0E057FDBFEF2B076B
:1022FC003B07A4F4F101729605911591F801319602
:10230C0025913591F801349605911591F801349683
:10231C0005911591F9010193119344C0F101729645
:10232C0025913591F901319605911591F80101919D
:10233C001191C201800F911FF901349605911591ED
:10234C00F80145915591659175918C0120E097FDAF
:10235C002FEF322F04171507260737079CF4F101CE
:10236C00729605911591F801319625913591F801E8
:10237C00349605911591F80105911591F901019388
:10238C00119310C0F101729605911591F8013196D7
:10239C0025913591F90101911191040D151DF9014A
:0623AC0001931193089556
:101FA000F101729605911591F801349605911591FC
:101FB000133009F4093369F0F10172960591159116
:101FC000F801349605911591103009F4003009F0AC
:101FD0001AC0F101729605911591F801319645915B
:101FE0005591FA010191119121913191040D151D25
:101FF000B0E057FCBFEF2B1F3B1FFA010193119379
:102000002193319391C0F101729685919591FC01D4
:10201000319605911591F80101911191219131911C
:10202000A20160E057FC6FEF762F400F511F621F37
:10203000731FFC01349605911591F80134960591B2
:102040001591259135910417150726073707C4F414
:10205000F101729605911591F801319645915591CE
:10206000F801349605911591F80134960591159172
:1020700025913591FA01019311932193319354C025
:10208000F101729685919591FC013196059115911A
:10209000F8010191119121913191A20160E057FC69
:1020A0006FEF762F400F511F621F731FFC01349694
:1020B00005911591F80105911591259135914017DC
:1020C000510762077307BCF4F101729605911591EF
:1020D000F801319645915591F80134960591159185
:1020E000F8010591159125913591FA01019311930C
:1020F0002193319319C0F101729605911591F80160
:10210000319645915591FA010191119121913191A9
:10211000040D151DB0E057FCBFEF2B1F3B1FFA014C
:0A2120000193119321933193089568
:101E1000F101729605911591F8013496059115918D
:101E2000133009F4093369F0F101729605911591A7
:101E3000F801349605911591103009F4003009F03D
:101E40001AC0F101729605911591F80131964591EC
:101E50005591FA010191119121913191040D151DB6
:101E6000B0E057FCBFEF2B1F3B1FFA01019311930A
:101E70002193319391C0F101729685919591FC0166
:101E8000319605911591F8010191119121913191AE
:101E9000A20160E057FC6FEF762F400F511F621FC9
:101EA000731FFC01349605911591F8013496059144
:101EB0001591259135910417150726073707C4F4A6
:101EC000F101729605911591F80131964591559160
:101ED000F801349605911591F80134960591159104
:101EE00025913591FA01019311932193319354C0B7
:101EF000F101729685919591FC01319605911591AC
:101F0000F8010191119121913191A20160E057FCFA
:101F10006FEF762F400F511F621F731FFC01349625
:101F200005911591F801059115912591359140176D
:101F3000510762077307BCF4F10172960591159180
:101F4000F801319645915591F80134960591159116
:101F5000F8010591159125913591FA01019311939D
:101F60002193319319C0F101729605911591F801F1
:101F7000319645915591FA0101911191219131913B
:101F8000040D151DB0E057FCBFEF2B1F3B1FFA01DE
:0A1F900001931193219331930895FA
:102ACC00CF93DF93CDB7DEB72897CDBFDEBF21966E
:102ADC00B1E03B1611F4B0EC2B1639F0B0E03B161C
:102AEC0011F4B0E02B1609F001C090C00091060261
:102AFC0010910702B02FB12B31F0E0910602F0914A
:102B0C000702099583C0F101729605911591133056
:102B1C0009F40B3549F0F1017296059115911030BD
:102B2C0009F4003009F001C071C0F10172960591F1
:102B3C001591F801319605911591103009F400307A
:102B4C0009F464C0F1017296059115910D5F1F4F48
:102B5C000E831F834EC0F101729605911591F801F9
:102B6C003196459155918A010C831D83FA0101918F
:102B7C00119121913191088319832A833B8382011E
:102B8C0020E057FC2FEF322F02DA488159816A81FD
:102B9C007B8126D94C815D81FA010193119321939C
:102BAC00319334C0F101729605911591F80131966B
:102BBC00459155918A010C831D83FA010191119164
:102BCC0021913191088319832A833B83820120E070
:102BDC0057FC2FEF322FDBD9488159816A817B81D9
:102BEC00FFD84C815D81FA010193119321933193AC
:102BFC000DC01E812F81E12FF22F0491043009F4B6
:102C0C00AACFE12FF22F0491083061F22796CDBFA5
:082C1C00DEBFDF91CF910895A6
:061F9A00E8941DDF08952C
:101DD80047E16627552726F0332312F4D2D860E866
:041DE800A2D80895E0
:100F8A0000951095209530950F5F1F4F2F4F3F4FBB
:020F9A000895B8
:100F2E006ADA11F19F938F938EE790E0332351F09D
:100F3E00369527951795079548175907B4F44F5FBF
:100F4E005F4FF4CF80959095019622239AF0000F73
:100F5E00111F221F481759071CF041505040F5CF62
:100F6E00002711272227332708C033270FEF102F12
:0C0F7E002FE7322F8F919F9146DA0895E3
:10040400002329F4112319F4222309F43323089532
:00041400E8
:10041400F7DF39F041585F4F342F220F3695279577
:04042400362B0895D6
:101DEC00042E152E262E372EB8DF002E112E222E65
:041DFC00332E0895E5
:061D6600E894F5DE08958B
:101B54000E94360209F443C0E62ED52EC42EB32EBD
:101B6400A22E912E802E002D112D222D332D0E9478
:101B7400360209F43FC0842F952F8C199D09B9F0C2
:101B840072F49095809501964C2D5D2D883190F5D9
:101B940035952795179507950197D1F708C0883192
:101BA400F0F4B594A794979487940197D1F7662796
:101BB4002EF0080D191D2A1D3B1D09C0801A910A1B
:101BC400A20AB30A082D192D2A2D3B2D332312F412
:101BD400DAD960E8AAD902C00E940A0217C0002D0F
:101BE400112D222D332DD6F70E940202B9F340E8BD
:101BF4003427F4CF082D192D2A2D3B2D4C2D5D2D86
:0E1C04006E2D33234AF7BFD960E8E6CF08956E
:0E046C0090DF21F0662309F08AD59894089558
:10038E003AD079F0632F6078220F331F432F5FE747
:10039E00451B55275040269530E8232B332798943C
:0A03AE0003C0442755276627089571
:102F3000CF93DF93CDB7DEB72297CDBFDEBF21960B
:102F4000B1E03B1611F4B0EC2B1639F0B0E03B16B3
:102F500011F4B0E02B1609F001C071C0F1013C96EC
:102F600005911591B02FB12B39F0F1013C960591E7
:102F70001591F801099563C0F101729605911591BB
:102F8000133009F40B3549F0F10172960591159152
:102F9000103009F4003009F001C051C0F1017296FF
:102FA000059115910883198334C00091080210918E
:102FB0000902B02FB12B29F0E0910802F09109022B
:102FC00009953DC000911E0210911F02B02FB12B38
:102FD00029F0E0911E02F0911F02099530C0009186
:102FE000020210910302B02FB12B29F0E0910202EE
:102FF000F0910302099523C0009100021091010293
:10300000B02FB12B29F0E0910002F0910102099557
:1030100016C018812981E12FF22F0491013029F285
:10302000E12FF22F0491023069F2E12FF22F049187
:103030000330A9F2E12FF22F04910430E9F2219636
:0A304000CDBFDEBFDF91CF910895F0
:0A304A0005900D920197E1F708953B
:10369400A0E0B2E0E4EEF0E084E690E00E942518B9
:0236A400089587
:1002240010023802C0014C0200000000000000006F
:04023400D7025B038F
:1002100038022402C001FC010000000000000000C0
:04022000B5025B03C5
:1002C6004D656E7520312020202020202020202002
:0102D6000027
:1002380024021002C001C0010314151400000000BC
:04024800C6025B038C
:10024C00C001C0012402C00100000000A613000080
:04025C00A4025B039A
:1002D7004D656E75203220202020202020202020F0
:0102E7000016
:1002A4004D656E7520322E31202020202020202004
:0102B4000049
:1001FC00E801D4011002C001000000000000000062
:04020C000A0361037D
:1002B5004D656E7520332020202020202020202011
:0102C5000038
:080339000000000000000000BC
:1001E800D401FC011002C001000000000000000062
:0401F800F90267039E
:1001D400FC01E8011002C001000000000000000062
:0401E40071026D0334
:06036100012E0005390326
:10030A0045646974206269742020202020202020FE
:01031A0000E2
:0603670003280001390328
:1002F90045646974207369676E6564202020202035
:0103090000F3
:080341000A0000001400000096
:06036D000228000141031B
:100271004564697420756E7369676E2020202020A3
:01028100007C
:1001C000000000000000000000000000000000002F
:0401D000000000002B
:06035B000000000000009C
:0403850025346400B7
:0403810025346400BB
:0503730025344C64007C
:0603550025344C4C64004D
:06034F00693D2536640043
:0403890025347500A2
:04037D0025347500AE
:0503780025344C750066
:0603490025344C4C750048
:0A03270001000A006400E80310273B
:080331000100100000010010A2
:0C031B00010008004000000200100080FB
:1002930030313233343536373839414243444546B9
:0102A300005A
:10028200303132333435363738396162636465660A
:01029200006B
:10017800010000000A00000064000000E80300001D
:1001880010270000A086010040420F0080969800CA
:0801980000E1F50500CA9A3BE5
:1001A000010000001000000000010000001000002D
:1001B000000001000000100000000001000000101D
:10014800010000000800000040000000000200005C
:1001580000100000008000000000040000002000E3
:10016800000000010000000800000040000000003E
:1002600030313233343536373839414243444546EC
:01027000008D
:1002E80030313233343536373839616263646566A4
:0102F8000005
:0200E40000001A
:0200E600000018
:0200E800000016
:0200EA00000014
:0200EC00000012
:0900EE002053454C454354200009
:0900F70020454E54455220200022
:02010000C0013C
:020102000000FB
:050104006E756C6C003B
:100109006E6F6E2D666C6F6174207072696E7466A5
:0101190000E5
:05011A006E756C6C0025
:10011F006E6F6E2D666C6F6174207072696E74668F
:01012F0000CF
:100130006E6F6E2D6C6F6E67207072696E746600E4
:020140000000BD
:020142000000BB
:020144000000B9
:02014600640053
:00000001FF
