:100000000C94AF180C9400000C9400000C940000A9
:100010000C9400000C9400000C9400000C94000060
:100020000C9400000C9400000C9400000C94000050
:100030000C9400000C9400000C9400000C94000040
:100040000C9400000C9400000C9400000C94000030
:100050000C9400000C9400000C9400000C94000020
:100060000C9400000C9400000C9400000C94000010
:100070000C9400000C9400000C9400000C94000000
:100080000C9400000C9400000C9400000C940000F0
:100090000C9400000C9400000C9400000C940000E0
:1000A0000C9400000C9400000C9400000C940000D0
:1000B0000C9400000C9400000C9400000C940000C0
:1000C0000C9400000C9400000C9400000C940000B0
:1000D0000C9400000C9400000C9400000C940000A0
:0400E0000C9400007C
:10315E00BFEFBDBFB1E2BEBF0E943B19CDB7DEB718
:10316E002197CDBFDEBF21962F923F924F925F9255
:10317E00BDB1B062BDB9BEB1BF7DBEB9BFEFB7B90B
:10318E00B0E0B8B9B0E0B4B9B5B7BF7EB5BFBFEF68
:10319E00B5B9C0DDBCE02B2EB2DCB1E02B2EAFDC1E
:1031AE00BCE02B2EB0E13B2E58DFB2E22B2EB0E16D
:1031BE003B2E97DCB9E22B2EBFE03B2E02DDBDE5A8
:1031CE002B2EB1E13B2E57DFBCE42B2EB2E03B2E73
:1031DE00EEDA5FDF088333C0B4DEF8013296059174
:1031EE0015911801E4DA3AC0ACDEF801059115919B
:1031FE001801DDDA33C0A5DEF8013696059115917A
:10320E001801D5DAA3DE2AC09CDEF80134960591AA
:10321E0015911801CCDA22C094DEB1E04B2EB0E04D
:10322E005B2E1801C3DE1AC08CDEBFEF4B2E5B2E59
:10323E001801BCDE13C085DE1801D6DC0FC0088174
:10324E00023009F4C9CF033079F20630A1F2013011
:10325E00D9F2043009F3053039F3EDCFBACF5F90D0
:08326E004F903F902F90FFCF1D
:102D2200B0912B00B77FB0932B00B0912B00BB7FEB
:102D3200B0932B00B0912B00BF7EB0932B00B091CB
:102D42002B00BF7DB0932B00B0912B00BF7BB093C3
:102D52002B00B0912B00BF77B0932B00B0912A00CB
:102D6200B860B0932A00B0912A00B460B0932A00F0
:102D7200B0912A00B068B0932A00B0912A00B064E2
:102D8200B0932A00B0912A00B062B0932A00B091A9
:102D92002A00B061B0932A0008DD07DD06DDB0919C
:102DA2002B00B064B0932B00B0912B00B068B093AD
:102DB2002B00B0912B00B860B0932B0053DDB09183
:102DC2002B00B77FB0932B00F0DCB0912B00B860E2
:102DD200B0932B0047DDB0912B00B77FB0932B004F
:102DE200E4DCB0912B00B860B0932B003BDDB091D6
:102DF2002B00B77FB0932B00D8DCB0912B00BF77AC
:102E0200B0932B00B0912B00B860B0932B002ADD59
:102E1200B0912B00B77FB0932B00C7DCB0912B0091
:102E2200B860B0932B001EDDB0912B00B77FB0933A
:102E32002B00B0912B00BF7BB0932B00B0912B00E5
:102E4200B061B0932B00B0912B00B860B0932B000F
:102E520009DDB0912B00B77FB0932B00A6DCB091B7
:102E62002B00BF7EB0932B00B0912B00B068B093C3
:102E72002B00B0912B00B860B0932B00F3DCB09123
:102E82002B00B77FB0932B00B0912B00BF77B0938C
:102E92002B00B0912B00B860B0932B00E3DCB09113
:102EA2002B00B77FB0932B0080DCB0912B00B86071
:102EB200B0932B00D7DCB0912B00B77FB0932B00DF
:102EC200B0912B00B068B0932B00B0912B00B8608A
:102ED200B0932B00C7DCB0912B00B77FB0932B00CF
:102EE20064DCB0912B00BF77B0932B00B0912B0024
:102EF200B860B0932B00B6DCB0912B00B77FB093D3
:102F02002B00B0912B00B061B0932B00B0912B003D
:102F1200B062B0932B00B0912B00B064B0932B0041
:102F2200B0912B00B068B0932B00B0912B00B86029
:102F3200B0932B0097DCB0912B00B77FB0932B009E
:0E2F420034DCB0916402B160B0936402089573
:1027AC0013E708E40A95F1F71A95E1F7000008958C
:0027BC001D
:0A28660005E00A95F1F7000008955F
:102B0C0027FAB0912B00B4F9B0932B0026FAB091B0
:102B1C002B00B5F9B0932B0025FAB0912B00B6F928
:102B2C00B0932B0024FAB0912B00B7F9B0932B0083
:102B3C00B091640200902B00E894B0FF689402F806
:102B4C0000922B00B0912B00B860B0932B0085DE67
:102B5C00B0912B00B77FB0932B0023FAB0912B00D0
:102B6C00B4F9B0932B0022FAB0912B00B5F9B093C5
:102B7C002B0021FAB0912B00B6F9B0932B0020FA60
:102B8C00B0912B00B7F9B0932B00B0916402009078
:102B9C002B00E894B0FF689402F800922B00B091DF
:102BAC002B00B860B0932B0058DEB0912B00B77F90
:102BBC00B0932B00B0916402B0FF02C0F1DD01C0F4
:042BCC0045DE089545
:0E28580012E009E00A95F1F71A95E1F70895EC
:103068002F923F9220925C0230925D0220900802DB
:0C307800309009029FDB3F902F900895DC
:1027BC002F923F92B1E03B1611F4B8EE2B1639F084
:1027CC00B0E03B1611F4B0E02B1609F001C03BC091
:1027DC00209208023092090200915C0210915D0275
:1027EC00B02FB12B71F00091080210910902F80181
:1027FC007096059115911801E0915C02F0915D02C3
:10280C0009950091600210916102B02FB12B49F033
:10281C002090080230900902E0916002F091610270
:10282C0009950091080210910902F801389605915A
:10283C0015919801B02FB12B31F03F932F93F901E3
:0C284C0009952F913F913F902F90089527
:102018002F923F924F925F92B22DB32951F0F10166
:102028000491002331F02101B1E03B2EB1E02B2EC9
:0C2038006FDE5F904F903F902F90089556
:101D1800F20104910023E1F0F20104915F924F92E5
:101D2800402E07D94F905F9082010F5F1F4F280107
:101D3800F2010491002361F0F20104912F92202E08
:101D48000E9436022F9082010F5F1F4F2801F0CFAB
:021D58000895EC
:100F3A002F920FC0B0E82B2E19C0B0EC2B2E16C082
:100F4A00B4E92B2E13C0B4ED2B2E10C0B0E82B2E13
:100F5A000DC0B1E02B1671F3B2E02B1671F3B3E0BA
:100F6A002B1671F3B4E02B1671F3F0CF032D015059
:100F7A00020D202EB0916402B160B0936402202E5B
:100F8A000E948615B0916402BE7FB0936402242C3D
:100F9A000E948615B0916402B160B09364022F90EA
:020FAA000895A8
:10046C00B0916402BE7FB09364020E948615B09175
:0A047C006402B160B09364020895B9
:10220E00CF93DF93CDB7DEB76197CDBFDEBF2196FB
:10221E002F923F924F925F9208EE11E020163106F8
:10222E0039F0B0E03B1611F4B0E02B1609F001C006
:10223E0033C0F101709605911591B02FB12B41F07D
:10224E00F101709605911591F8010491002301F0AA
:10225E009E0100916202109163021F930F93B3E0EF
:10226E00BF93B1E5BF933F932F9373DDADB7BEB769
:10227E001696ADBFBEBF8E012801B9E03B2EB1E070
:10228E002B2EFBDC00916202109163020150104074
:10229E0000936202109363025F904F903F902F90D5
:0C22AE006096CDBFDEBFDF91CF91089598
:101D6000CF93DF93CDB7DEB72297CDBFDEBF2196ED
:101D70002F923F924F925F926F927F922F81388580
:101D8000FE018E01075F1F4F0E5F1F4F01931193DE
:101D90008E013F932F93380149845A8419010E9480
:101DA00043022F913F91A801F801E20FF31FB0E029
:101DB000B0838A017F906F905F904F903F902F90FB
:0C1DC0002196CDBFDEBFDF91CF910895CA
:10048600CF93DF93CDB7DEB72A97CDBFDEBF2196D8
:1004960040E050E0F20182010F5F1F4F28010491F6
:1004A6000C83002309F43FC50C81053261F00C81F1
:1004B600F101008381010F5F1F4F18018A010F5F51
:1004C6001F4FA801E7CF20E030E000E010E0B801C0
:1004D60028C08B010860B80182010F5F1F4F2801F9
:1004E60035C08B010160B80182010F5F1F4F2801E3
:1004F6002DC08B010260B80182010F5F1F4F2801DA
:1005060025C08B011860B80182010F5F1F4F2801BB
:100516001DC08B010460B80182010F5F1F4F2801C7
:1005260015C0F20104910D32A1F2F20104910032DC
:10053600C1F2F20104910B32E1F2F20104910332AD
:1005460001F3F2010491003321F301C0C1CF61FF31
:1005560006C08B010E7FB801872F762F02C0872F2A
:10056600762F73FF06C0072F182F0B7F702F812F52
:1005760000C0F201049110E03F922F92202E37DF47
:100586002F903F90002321F120E030E0942FA52FFB
:1005960002C0252F362F89014AE050E03ADFF201EA
:1005A6002491020FB0E01B1F00531040502F612F03
:1005B60082010F5F1F4F2801F801049110E03F925E
:1005C6002F92202E14DF2F903F90002311F71EC08C
:1005D600F20104910A32A9F4F30121913191F90152
:1005E60001911191902FA12F89010E5F1F4FF301E9
:1005F6000193119382010F5F1F4F2801092F1A2FB4
:1006060001C08901942FA52F502F612FF20104916B
:100616000E3209F04FC082010F5F1F4F2801F8010B
:1006260004910A32B9F4F30121913191F901019152
:100636001191480189010E5F1F4FF3010193119338
:1006460082010F5F1F4F28019401872E982E792F64
:100656008A2F2FC088249924392F4A2FF20104911A
:1006660010E03F922F92202EC2DE2F903F90002363
:10067600C9F06F935F934F933F9384014AE050E034
:10068600C8DE3F914F915F916F91F2012491020F65
:10069600B0E01B1F00531040480182010F5F1F4F3F
:1006A6002801DCCF8F937F93732F842F94018F9033
:1006B6009F9006C020E030E0872E982E792F8A2F53
:1006C600F20182010F5F1F4F280104910C83EDC0D8
:1006D600072F182F29C4BCE4BD83B2E0BE832FC008
:1006E600B5E2BD83B2E0BE8320E030E028C08401DD
:1006F6000064902FA12F490119C1982DA92D4901F8
:1007060015C184010062902FA12F02C0982DA92D3A
:10071600092F1A2F0068902FA12F490107C1F30155
:1007260001911191F801019111910D831E83F3013D
:10073600019111910E5F1F4FF301019311930D81EA
:100746001E81103009F4003021F4B0E2BD83B2E01E
:10075600BE83B0E0BF83B887672F782FC401852E8C
:10076600962EA9012D813E810F811885F801E20F91
:10077600F31F0081002339F00F8118850F5F1F4F8B
:100786000F831887EFCF9A01AC01982DA92DB22FB0
:10079600B32B39F00F8118852017310710F42F83FA
:1007A60038870F81188509171A0740F40F801884B7
:1007B600092F1A2F00191109C80103C000E010E023
:1007C600C80143FD15C09C018C0101501040C801B1
:1007D600B22FB32B61F0F101B0E2B08381010F5F5C
:1007E6001F4F18018B010F5F1F4FB801ECCF00C0E0
:1007F6002F8138850F811885015010400F83188787
:10080600B22FB32BA1F0ED81FE810081F1010083AF
:1008160081010F5F1F4F18010D811E810F5F1F4F52
:100826000D831E838B010F5F1F4FB801E1CF43FF7E
:1008360017C0AC019A018A0101501040A801B22FDD
:10084600B32B61F0F101B0E2B08381010F5F1F4F5E
:1008560018018B010F5F1F4FB801ECCFAB0101C030
:10086600AB0118CEF30101911191F80100810C83BF
:10087600F301019111910E5F1F4FF3010193119343
:100886008E010C5F1F4F0D831E83B1E0BF83B0E066
:10089600B887952FA62F672F782FA40178CF8401CC
:1008A600006C902FA12F490141C00C81003009F442
:1008B6000FCF0C810C3609F40ECF0C810C3409F4E1
:1008C6000ACF0C81053409F40BCF0C81063609F4E6
:1008D60007CF0C81053609F403CF0C81073609F4DE
:1008E600FFCE0C810F3609F402CF0C81043609F4D1
:1008F60004CF0C81093609F400CF0C81003709F4C6
:1009060000CF0C81083509F4FCCE0C81083709F4B8
:10091600FDCE0C81033709F402CF0C81033609F4AE
:10092600A1CF0C81053709F4BACFAACF092F1A2F08
:10093600007C1070103009F4003039F5F301019194
:100946001191F801019111910D831E83F30101911B
:1009560011910E5F1F4FF301019311932D813E817B
:1009660000E010E0201731076CF4092F1A2F0360FE
:1009760098010D801E8000E010E0001911090D831A
:100986001E8302C0292F3A2F12C0F3010191119143
:10099600F801019111910D831E83F30101911191CB
:1009A6000E5F1F4FF30101931193292F3A2FB0E0E9
:1009B6009B1611F4B0E08B1671F40D811E81103078
:1009C60009F4003049F484010F5F1F4F902FA12FC7
:1009D600892E9A2E00C000C0022F007C402F7EC0B8
:1009E600B1E0BC839F928F92852E962E972FA82FCB
:1009F600722F832F5F916F910C810530B1F00C81BE
:100A0600202F30E0220F331F07E213E0F901E00F39
:100A1600F11F259135910D811E810217130708F4E8
:100A260004C00C810F5F0C83E7CF452F562F692F2B
:100A3600982D272F382F7A2FA92D60C0B1E0BC83BF
:100A4600982DA92D49010C810430B1F00C81202F7D
:100A560030E0220F331F01E313E0F901E00FF11F2D
:100A6600259135910D811E810217130708F404C0E4
:100A76000C810F5F0C83E7CF6F935F93492F5A2F3B
:100A86009401672F782F9F91AF9138C0B1E0BC8356
:100A9600982DA92D49010C810630B1F00C81202F2B
:100AA60030E0220F331F0BE113E0F901E00FF11FD5
:100AB600259135910D811E810217130708F404C094
:100AC6000C810F5F0C83E7CF6F935F93492F5A2FEB
:100AD6009401672F782F9F91AF9110C0403009F491
:100AE6007FCF403C09F47CCF403809F4A7CF40348F
:100AF60069F2952FA62FA401672F782F0C8110E09D
:100B06000417150714F44C8309C00C814017B0E094
:100B16005B0724F40C8110E0A80100C0B92FBA2BA2
:100B260061F0890103701070B02FB12B49F0092FC5
:100B36001A2F01501040C80102C0892F9A2F02C0F7
:100B4600892F9A2F481759072CF48C01041B150B73
:100B5600C80102C080E090E08901047C187018305A
:100B660009F4003449F4B82FB92B29F08C0101504F
:100B76001040C80100C014C08901007C18701830EC
:100B860009F4003869F402E010E00817190724F4A4
:100B96008C010250104002C000E010E0C80100C005
:100BA60022FF6CC021FF12C020FF03C0BDE2B88344
:100BB60002C0BBE2B8830881F101008381010F5FA7
:100BC6001F4F18018B010F5F1F4F34C020FF0BC052
:100BD600F101B0E2B08381010F5F1F4F18018B0155
:100BE6000F5F1F4F27C08901007C1870183009F469
:100BF6000038F9F4F101B0E3B08381010F5F1F4FB4
:100C060018018B010F5F1F4FB80125FF03C0B8E520
:100C1600B98302C0B8E7B9830981F1010083810174
:100C26000F5F1F4F18018B010F5F1F4FB8018B011C
:100C360001C08B01B82FB92BE1F0B9014A01580167
:100C460001C0C601F101B0E3B08381010F5F1F4F00
:100C5600180185010F5F1F4F58018C01015010408C
:100C66006801B02FB12B69F79B01A401C60185016C
:100C760000C04C01C9019A01B8017FC0B82FB92B39
:100C8600C9F023FD1AC001C0C401F101B0E2B0836E
:100C960081010F5F1F4F18018B010F5F1F4FB801B6
:100CA6008C01015010404801B02FB12B69F78B0120
:100CB600C40101C08B01B80100C021FF13C020FF91
:100CC60003C0BDE2BA8302C0BBE2BA830A81F10166
:100CD600008381010F5F1F4F18018B010F5F1F4FAC
:100CE600B8010EC020FF0CC0F101B0E2B083810153
:100CF6000F5F1F4F18018B010F5F1F4FB80100C018
:100D06008901007C1870183009F4003459F4F10197
:100D1600B0E3B08381010F5F1F4F18018B010F5F96
:100D26001F4F27C08901007C1870183009F400385D
:100D3600F9F4F101B0E3B08381010F5F1F4F180191
:100D46008B010F5F1F4FB80125FF03C0B8E5BB83BA
:100D560002C0B8E7BB830B81F101008381010F5FFD
:100D66001F4F18018B010F5F1F4FB8018B0101C088
:100D76008B014C01C9019A01B8010C8110E00217E0
:100D8600130764F4F101B0E3B08381010F5F1F4FD5
:100D960018018B010F5F1F4FB801EFCFA9019A0110
:100DA6008A01015010405801B22FB32B09F498C0A4
:100DB600082F007C09877BC09501220F331F07E2AD
:100DC60013E0F901E00FF11F459155919F938F9321
:100DD6007F936F930D811E81F6DA8C014AE050E015
:100DE600F2DA8D016F917F918F919F91005D0C8357
:100DF6006AC085FF21C09501220F331F01E313E06E
:100E0600F901E00FF11F459155919F938F937F93C1
:100E16006F930D811E81D7DA8C016F917F918F912F
:100E26009F9198012F70307001E712E0F901E00FF1
:100E3600F11F04910C8320C09501220F331F01E39B
:100E460013E0F901E00FF11F459155919F938F93A0
:100E56007F936F930D811E81B6DA8C016F917F911E
:100E66008F919F9198012F70307002E812E0F9017E
:100E7600E00FF11F04910C8326C09501220F331F4A
:100E86000BE113E0F901E00FF11F459155919F9396
:100E96008F937F936F930D811E8195DA8C016F91ED
:100EA6007F918F919F910770005D0C830CC009851F
:100EB600003009F481CF003C09F47ECF003809F4F4
:100EC60098CF0034D1F20C81F101008381010F5FCC
:100ED6001F4F18018B010F5F1F4FB801A5015FCF90
:100EE60083FF1CC000E010E008151905D4F4AB011F
:100EF600940100C0F101B0E2B08381010F5F1F4F82
:100F060018018A010F5F1F4FA80189010150104087
:100F16009801B02FB12B71F78A0101C08B01A8018E
:100F260001C0AB01B7CA8A012996CDBFDEBFDF91EA
:040F3600CF910895BA
:1003F40009E3021528F0B0E32B1610F001E001C068
:0404040000E0089577
:100418009801249F8001259F100D349F100D089589
:00042800D4
:1003CC00C801BA01AA1BBB1B51E107C0AA1FBB1F66
:1003DC00A617B70710F0A61BB70B881F991F5A95C5
:0803EC00A9F780959095089592
:101C88002F920FC0B0E82B2E19C0B0EC2B2E16C027
:101C9800B4E92B2E13C0B4ED2B2E10C0B0E82B2EB8
:101CA8000DC0B1E02B1671F3B2E02B1671F3B3E05F
:101CB8002B1671F3B4E02B1671F3F0CF032D0150FE
:101CC800020D202E202E1ED7B0916402BE7FB09345
:101CD800640210E0E12FF0E0E40DF51D008100231F
:101CE80081F0E12FF0E0E40DF51D00811F932F92A4
:101CF800202E0E9436022F901F91012F0F5F102F68
:101D0800E9CFB0916402B160B09364022F90089556
:001D1800CB
:10204400CF93DF93CDB7DEB76297CDBFDEBF2196C6
:102054002F923F924F925F9208EE11E020163106C4
:1020640039F0B0E03B1611F4B0E02B1609F001C0D2
:10207400C2C0F10172962591359109E313E020174E
:10208400310749F0F101729605911591103009F468
:10209400003009F001C0AFC0F101729605911591AD
:1020A400F801319605911591103009F4003009F4C6
:1020B400A2C0F1017296059115910D5F1F4F088B17
:1020C400198B78C0F101729605911591F80131963A
:1020D40005911591F8010081202F30E007FD3FEFB5
:1020E4008E013F932F93B3E0BF93B1E7BF931F9348
:1020F4000F9334DEADB7BEB71696ADBFBEBF74C086
:10210400F101729605911591F80131960591159199
:10211400F801219131918E013F932F93B3E0BF9346
:10212400BDE6BF931F930F9319DEADB7BEB71696E6
:10213400ADBFBEBF59C0F101729605911591F8016A
:10214400319605911591F801219131914191519167
:102154008E015F934F933F932F93B3E0BF93B3E606
:10216400BF931F930F9359DDADB7BEB71896ADBF9C
:10217400BEBF3AC0F101729605911591F8013196EE
:1021840005911591F80121913191419151918E015F
:102194005F934F933F932F93B3E0BF93B5E4BF9303
:1021A4001F930F933ADDADB7BEB71896ADBFBEBF50
:1021B4001BC01AC018892989E12FF22F049101301C
:1021C40009F480CFE12FF22F0491023009F498CF63
:1021D400E12FF22F0491043009F4ADCFE12FF22F57
:1021E4000491083039F2E5CF8E012801BDE03B2E81
:1021F400B1E02B2E47DD5F904F903F902F9061967A
:0A220400CDBFDEBFDF91CF9108953A
:101C1E00CF93DF93CDB7DEB72297CDBFDEBF219630
:101C2E002F923F924F925F926F927F922F813885C3
:101C3E00FE018E01075F1F4F0E5F1F4F0193119321
:101C4E008E013F932F93380149845A841901D5D9B7
:101C5E002F913F91A801F801E20FF31FB0E0B0837E
:101C6E008A017F906F905F904F903F902F902196BA
:0A1C7E00CDBFDEBFDF91CF910895C6
:10100800CF93DF93CDB7DEB72A97CDBFDEBF21964A
:1010180040E050E0F20182010F5F1F4F2801049168
:101028000C83002309F488C50C81053261F00C811A
:10103800F101008381010F5F1F4F18018A010F5FC3
:101048001F4FA801E7CF20E030E000E010E0B80132
:1010580028C08B010860B80182010F5F1F4F28016B
:1010680035C08B010160B80182010F5F1F4F280155
:101078002DC08B010260B80182010F5F1F4F28014C
:1010880025C08B011860B80182010F5F1F4F28012E
:101098001DC08B010460B80182010F5F1F4F28013A
:1010A80015C0F20104910D32A1F2F201049100324F
:1010B800C1F2F20104910B32E1F2F2010491033220
:1010C80001F3F2010491003321F301C0C1CF61FFA4
:1010D80004C08B010E7FB80100C063FF04C08B0100
:1010E8000B7FB80100C0F201049110E03F922F92EB
:1010F800202E7CD92F903F90002309F120E030E08A
:10110800CA0101C09A0189014AE050E081D9F2017F
:101118002491020FB0E01B1F00531040A801820168
:101128000F5F1F4F2801F801049110E03F922F92A2
:10113800202E5CD92F903F90002321F71AC0F2018E
:1011480004910A3299F4F30121913191F901019145
:101158001191C80189010E5F1F4FF301019311938B
:1011680082010F5F1F4F28018C0101C08901CA014C
:10117800A801F20104910E3209F04CC082010F5F00
:101188001F4F2801F80104910A32B1F4F3012191AB
:101198003191F90101911191480189010E5F1F4FA9
:1011A800F3010193119382010F5F1F4F28019B01E7
:1011B800B4018A01AC0129C020E030E0F2010491B9
:1011C80010E03F922F92202E11D92F903F900023AC
:1011D800A9F05F934F9389014AE050E019D94F91E4
:1011E8005F91F2012491020FB0E01B1F00531040E1
:1011F800980182010F5F1F4F2801E0CF7F936F9303
:10120800B9018A01AC012F913F91902FA12F4A017A
:101218005B0107C000E010E04C01942FA52F9B0153
:101228005801F20182010F5F1F4F280104910C83BE
:10123800E6C0840182C4890100619801F2CFBBE352
:10124800BD83B2E0BE8340E050E01FC08901006466
:10125800680116C1690114C189010062980100C0C2
:101268008901006868010CC1F30101911191F8012D
:10127800019111910D831E83F301019111910E5F6C
:101288001F4FF30101931193A5010D811E811030A9
:1012980009F4003021F4B6E3BD83B2E0BE83B0E0C8
:1012A800BF83B887B401892E9A2EC9012D813E814A
:1012B8000F811885F801E20FF31F0081002339F030
:1012C8000F8118850F5F1F4F0F831887EFCF9C0181
:1012D800CA01AB01B401B82FB92B39F00F811885B9
:1012E8008017910710F48F8398870F811885061748
:1012F800170738F40F8018848B0100191109B801F9
:1013080003C000E010E0B80123FD1CC0C9019B0127
:101318008B0101501040B801B22FB32B61F0F101DD
:10132800B0E2B08381010F5F1F4F18018A010F5F80
:101338001F4FA801ECCF7F936F93BA01AC018F9137
:101348009F9103C0CB01BA01A9012F8138850F8174
:101358001885015010400F831887B22FB32BA1F0C6
:10136800ED81FE810081F101008381010F5F1F4F34
:1013780018010D811E810F5F1F4F0D831E838B0186
:101388000F5F1F4FB801E1CF43FF17C0AC019A01AF
:101398008A0101501040A801B22FB32B61F0F1016E
:1013A800B0E2B08381010F5F1F4F18018B010F5FFF
:1013B8001F4FB801ECCFAB0101C0AB012BCEF3013D
:1013C80001911191F80100810C83F30101911191B0
:1013D8000E5F1F4FF301019311938E010C5F1F4F96
:1013E8000D831E83B1E0BF83B0E0B887692F7A2FE1
:1013F800C501A40170CF8901006C680141C00C814E
:10140800003009F416CF0C810C3609F414CF0C8186
:101418000C3409F410CF0C81053409F410CF0C8179
:10142800063609F40CCF0C81053609F408CF0C8177
:10143800073609F404CF0C810F3609F407CF0C8165
:10144800043609F407CF0C81093609F403CF0C815F
:10145800003709F401CF0C81083509F4FDCE0C8161
:10146800083709F4FDCE0C81033709F4FDCE0C8151
:10147800033609F4A4CF0C81053709F4BCCFADCFEE
:101488008601007C1070103009F4003009F051C05A
:10149800C4FA0EF015C0F30101911191F801019100
:1014A8001191219131910D831E832F833887F30188
:1014B800019111910C5F1F4FF3010193119316C015
:1014C800F30101911191F8010191119120E017FDAB
:1014D8002FEF322F0D831E832F833887F30101915D
:1014E80011910E5F1F4FF301019311934D815E819E
:1014F8006F81788500E010E020E030E04017510768
:1015080062077307A4F486010360A8010D801E809A
:1015180000E010E0001911090F80188420E030E085
:10152800200931090D831E832F83388701C0A60146
:101538002CC0C4FA0EF015C0F30101911191F80105
:1015480001911191219131910D831E832F83388749
:10155800F301019111910C5F1F4FF3010193119356
:1015680013C0F30101911191F801019111910D83BB
:101578001E83B0E0BF83B887F301019111910E5F1C
:101588001F4FF30101931193A601B0E0BB1611F4AC
:10159800B0E0AB1691F40D811E812F813885303073
:1015A80029F4203019F4103009F4003039F4850199
:1015B8000F5F1F4F9801590100C000C0042F007C25
:1015C800802F7EC0B1E0BC836A010C810A30F1F043
:1015D8000C81202F30E0220F331F220F331F08E722
:1015E80011E0F901E00FF11F459155916591759151
:1015F8000D811E812F8138850417150726073707A7
:1016080008F404C00C810F5F0C83DFCFA50196019D
:10161800B401892F9A2F64C0B1E0BC836A010C81A0
:101628000830F1F00C81202F30E0220F331F220FF9
:10163800331F00EA11E0F901E00FF11F45915591C0
:10164800659175910D811E812F81388504171507C5
:101658002607370708F404C00C810F5F0C83DFCF1F
:10166800A5019601B401892F9A2F3AC0B1E0BC8335
:101678006A010C810C30F1F00C81202F30E0220F30
:10168800331F220F331F08E411E0F901E00FF11FA7
:1016980045915591659175910D811E812F813885F0
:1016A800041715072607370708F404C00C810F5FD5
:1016B8000C83DFCFA5019601B401892F9A2F10C0A2
:1016C800803009F47FCF803C09F47CCF803809F45E
:1016D800A3CF803459F29A01A501B401892F9A2F1A
:1016E8000C8110E00417150714F44C8309C00C8111
:1016F8004017B0E05B0724F40C8110E0A80100C09B
:10170800B82FB92B59F0890103701070B02FB12B85
:1017180031F08C0101501040C80100C000C04817CA
:1017280059072CF48C01041B150BC80102C080E07A
:1017380090E08901047C1870183009F4003449F4E9
:10174800B82FB92B29F08C0101501040C80100C0F6
:1017580014C08901007C1870183009F4003869F445
:1017680002E010E00817190724F48C010250104019
:1017780002C000E010E0C80100C022FF6CC021FFD9
:1017880012C020FF03C0BDE2B88302C0BBE2B88329
:101798000881F101008381010F5F1F4F18018B0140
:1017A8000F5F1F4F34C020FF0BC0F101B0E2B083C0
:1017B80081010F5F1F4F18018B010F5F1F4F27C05B
:1017C8008901007C1870183009F40038F9F4F10127
:1017D800B0E3B08381010F5F1F4F18018B010F5FCA
:1017E8001F4FB80125FF03C0B8E5B98302C0B8E7A9
:1017F800B9830981F101008381010F5F1F4F18012F
:101808008B010F5F1F4FB8018B0101C08B01B82FEF
:10181800B92BE1F0B9014A01580101C0C601F10133
:10182800B0E3B08381010F5F1F4F180185010F5F7F
:101838001F4F58018C01015010406801B02FB12B87
:1018480069F79B01A401C601850100C05C01C801BC
:1018580049019A017FC0B82FB92BC9F023FD1AC0DE
:1018680001C0C401F101B0E2B08381010F5F1F4FD5
:1018780018018B010F5F1F4FB8018C0101501040F8
:101888004801B02FB12B69F78B01C40101C08B014E
:10189800B80100C021FF13C020FF03C0BDE2BA8316
:1018A80002C0BBE2BA830A81F101008381010F5FA4
:1018B8001F4F18018B010F5F1F4FB8010EC020FF8B
:1018C8000CC0F101B0E2B08381010F5F1F4F180116
:1018D8008B010F5F1F4FB80100C08901007C187091
:1018E800183009F4003459F4F101B0E3B0838101F0
:1018F8000F5F1F4F18018B010F5F1F4F27C0890112
:10190800007C1870183009F40038F9F4F101B0E3DC
:10191800B08381010F5F1F4F18018B010F5F1F4FAD
:10192800B80125FF03C0B8E5BB8302C0B8E7BB8395
:101938000B81F101008381010F5F1F4F18018B019B
:101948000F5F1F4FB8018B0101C08B015C01C801FB
:1019580049019A010C8110E00217130764F4F101A0
:10196800B0E3B08381010F5F1F4F18018C010F5F37
:101978001F4FC801EFCFA9019A018A0101501040F9
:101988006801B22FB32B09F4B3C0082D007C098776
:1019980096C09601220F331F220F331F08E711E06C
:1019A800F901E00FF11F45915591659175919F934C
:1019B8008F930D811E812F8138850E9414028B011F
:1019C8009C014AE050E060E070E00E9414028D0142
:1019D8009F018F919F91005D0C837DC085FA0EF069
:1019E80028C09601220F331F220F331F00EA11E08F
:1019F800F901E00FF11F45915591659175919F93FC
:101A08008F930D811E812F8138850E9414028B01CE
:101A18009C018F919F91A801B9014F70507060701F
:101A2800707003E912E0F801E40FF51F04910C83CC
:101A380027C09601220F331F220F331F00EA11E03F
:101A4800F901E00FF11F45915591659175919F93AB
:101A58008F930D811E812F8138850E9414028B017E
:101A68009C018F919F91A801B9014F7050706070CF
:101A7800707000E612E0F801E40FF51F04910C8382
:101A88002AC09601220F331F220F331F08E411E0EA
:101A9800F901E00FF11F45915591659175919F935B
:101AA8008F930D811E812F8138850E9414028B012E
:101AB8009C018F919F910770005D0C830CC0098574
:101AC800003009F466CF003C09F463CF003809F40C
:101AD80085CF0034B1F20C81F101008381010F5FE1
:101AE8001F4F18018C010F5F1F4FC801A60144CF7B
:101AF80083FA0EF01CC000E010E00A151B05D4F4B0
:101B0800AC01950100C0F101B0E2B08381010F5F23
:101B18001F4F18018A010F5F1F4FA801890101504B
:101B280010409801B02FB12B71F78A0101C08C01C8
:101B3800A80101C0AC016ECA8A012996CDBFDEBFDB
:061B4800DF91CF9108952A
:10042800C9019A01AB01B801A1E21A2EAA1BBB1B94
:10043800FD010DC0AA1FBB1FEE1FFF1FA217B307A8
:10044800E407F50720F0A20BB30BE40BF50B661FCE
:10045800771F881F991F1A9469F760957095809582
:0404680090950895CE
:101E5200CF93DF93CDB7DEB76297CDBFDEBF2196BA
:101E62002F923F924F925F9208EE11E020163106B8
:101E720039F0B0E03B1611F4B0E02B1609F001C0C6
:101E8200C0C0F10172962591359109E313E0201744
:101E9200310749F0F101729605911591103009F45C
:101EA200003009F001C0ADC0F101729605911591A3
:101EB200F801319605911591103009F4003009F4BA
:101EC200A0C0F1017296059115910D5F1F4F088B0D
:101ED200198B76C0F101729605911591F801319630
:101EE20005911591F8010081202F30E08E013F937A
:101EF2002F93B3E0BF93B9E7BF931F930F932FDFE5
:101F0200ADB7BEB71696ADBFBEBF74C0F101729633
:101F120005911591F801319605911591F8012191DC
:101F220031918E013F932F93B3E0BF93B5E7BF93F7
:101F32001F930F9314DFADB7BEB71696ADBFBEBFEA
:101F420059C0F101729605911591F80131960591EA
:101F52001591F80121913191419151918E015F9337
:101F62004F933F932F93B3E0BF93B8E6BF931F9372
:101F72000F9354DEADB7BEB71896ADBFBEBF3AC021
:101F8200F101729605911591F8013196059115911D
:101F9200F80121913191419151918E015F934F93BB
:101FA2003F932F93B3E0BF93BFE3BF931F930F936E
:101FB20035DEADB7BEB71896ADBFBEBF1BC01AC0E7
:101FC20018892989E12FF22F0491013009F482CF77
:101FD200E12FF22F0491023009F498CFE12FF22F72
:101FE2000491043009F4ADCFE12FF22F04910830AF
:101FF20039F2E5CF8E012801BDE03B2EB1E02B2E58
:1020020042DE5F904F903F902F906196CDBFDEBF32
:06201200DF91CF9108955B
:1022BA002F923F924F9280E308EE11E020163106EA
:1022CA0039F0B0E03B1611F4B0E02B1609F001C06A
:1022DA000BC1F10172962591359109E313E020179C
:1022EA00310749F0F101729605911591103009F400
:1022FA00003009F001C0F8C0F101729605911591FC
:10230A00F801319605911591103009F4003009F45D
:10231A00EBC0F101729605911591F801339604917B
:10232A00003058F1F101729605911591F801339632
:10233A00149107E0011708F1F10172963591459160
:10234A00E32FF42F319605911591F8012081E32F9F
:10235A00F42F33960491B02F01E010E0BB2321F053
:10236A00000F111FBA95E1F702231070B02FB12B9D
:10237A0011F001E301C0082FB0C0F1017296059176
:10238A001591F80133960491083050F1F1017296D3
:10239A0005911591F801339614910FE0011700F198
:1023AA00F101729645915591FA013196059115916F
:1023BA00F80121913191FA0133960491B02F01E08D
:1023CA0010E0BB2321F0000F111FBA95E1F7022399
:1023DA001323B02FB12B11F001E301C0082F7DC0E8
:1023EA00F101729605911591F80133960491003125
:1023FA00A0F1F101729605911591F80133961491A5
:10240A000FE1011750F1F101729625913591F90109
:10241A00319605911591F80141915191619171910E
:10242A00F90133960491B02F01E010E020E030E08A
:10243A00BB2331F0000F111F221F331FBA95D1F7AA
:10244A000423152326233723B02FB12BB22BB32B0A
:10245A0011F001E301C0082F40C0F1017296059105
:10246A001591F801339604910032A0F1F1017296A8
:10247A0005911591F801339614910FE3011760F154
:10248A00F101729625913591F901319605911591CF
:10249A00F8014191519161917191F9013396049139
:1024AA00B02F01E010E020E030E0BB2331F0000F54
:1024BA00111F221F331FBA95D1F704231523262390
:1024CA003723B02FB12BB22BB32B11F001E301C08C
:1024DA00082F01C0082F01C0082F402EBFE03B2E55
:1024EA00B1E02B2E0E949D074F903F902F900895A8
:0024FA00E2
:101E2E002F923F924F925F92BAE04B2EB2E05B2E12
:101E3E00B9E03B2EB1E02B2E20DF5F904F903F900C
:041E4E002F90089534
:101DE0002F923F924F925F92B3E14B2EB2E05B2E67
:101DF000B9E03B2EB1E02B2E47DF5F904F903F9034
:041E00002F90089582
:102AF0002F923F9220920002309201022090080211
:0C2B0000309009025BDE3F902F9008959A
:102BD0002F923F9220921C0230921D0220900802F8
:0C2BE00030900902EBDD3F902F9008952B
:103084002F923F9220920202309203022090080273
:0C3094003090090291DB3F902F900895CE
:1030A0002F923F924F925F926F926624B6E95B2E09
:1030B0004424B3E22B2EB0E03B2EDADB002311F0E8
:1030C00001E047C06624B6E95B2EB1E04B2EB3E2C7
:1030D0002B2EB0E03B2ECCDB002311F002E039C0F8
:1030E0006624B6E95B2EB2E04B2EB3E22B2EB0E0A5
:1030F0003B2EBEDB002311F003E02BC06624B6E9B3
:103100005B2EB3E04B2EB3E22B2EB0E03B2EB0DBB8
:10311000002311F006E01DC06624B6E95B2EB4E082
:103120004B2EB3E22B2EB0E03B2EA2DB002311F09E
:1031300005E00FC06624B6E95B2EB5E04B2EB3E286
:103140002B2EB0E03B2E94DB002311F004E001C0F5
:0E31500000E06F905F904F903F902F90089599
:10287000CF93DF93CDB7DEB72297CDBFDEBF2196D2
:10288000B0E0B983B42D11E0BB2319F0110FBA9554
:10289000E9F71883F101008101230023B0E009F476
:1028A000B1E00B2F0625B1F000E0051530F4AADAEF
:1028B000A9DA052D0150502EF7CFF10110810881C2
:1028C00001230023B0E009F4B1E00B2F062511F03D
:1028D000BFEFB98309812196CDBFDEBFDF91CF91D4
:0228E000089559
:101E04001BE008E50A95F1F71A95E1F7000008953B
:001E1400CE
:0A2F50000091080210910902089593
:102F5A00CF93DF93CDB7DEB72297CDBFDEBF2196E1
:102F6A000091080210910902113009F4083E49F053
:102F7A000091080210910902103009F4003009F09A
:102F8A0001C010C00091080210910902F8013A9696
:102F9A000591159108831983B02FB12B19F0E88197
:102FAA00F98109952196CDBFDEBFDF91CF910895B2
:002FBA0017
:102FBA00CF93DF93CDB7DEB72297CDBFDEBF219681
:102FCA00B1E03B1611F4B8EE2B1639F0B0E03B161F
:102FDA0011F4B0E02B1609F001C03BC0F1013E9696
:102FEA0005911591B02FB12B39F0F1013E9605915B
:102FFA001591F80109952DC0F10172960591159167
:10300A00088319830AC025C067DC23C01EDB21C0E0
:10301A001CDB1FC06DDA1DC01CC018812981E12F7D
:10302A00F22F0491003079F3E12FF22F049101304D
:10303A0059F3E12FF22F0491023041F3E12FF22FDD
:10304A000491033029F3E12FF22F0491043011F394
:0E305A00E3CF2196CDBFDEBFDF91CF91089569
:1028E200B1E03B1611F4B8EE2B1639F0B0E03B160E
:1028F20011F4B0E02B1609F001C0F8C000915E029D
:1029020010915F02B02FB12B31F0E0915E02F09195
:102912005F020995EBC0F101729605911591133092
:1029220009F4093349F0F1017296059115911030BD
:1029320009F4003009F001C0D9C0F1017296059185
:102942001591F801319605911591B02FB12B09F42B
:10295200CDC0F101729605911591F801339604915B
:10296200003010F1F101729605911591F80133963C
:10297200149107E00117C0F0F101729605911591CB
:10298200F801319625913591F80133960491B02FD3
:1029920011E0BB2319F0110FBA95E9F7F901008193
:1029A2000127F9010083A2C0F101729605911591E8
:1029B200F80133960491083038F1F10172960591CD
:1029C2001591F801339614910FE00117E8F0F10127
:1029D200729605911591F801319645915591F8013C
:1029E20033960491B02F21E030E0BB2321F0220F77
:1029F200331FBA95E1F7FA010191119102271327CA
:102A0200FA010193119372C0F10172960591159129
:102A1200F80133960491003180F1F101729605912B
:102A22001591F801339614910FE1011730F1F1017C
:102A3200729605911591F801319665917591F8019B
:102A420033960491B02F41E050E0BB2321F0440FB4
:102A5200551FBA95E1F7FB01019111912191319135
:102A620004271527B0E057FDBFEF2B273B27FB01BB
:102A7200019311932193319339C0F101729605911B
:102A82001591F80133960491003280F1F1017296AA
:102A920005911591F801339614910FE3011730F166
:102AA200F101729605911591F80131966591759132
:102AB200F80133960491B02F41E050E0BB2321F09E
:102AC200440F551FBA95E1F7FB0101911191219134
:102AD200319104271527B0E057FDBFEF2B273B2785
:0E2AE200FB01019311932193319300C00895DD
:10265400B1E03B1611F4B8EE2B1639F0B0E03B169E
:1026640011F4B0E02B1609F001C09DC000910402E2
:1026740010910502B02FB12B31F0E0910402F091DA
:102684000502099590C0F1017296059115911330D8
:1026940009F4093349F0F10172960591159110304E
:1026A40009F4003009F001C07EC0F1017296059171
:1026B4001591F801319605911591B02FB12B09F4BC
:1026C40072C0F101729605911591B8016D5F7F4F4B
:1026D40056C0F101729605911591F8013196159144
:1026E4002591E12FF22F0081040DE12FF22F0083B9
:1026F4005AC0F101729605911591F8013196259110
:102704003591F90101911191040D151DF901019300
:10271400119349C0F101729605911591F801319612
:1027240045915591FA010191119121913191040D35
:10273400151DB0E057FCBFEF2B1F3B1FFA0101939F
:102744001193219331932FC0F10172960591159144
:10275400F801319645915591FA0101911191219118
:102764003191040D151DB0E057FCBFEF2B1F3B1F2B
:10277400FA01019311932193319315C014C0FB0105
:102784000491013009F4A5CFFB010491023009F44E
:10279400B0CFFB010491043009F4BCCFFB010491D8
:0827A400083091F2EBCF08951B
:1024FA00CF93DF93CDB7DEB72897CDBFDEBF219646
:10250A00B1E03B1611F4B8EE2B1639F0B0E03B16E9
:10251A0011F4B0E02B1609F001C091C000911E021F
:10252A0010911F02B02FB12B31F0E0911E02F091F1
:10253A001F02099584C0F101729605911591133015
:10254A0009F4093349F0F101729605911591103099
:10255A0009F4003009F001C072C0F10172960591C8
:10256A001591F801319605911591B02FB12B09F407
:10257A0066C0F1017296059115910D5F1F4F0E838A
:10258A001F834FC0F101729605911591F80131969A
:10259A00459155918A010C831D83FA01019111918C
:1025AA0021913191088319832A833B83820120E098
:1025BA0057FC2FEF322F29DC488159816A817B81B0
:1025CA0027DC4C815D81FA010193119321933193A8
:1025DA0036C0F101729605911591F801319645912F
:1025EA0055918A010C831D83FA0101911191219160
:1025FA003191088319832A833B83820120E057FCA7
:10260A002FEF322F02DC488159816A817B8100DCFD
:10261A004C815D81FA0101931193219331930FC08B
:10262A000EC01E812F81E12FF22F0491043009F48C
:10263A00A9CFE12FF22F0491083059F2F1CF279652
:0A264A00CDBFDEBFDF91CF910895F0
:061E1400E894DADF0895F6
:101DCC0047E16627552726F0332312F419DF60E824
:041DDC00E7D80895A7
:101C0C0000951095209530950F5F1F4F2F4F3F4F2C
:021C1C00089529
:100FAC0007DA11F19F938F938EE790E0332351F082
:100FBC00369527951795079548175907B4F44F5F41
:100FCC005F4FF4CF80959095019622239AF0000FF5
:100FDC00111F221F481759071CF041505040F5CFE4
:100FEC00002711272227332708C033270FEF102F94
:0C0FFC002FE7322F8F919F91D1D90895DB
:1003BC00002329F4112319F4222309F4332308957B
:0003CC0031
:1003A80009D039F041585F4F342F220F36952795E1
:0403B800362B089543
:101E1A00042E152E262E372E9BDF002E112E222E53
:041E2A00332E0895B6
:061D5A00E894F8DE089594
:101B4E000E94040209F443C0E62ED52EC42EB32EF5
:101B5E00A22E912E802E002D112D222D332D0E947E
:101B6E00040209F43FC0842F952F8C199D09B9F0FA
:101B7E0072F49095809501964C2D5D2D883190F5DF
:101B8E0035952795179507950197D1F708C0883198
:101B9E00F0F4B594A794979487940197D1F766279C
:101BAE002EF0080D191D2A1D3B1D09C0801A910A21
:101BBE00A20AB30A082D192D2A2D3B2D332312F418
:101BCE001ED060E8ECD902C00E94D40117C0002DCF
:101BDE00112D222D332DD6F70E94DE01B9F340E8E8
:101BEE003427F4CF082D192D2A2D3B2D4C2D5D2D8C
:0E1BFE006E2D33234AF703D060E8E6CF08953A
:10040800BADF29F0662311F00E94060E9894089529
:00041800E4
:10037E001ED079F0632F6078220F331F432F5FE773
:10038E00451B55275040269530E8232B332798944C
:0A039E0003C0442755276627089581
:102BF600CF93DF93CDB7DEB72297CDBFDEBF219649
:102C0600B1E03B1611F4B8EE2B1639F0B0E03B16E6
:102C160011F4B0E02B1609F001C07AC0F1013C9620
:102C260005911591B02FB12B39F0F1013C96059124
:102C36001591F80109956CC0F101729605911591EF
:102C4600133009F4093349F0F10172960591159193
:102C5600103009F4003009F001C05AC0F101729633
:102C6600059115910883198336C052C0009102025E
:102C760010910302B02FB12B29F0E0910202F091DE
:102C86000302099545C000911C0210911D02B02F48
:102C9600B12B29F0E0911C02F0911D02099538C074
:102CA6000091000210910102B02FB12B29F0E091A2
:102CB6000002F091010209952BC0009106021091C5
:102CC6000702B02FB12B29F0E0910602F09107021E
:102CD60009951EC01DC018812981E12FF22F04918C
:102CE600003019F2E12FF22F0491013009F4BECF22
:102CF600E12FF22F0491023031F2E12FF22F0491ED
:102D0600033071F2E12FF22F04910430B1F2E2CFD9
:0C2D16002196CDBFDEBFDF91CF91089564
:0A2BEC0005900D920197E1F708959E
:10327600A0E0B2E0E4EEF0E084E690E00E94F6150D
:023286000895A9
:1002240010024C02E8013802000000000000000047
:04023400B5023903D3
:100210004C022402E801FC01000000000000000084
:04022000D7023903C5
:1002A4004D656E7520312020202020202020202024
:0102B4000049
:10024C0024021002E801E801170FF00E0000000074
:04025C00A4023903BC
:10023800E801E8012402E8010000000007110000BD
:04024800E80239038C
:1002B5004D656E7520322020202020202020202012
:0102C5000038
:1002E8004D656E75203231202020202020202020CE
:0102F8000005
:1001FC00C001D4011002E801000000000000000062
:04020C00C6025D03C6
:1002D7004D656E75203320202020202020202020EF
:0102E7000016
:1001C000D401FC011002E801000000000000000062
:0401D000F9024B03E2
:1001D400FC01C0011002E801000000000000000062
:0401E4000A035703B0
:06035D00012E0005000066
:1002C6004564697420626974202020202020202043
:0102D6000027
:06034B0003280001000080
:1002F90045646974207369676E6564202020202035
:0103090000F3
:0603570002280001000075
:10030A004564697420756E7369676E202020202009
:01031A0000E2
:1001E8000000000000000000000000000000000007
:0401F8000000000003
:06033900000000000000BE
:0403710025346400CB
:04036D0025346400CF
:0503630025344C64008C
:0603450025344C4C64005D
:06035100693D2536640041
:0403790025347500B2
:0403750025347500B6
:0503680025344C750076
:06033F0025344C4C750052
:0A03270001000A006400E80310273B
:080331000100100000010010A2
:0C031B00010008004000000200100080FB
:1002710030313233343536373839414243444546DB
:01028100007C
:10028200303132333435363738396162636465660A
:01029200006B
:10017800010000000A00000064000000E80300001D
:1001880010270000A086010040420F0080969800CA
:0801980000E1F50500CA9A3BE5
:1001A000010000001000000000010000001000002D
:1001B000000001000000100000000001000000101D
:10014800010000000800000040000000000200005C
:1001580000100000008000000000040000002000E3
:10016800000000010000000800000040000000003E
:1002930030313233343536373839414243444546B9
:0102A300005A
:10026000303132333435363738396162636465662C
:01027000008D
:0200E40000001A
:0200E600000018
:0200E800000016
:0200EA00000014
:0200EC00E80129
:0900EE002053454C454354200009
:0900F70020454E54455220200022
:020100000000FD
:020102000000FB
:050104006E756C6C003B
:100109006E6F6E2D666C6F6174207072696E7466A5
:0101190000E5
:05011A006E756C6C0025
:10011F006E6F6E2D666C6F6174207072696E74668F
:01012F0000CF
:100130006E6F6E2D6C6F6E67207072696E746600E4
:020140000000BD
:020142000000BB
:020144000000B9
:02014600640053
:00000001FF
