:04000000A031F02912
:0A00060000000000000000000800E8
:0C0010004230FD00FD0B0A280000080033
:10001C001D30FC009130FD00FD0B1228FC0B12284A
:02002C000800CA
:10002E002100E51B1D2820008F111F2820008F1591
:10003E002100651B252820000F11272820000F15F1
:10004E002100E51A2D2820008F102F2820008F1454
:10005E002100651A352820000F10372820000F14B4
:10006E006A183B280F163C280F128F1603208F128A
:10007E002100E519452820008F11472820008F15F3
:10008E00210065194D2820000F114F2820000F1553
:10009E002100E518552820008F10572820008F14B6
:1000AE00210065185D2820000F105F2820000F1416
:1000BE006A1863280F1664280F128F1603208F12EA
:0C00CE006A1C6B280E206C28082008001B
:1000DA0091282000E6152100E50A0319E60AC52839
:1000EA00200066142100E50A0319E60AC528200043
:1000FA00E6142100E50A0319E60AC5282000E715D7
:10010A002100E50A0319E60AC52820006615210020
:10011A00E50A0319E60AC52821006508840066086D
:10012A0085000008F10071082D3A03196E28650848
:10013A008400660885000008F1007108203A031956
:10014A00752865088400660885000008F1007108B2
:10015A002B3A03197C286508840066088500000884
:10016A00F1007108233A0319832865088400660898
:10017A0085000008F1007108303A03198A28C62858
:10018A006D282000E61CCA286610E61DCD286611D7
:0C019A0021006508F0006608F100080074
:1001A60021006508393C031CDF2830306502031C3A
:0C01B600DF280130F000E028F001080014
:1001C2002000FB01FA01F9018030F800F10CF00C7B
:1001D200031CF4287408F90775080318750FFA0749
:1001E2000318FB0A0310F01FFC287408FA077508AD
:1001F2000318750FFB07FB0CFA0CF90CF80C031C27
:10020200E7287B08F3007A08F2007908F100780801
:04021200F0000800F0
:100216002000661D8429E61C2629661C15292D301A
:10022600F30017292B30F3002100650886006608C5
:10023600870073088100E50A0319E60A2000E80A28
:100246000319E90A6829661C372921006508860012
:100256006608870020308100E50A0319E60A2000B7
:10026600E80A0319E90A6829C0306605F10067083B
:100276000839F2007208083A031D432980307106D6
:10028600031D68292100650886006608870030304E
:100296008100E50A0319E60A2000E80A0319E90ABB
:1002A600E61E58295830F4005A297830F400210007
:1002B600650886006608870074088100E50A031948
:1002C600E60A2000E80A0319E90A210024082504A1
:1002D6000319832965088600660887003030810087
:1002E600E50A0319E60A2000E80A0319E90A0130BB
:1002F6002100A4020030A53B24082504031D6D2916
:100306001A2A2100240825040319A3292000E61926
:10031600A329210065088600660887002030810031
:10032600E50A0319E60A2000E80A0319E90A01307A
:100336002100A4020030A53B24082504031D8C29B6
:100346002000E61CBC29661CAB292D30F500AD2922
:100356002B30F500210065088600660887007508C1
:100366008100E50A0319E60A2000E80A0319E90AEA
:10037600CC29661CCC292100650886006608870002
:1003860020308100E50A0319E60A2000E80A03196D
:10039600E90AC0306605F10067080839F2007208FC
:1003A600083A031DD82940307106031DE9292100AA
:1003B600650886006608870030308100E50A031963
:1003C600E60A2000E80A0319E90A1A2AC030660577
:1003D600F10067080839F2007208083A031DF5298A
:1003E60080307106031D1A2A2100650886006608FA
:1003F600870030308100E50A0319E60A2000E80A82
:100406000319E90AE61E0A2A5830F6000C2A783043
:10041600F6002100650886006608870076088100D8
:10042600E50A0319E60A2000E80A0319E90A8030FA
:10043600F0008030210023067002031D242A2208C2
:1004460026020318342A65088600660887003030BD
:100456008100E50A0319E60A2000E80A0319E90AF9
:0E0466001A2A21006508F0006608F10008005F
:100474002000F801F9011030FC00710DF80DF90DA0
:100484007408F8027508031C750FF9020318512A41
:100494007408F80775080318750FF9070310F00DB1
:0804A400F10DFC0B3F2A0800DA
:1004AC00712A2100A715E50A0319E60AA52A2714C3
:1004BC00E50A0319E60AA52AA714E50A0319E60AB0
:1004CC00A52AA815E50A0319E60AA52A2715E50A9F
:1004DC000319E60AA52A2100650884006608850030
:1004EC000008F10071082D3A0319572A6508840099
:1004FC00660885000008F1007108203A03195D2A8E
:10050C0065088400660885000008F10071082B3A24
:10051C000319622A65088400660885000008F1004A
:10052C007108233A0319672A650884006608850058
:10053C000008F1007108303A03196C2AA62A562AD1
:10054C00A71CA92A2710A71DAC2A27116508F000A3
:06055C006608F100080032
:100562002100271D292BA71CCB2A271CBB2A2D3093
:10057200F300BD2A2B30F300650886006608870069
:1005820073088100E50A0319E60A2000ED0A03193F
:10059200EE0A0D2B2100271CDC2A6508860066085E
:1005A200870020308100E50A0319E60A2000ED0ADF
:1005B2000319EE0A0D2BC03021002705F10028088F
:1005C2000839F2007208083A031DE92A80307106E0
:1005D200031D0D2B650886006608870030308100F8
:1005E200E50A0319E60A2000ED0A0319EE0A2100C2
:1005F200A71EFE2A5830F400002B7830F40065085C
:1006020086006608870074088100E50A0319E60A75
:100612002000ED0A0319EE0A20006B086C0403198E
:10062200282B21006508860066088700303081008B
:10063200E50A0319E60A2000ED0A0319EE0A013061
:10064200EB020030EC3B6B086C04031D122BBD2B3C
:1006520020006B086C040319472B2100A719472BB4
:100662002100650886006608870020308100E50ABF
:100672000319E60A2000ED0A0319EE0A0130EB0223
:100682000030EC3B6B086C04031D312B2100A71CCE
:100692005F2B271C4F2B2D30F500512B2B30F500F3
:1006A200650886006608870075088100E50A031957
:1006B200E60A2000ED0A0319EE0A6F2B2100271C1F
:1006C2006F2B650886006608870020308100E50AE6
:1006D2000319E60A2000ED0A0319EE0AC0302100D0
:1006E2002705F10028080839F2007208083A031DAC
:1006F2007C2B40307106031D8C2B65088600660832
:10070200870030308100E50A0319E60A2000ED0A6D
:100712000319EE0ABD2BC03021002705F10028087D
:100722000839F2007208083A031D992B80307106CD
:10073200031DBD2B650886006608870030308100E6
:10074200E50A0319E60A2000ED0A0319EE0A210060
:10075200A71EAE2B5830F600B02B7830F600650895
:1007620086006608870076088100E50A0319E60A12
:100772002000ED0A0319EE0A8030F00080302100DB
:1007820021067002031DC82B200820006F020318E7
:10079200D92B210065088600660887003030810069
:1007A200E50A0319E60A2000ED0A0319EE0ABD2B39
:0C07B20021006508F0006608F100080056
:1007BE002000FB01FA01F901F801A001730DF80DFB
:1007CE007408F8027508031C750FF9027608031CED
:1007DE00760FFA027708031C770FFB020001031C49
:1007EE000130A002F30D0730FC00730DF80DF90D6A
:1007FE00FA0DFB0DA00D7408731C172CF80275086A
:10080E00031C750FF9027608031C760FFA0277089F
:10081E00031C770FFB020001031C0130A002282CE1
:10082E00F80775080318750FF90776080318760F81
:10083E00FA0777080318770FFB070001031801303A
:10084E00A007F30DFC0BFC2B720DF80DF90DFA0D34
:10085E00FB0DA00D7408731C462CF8027508031CC2
:10086E00750FF9027608031C760FFA027708031C3F
:10087E00770FFB020001031C0130A002572CF80772
:10088E0075080318750FF90776080318760FFA071F
:10089E0077080318770FFB07000103180130A00734
:1008AE00F20D0730FC00720DF80DF90DFA0DFB0D6F
:1008BE00A00D7408721C752CF8027508031C750FB8
:1008CE00F9027608031C760FFA027708031C770FDD
:1008DE00FB020001031C0130A002862CF8077508EC
:1008EE000318750FF90776080318760FFA077708BD
:1008FE000318770FFB07000103180130A007F20D54
:10090E00FC0B5A2C710DF80DF90DFA0DFB0DA00D07
:10091E007408721CA42CF8027508031C750FF902DA
:10092E007608031C760FFA027708031C770FFB027A
:10093E000001031C0130A002B52CF807750803183E
:10094E00750FF90776080318760FFA07770803185C
:10095E00770FFB07000103180130A007F10D0730D8
:10096E00FC00710DF80DF90DFA0DFB0DA00D7408BC
:10097E00711CD32CF8027508031C750FF90276084A
:10098E00031C760FFA027708031C770FFB02000197
:10099E00031C0130A002E42CF80775080318750F2C
:1009AE00F90776080318760FFA0777080318770FFA
:1009BE00FB07000103180130A007F10DFC0BB82C4A
:1009CE00700DF80DF90DFA0DFB0DA00D7408711CCC
:1009DE00022DF8027508031C750FF9027608031C28
:1009EE00760FFA027708031C770FFB020001031C37
:1009FE000130A002132DF80775080318750FF907BB
:100A0E0076080318760FFA0777080318770FFB0797
:100A1E00000103180130A007F00D0730FC00700D27
:100A2E00F80DF90DFA0DFB0DA00D7408701C312D8B
:100A3E00F8027508031C750FF9027608031C760F71
:100A4E00FA027708031C770FFB020001031C01302A
:100A5E00A002422DF80775080318750FF9077608DE
:100A6E000318760FFA0777080318770FFB070001B4
:100A7E0003180130A007F00DFC0B162D7018552D24
:100A8E007408F80775080318750FF9077608031828
:0E0A9E00760FFA0777080318770FFB0708009A
:100AAC00672D80302100DA00792DC030DA00792DE5
:100ABC009430DA00792DD430DA00792D8030DA00D8
:100ACC00792D21005A08013A0319572D5A08023A78
:100ADC0003195B2D5A08033A03195E2D5A08043A80
:100AEC000319612D642D5B03F0005A08F0077008A0
:100AFC00DA0020006A1470082100E50017206A1043
:0C0B0C0021005C08E50017206A140800B6
:100B180020006A1021005A08E50017206A1408000E
:100B2800210050088400510885000008F000700872
:100B38000319C22D4E08DA004F08DB005008840064
:100B4800510885000008DC0056252100D00A031949
:100B5800D10A50088400510885000008F000700888
:100B68000319C22D50088400510885000008DA00D6
:0E0B78008C252100D00A0319D10AAD2D0800EA
:100B8600FB14FB1FCD2DFF30F300F200F100F00047
:080B9600FA0DF20CFF3008001B
:100B9E00D2302100D6000030D7004E08DA004F08C0
:100BAE00DB005008DC005108DD00D630DE000030DE
:100BBE00DF0090310020803170082100D4007108D0
:100BCE00D50070084E07860071084F3D87008101E1
:0A0BDE005408F0005508F10008006B
:080BE800FA1FF21300300800AF
:100BF000D2302100D8000030D9004E08DA004F086A
:100C0000DB005008DC005108DD00D830DE00003089
:100C1000DF0088310020803170082100D600710883
:100C2000D70070084E07860071084F3D870081018C
:0A0C30005608F0005708F100080014
:0E0C3A00F201F101F001F801F30100300800B1
:100C48007B15FB1F2E2E0130F300F201F101F0019C
:080C5800FA0DF20CFF30080058
:100C6000412E80302100CE00532EC030CE00532EB6
:100C70009430CE00532ED430CE00532E8030CE0090
:100C8000532E21004E08013A0319312E4E08023A24
:100C90000319352E4E08033A0319382E4E08043A2C
:100CA00003193B2E3E2E4F03F0004E08F00770084C
:100CB000CE007008E50017206A102100D20152080A
:100CC000500784000030513D850000080319742E40
:100CD0005208500784000030513D85000008DA00BA
:0E0CE0008C252100D20A5F2E20006A14080025
:100CEE00A1017208031D8C2E7108F2007008F1002C
:100CFE00F001A1157208031D8C2E7108F200F1018E
:100D0E00A1112116720803199A2E2108F302031D50
:100D1E00031C9E2E0310F21BA22EF00DF10DF20DF0
:100D2E00F30B922E9E2E0130FC001D26A52E0230B6
:0E0D3E00FC002426A52E0430FC00F42508003D
:100D4C007C18DC2EFC18AD2E7C19FB2EA62EA101D6
:100D5C007208031DCD2E7108F2007008F10078089E
:100D6C00F000F801A1157208031DCD2E7108F200D8
:100D7C007008F100F001A11121167208031DCD2E8F
:100D8C007108F200F101A11572080319EF2E210868
:100D9C00F302031D031CF32E0310F21BDC2EF80DC3
:100DAC00F00DF10DF20DF30BD32EF32E7B1B701CFB
:100DBC00F72EF81FF72EF00A0319F10A0319F20A9D
:100DCC00031DF72EF20CF10CF00CF30A0319FB2E99
:100DDC00F72E0130FC001D26FE2E0230FC002426CE
:100DEC00FE2E0430FC00F425FE2E0830FC00C3253A
:040DFC0000000800EB
:100E00002100380839040319172F380884003908DD
:100E100085000008F00070080319172F0130CE007C
:100E20000130CF003808D0003908D10094250800DF
:100E3000D030F100A330F200210039087206031D02
:100E4000232F7108380603192E2F00303906031D91
:100E50002B2F0030380603192E2F2F2F702F18300C
:100E6000380784000030393D85000008F00001316A
:100E70000008F100700871040319522F1830380768
:100E800084000030393D85000008F0000131000881
:100E9000F10070088400710885000008F0007008F7
:100EA0000319522FBA30CE000030CF005230D0009C
:100EB000A530D10020005A082100D20020005B0894
:100EC0002100D300CF250130CE000930CF00BA3049
:100ED000D0000030D10030260130DA020030DB3B98
:020EE000080008
:100EE20001302100CE000930CF003A30D00000306E
:060EF200D10030260800CB
:100EF80001302100CE000930CF004330D00000304F
:060F0800D10030260800B4
:100F0E0020007008F8007108F000F101F201F30101
:100F1E00FB01FC019630F300FA01F01F9C2FF8093B
:100F2E00F009F80A0319F00AFA177008F1007808A8
:0A0F3E00F000F801F2017726080028
:0A0F480071088A007008820008009A
:100F52000330FC009530FD00FD0BAD2FFC0BAD2FD7
:020F6200080085
:100F64002100B6013208F1000130F00071080319C4
:100F7400BE2FF035FF3EB92F7008B500300884004D
:100F84003108850070080005F10071080130031D67
:100F94000030F0003408F0060319EA2F3308003C4F
:100FA4000318D82FA927A927B303D02F300884000A
:100FB4003108850035080005F10071080130031D72
:100FC4000030F0003408F0060319EA2FFF30B600B1
:060FD4003608F0000800E1
:100FDA0012001E00F003031DED2FF103031DED2F78
:020FEA000800FD
:0C0FEC0020004C08F0004D08F100080047
:101000002000ED01EE012100A701A80121005C08EC
:10101000F0005D08F100DC0A0319DD0A70088400A5
:10102000710885000008F00070082000EF007008CB
:101030000319212E6F08253A03192F2821005A0879
:1010400086005B08870020006F0881002100DA0A13
:101050000319DB0A2000ED0A0319EE0A0628EB014A
:10106000EC012100A701A8015C08E5005D08E6008D
:101070008031562288317008DC007108DD0070086C
:101080008400710885000008F0000030F10070084D
:10109000E5008031D32088317008031985282000AD
:1010A000EB01EC0120006B08F0006C08F1000A3045
:1010B000F4000030F5008031E120883121005C0827
:1010C00084005D0885000008F200720870072000A7
:1010D000EB000030713DEC003030EB020030EC3BB7
:1010E0002100DC0A0319DD0A5C0884005D08850024
:1010F0000008F0000030F1007008E5008031D320D6
:1011000088317008031D5228BA285C0884005D08E5
:1011100085000008F10071082A3A031DBA285E080C
:1011200084005F0885000008F00001310008F1002C
:10113000700884007108850000082000EB00013170
:101140000008EC0021005E0884005F088500023082
:101150000007F00000300131003DF1005E0886001C
:101160005F08870070088100710841318100DC0A46
:101170000319DD0A5C0884005D0885000008F100A1
:1011800071082E3A031D2E29DC0A0319DD0A5C08BA
:1011900084005D0885000008F10071082A3A031DEB
:1011A000FB285E0884005F0885000008F00001311C
:1011B0000008F10070088400710885000008A00094
:1011C00001310008A1005E0884005F08850002303C
:1011D0000007F00000300131003DF1005E0886009C
:1011E0005F08870070088100710841318100DC0AC6
:1011F0000319DD0A2D29A001A1015C0884005D0806
:1012000085000008F0000030F1007008E500803132
:10121000D3208831700803192D292008F0002108F7
:10122000F1000A30F4000030F5008031E12088310F
:1012300021005C0884005D0885000008F200720847
:101240007007A0000030713DA1003030A0020030D6
:10125000A13BDC0A0319DD0AFD283029A001A10108
:101260005C08F0005D08F100DC0A0319DD0A700873
:1012700084007108850000082000EF00642A6D08D2
:10128000F0006E08F100262E2100271630292100DB
:101290002717962A962A2100A7162100A717962A13
:1012A00021005E0884005F0885000008F00001311D
:1012B0000008F10070088400710885000008E00053
:1012C00001310008E1005E0884005F0885000230FB
:1012D0000007F00000300131003DF1005E0886009B
:1012E0005F0887007008810071084131810000307B
:1012F0006106031D7D2900306006031D83295C30D3
:10130000E0000030E100E201E301620860078400D0
:101310006308613D850000080319992901306207BF
:10132000F0000030633DF1007008E2007108E30056
:101330008529200821040319A92963082102031D16
:10134000A329620820020318A9292008E200210825
:10135000E30020006C0821006302031DB329200074
:101360006B08210062020318BD2962082000EB020D
:10137000210063082000EC3BC0292000EB01EC01B8
:101380002100A719DF2920006B08F0006C08F1008C
:101390000130EB020030EC3B700871040319DF29C7
:1013A00021005A0886005B08870020308100DA0A95
:1013B0000319DB0A2000ED0A0319EE0AC3292100F4
:1013C0006208F2006308F30001306202F0000030AE
:1013D000633BF1007008E2007108E30072087304D7
:1013E00003190E2A60088400610885005A088600E7
:1013F0005B08870000088100DA0A0319DB0A013064
:101400006007F0000030613DF1007008E0007108F5
:10141000E1002000ED0A0319EE0ADF292100A71DD3
:101420002D2A20006B08F0006C08F1000130EB025F
:101430000030EC3B7008710403192D2A21005A0872
:1014400086005B08870020308100DA0A0319DB0A76
:101450002000ED0A0319EE0A112A062821005E0871
:1014600084005F0885000008F00001310008F100E9
:10147000700884007108850000082000EF0021003A
:101480005E0884005F08850002300007F00000302D
:101490000131003DF1005E0886005F08870070089A
:1014A000810071084131810021006F30E00000307F
:1014B000E1000130E2000030E30099292100C03052
:1014C000A7040030A804962A20006F08003A0319E8
:1014D0003F296F086C3A031944296F084C3A0319E5
:1014E00044296F086F3A031947296F08643A0319B2
:1014F0004A296F08693A03194A296F08703A031993
:101500004B296F08583A03194B296F08783A031989
:101510004D296F08733A031950296F08633A03196C
:101520002E2A6F08753A03195E2A542AC03021000A
:101530002705F1002808F2000030F205003072069D
:10154000031DA42A00307106031D342B271ED52A43
:101550005E0884005F0885000008F0000131000883
:10156000F10070088400710885000008E000013176
:101570000008E10001310008E20001310008E30049
:101580005E0884005F08850004300007F00000302A
:101590000131003DF1005E0886005F088700700899
:1015A0008100710841318100082B5E0884005F08CA
:1015B00085000008F00001310008F1007008840087
:1015C000710885000008F00001310008F1000030CA
:1015D000F11BFF30F200F3007008E0007108E10039
:1015E0007208E2007308E3005E0884005F0885006B
:1015F00002300007F00000300131003DF1005E08CC
:1016000086005F0887007008810071084131810001
:1016100080306306F00080307002031D192B00300B
:101620006202031D192B00306102031D192B0030CB
:1016300060020318332B0330A7040030A804F00124
:10164000F101F201F3016008F0026108F13B620868
:10165000F23B6308F33B7008E0007108E100720898
:10166000E2007308E3008B2B271E632B5E088400C7
:101670005F0885000008F00001310008F1007008E3
:101680008400710885000008E00001310008E100D5
:1016900001310008E20001310008E3005E08840027
:1016A0005F08850004300007F00000300131003D84
:1016B000F1005E0886005F088700700881007108ED
:1016C000413181008B2B5E0884005F088500000893
:1016D000F00001310008F1007008840071088500F5
:1016E0000008E00001310008E100E201E3015E08CA
:1016F00084005F08850002300007F00000300131EF
:10170000003DF1005E0886005F08870070088100D8
:1017100071084131810000302106031D912B0030FA
:101720002006031DA72B0030F0006306031DA22B2B
:1017300070086206031DA22B70086106031DA22B10
:101740006008003A031DA72BA00A0319A10AC030A4
:101750002705F0007008F5004C2C01302000EF0048
:101760006F080A3A0319E12B6F08F000F101F03518
:10177000F10DF035F10D503070078400A330713D4C
:1017800085000008F10001310008F2000131000875
:10179000F30001310008F400740821006302031D06
:1017A000DB2B73086202031DDB2B72086102031D31
:1017B000DB2B710860020318DE2BE12B2000EF0AFF
:1017C000B02B5C2C20000130EF006F08083A0319A1
:1017D000162C6F08F000F101F035F10DF035F10D28
:1017E000783070078400A330713D85000008F10057
:1017F00001310008F20001310008F3000131000856
:10180000F400740821006302031D102C73086202A7
:10181000031D102C72086102031D102C7108600258
:101820000318132C162C2000EF0AE52B5C2C20004B
:101830000130EF006F080C3A03194B2C6F08F000D1
:10184000F101F035F10DF035F10D20307007840015
:10185000A330713D85000008F10001310008F2005D
:1018600001310008F30001310008F4007408210080
:101870006302031D452C73086202031D452C720888
:101880006102031D452C710860020318482C4B2C83
:101890002000EF0A1A2C5C2C7508003A0319AD2BB6
:1018A0007508C03A0319AD2B7508803A0319E22B6D
:1018B0007508403A0319172C8030F0008030210061
:1018C00021067002031D672C200820006F020318F8
:1018D0006E2C210020082000EF00812C8030210098
:1018E0002106F00080307002031D7A2C20006F0862
:1018F000210020020318812C20006F082100A00085
:10190000A10120006B086C040319972C03302100FF
:101910002705F0002808F1000030F1057008710477
:101920000319972C01302000EB020030EC3B803093
:1019300021002106F000803020006C067002031D9B
:10194000A42C6B08210020020318AF2C21002008D2
:101950002000EB02210021082000EC3BB22C2000EB
:10196000EB01EC01C43021002705F10028080839FB
:10197000F2007208083A031DBF2C40307106031DA7
:10198000CB2C20006B086C040319CA2C0130EB022D
:101990000030EC3BED2CC03021002705F100280879
:1019A0000839F2007208083A031DD82C80307106FD
:1019B000031DED2C8030F000803020006C0670029A
:1019C000031DE42C6B08023C0318EB2C0230EB02E5
:1019D0000030EC3BED2CEB01EC0121005A08E50056
:1019E0005B08E6008031B12288317008DA007108A6
:1019F000DB0021002008F0002108F1000130A002E6
:101A00000030A13B700871040319FB2DC03027057D
:101A1000F0007008E400D92D2008F0002108F10042
:101A2000F035F10DF035F10D503070078400A33022
:101A3000713D85000008F40001310008F500013116
:101A40000008F60001310008F7006008F0006108A6
:101A5000F1006208F2006308F3008031DF2388316F
:101A60000A30F400F501F601F7018031DF238831F7
:101A70007808F0007908F1007A08F2007B08F3009A
:101A800030307007EF00EA2D2100A71E7A2D2008C4
:101A9000F0002108F100F035F10DF035F10D78304E
:101AA00070078400A330713D85000008F400013107
:101AB0000008F50001310008F60001310008F700C8
:101AC0006008F0006108F1006208F2006308F300AA
:101AD0008031DF2388310F30F0050030F105F20549
:101AE000F3059A3070078400A430713D850000082A
:101AF000EF00AD2D21002008F0002108F100F035A5
:101B0000F10DF035F10D783070078400A330713D90
:101B100085000008F40001310008F50001310008DB
:101B2000F60001310008F7006008F0006108F100DC
:101B30006208F2006308F3008031DF2388310F3040
:101B4000F0050030F105F205F305EA307007840076
:101B50009F30713D85000008EF00EA2D210020082C
:101B6000F0002108F100F035F10DF035F10D2030D5
:101B700070078400A330713D85000008F400013136
:101B80000008F50001310008F60001310008F700F7
:101B90006008F0006108F1006208F2006308F300D9
:101BA0008031DF23883107307005EF003030EF07D8
:101BB000EA2D21006408003A03190C2D6408C03A8C
:101BC00003190C2D6408803A0319442D6408403A27
:101BD0000319AE2D21005A0886005B0887002000FB
:101BE0006F0881002100DA0A0319DB0A2000ED0AE0
:101BF0000319EE0AF92C2100A71D202E8030F000D9
:101C0000803020006C067002031D082E6B08003C1B
:101C10000318202E21005A0886005B088700203018
:101C20008100DA0A0319DB0A2000ED0A0319EE0A23
:101C30000130EB020030EC3B6B086C04031D0A2EF4
:0E1C4000062820006D08F0006E08F100080074
:101C4E00D030F100A330F200210039087206031DD6
:101C5E00322E7108380603193D2E00303906031D49
:101C6E003A2E0030380603193D2E3E2E912F1A3093
:101C7E00380784000030393D85000008F30001313B
:101C8E000008F400F930F1009730F2007408720683
:101C9E00031D532E710873060319692E1A30380767
:101CAE0084000030393D85000008F1000131000844
:101CBE00F20000307206031D662E00307106031905
:101CCE00692E6A2E912F1A30380784000030393D64
:101CDE0085000008F00001310008F10001307007A6
:101CEE0084000030713D85000008F10001310008CC
:101CFE00F20000307206031D862E00307106031DA1
:101D0E00892E912F1A30380784000030393D850016
:101D1E000008F00001310008F10003307007CC001C
:101D2E000030713DCD005D2F1A3038078400003031
:101D3E00393D85000008F00001310008F100013046
:101D4E00700784000030713D85000008F0000131FD
:101D5E000008F10070088400710885000008BA00C0
:101D6E000030BA1BFF30BB000030BA1BFF30BB0087
:101D7E00BC30CE000030CF007130D000A530D10085
:101D8E003A08D2003B08D3008031CF258831862F08
:101D9E00BC30CE000030CF006D30D000A530D10069
:101DAE001A30380784000030393D85000008F000F5
:101DBE0001310008F1000130700784000030713DE0
:101DCE0085000008F00001310008F1007008840061
:101DDE00710885000008D20001310008D30080315F
:101DEE00CF258831862FBC30CE000030CF00643036
:101DFE00D000A530D1001A30380784000030393DAC
:101E0E0085000008F00001310008F1000130700774
:101E1E0084000030713D85000008F000013100089B
:101E2E00F10070088400710885000008D2000131AD
:101E3E000008D30001310008D40001310008D5009C
:101E4E008031F8258831862FBC30CE000030CF008F
:101E5E004030D000A530D1001A3038078400003051
:101E6E00393D85000008F00001310008F100013015
:101E7E00700784000030713D85000008F0000131CC
:101E8E000008F10070088400710885000008D20077
:101E9E0001310008D30001310008D40001310008DF
:101EAE00D5008031F8258831862F862F4C08840086
:101EBE004D0885000008F1007108013A03199B2EA8
:101ECE004C0884004D0885000008F1007108023AA4
:101EDE000319CF2E4C0884004D0885000008F10030
:101EEE007108043A0319FA2E4C0884004D08850037
:101EFE000008F1007108083A03192B2F5C2F0130EE
:101F0E00CE000D30CF00BC30D0000030D10080317B
:061F1E00302688310800A6
:101F240021002A082000D60021002B082000D70019
:101F340021002C082000D80021002D082000D90001
:101F44004C082100B00020004D082100B100983158
:061F54000724883108009B
:101F5A0021002A082000CE0021002B082000CF00F3
:101F6A0021002C082000D00021002D082000D100DB
:101F7A004C082100B00020004D082100B100983122
:061F8A0007248831080065
:101F900021002A082000D20021002B082000D300B5
:101FA00021002C082000D40021002D082000D5009D
:101FB0004C082100B00020004D082100B1009831EC
:061FC0000724883108002F
:101FC60021002A082000AE0021002B082000AF00C7
:101FD60021002C082000B00021002D082000B100AF
:101FE6004C082100B00020004D082100B1009831B6
:061FF600072488310800F9
:102000002000E801E901E601E70121005C08F00099
:102010005D08F100DC0A0319DD0A7008840071080C
:1020200085000008F0007008A600700803190A2D4A
:102030002608253A03192A285A0886005B088700D3
:1020400026088100DA0A0319DB0A2000E80A0319CE
:10205000E90A05282100A401A5012000E601E70105
:1020600021005C08E5005D08E60080316D209031BC
:102070007008DC007108DD007008840071088500BC
:102080000008F0000030F1007008E5008031D32036
:102090009031700803197E28A401A5012408F000DE
:1020A0002508F1000A30F4000030F5008031E1200D
:1020B000903121005C0884005D0885000008F20072
:1020C00072087007A4000030713DA5003030A402F2
:1020D0000030A53BDC0A0319DD0A5C0884005D08BA
:1020E00085000008F0000030F1007008E500803144
:1020F000D32090317008031D4E28B1285C0884005D
:102100005D0885000008F10071082A3A031DB12816
:102110005E0884005F0885000008F00001310008B7
:10212000F10070088400710885000008A4000131E6
:102130000008A5005E0884005F08850002300007E3
:10214000F00000300131003DF1005E0886005F08BC
:10215000870070088100710841318100DC0A031991
:10216000DD0A5C0884005D0885000008F100710844
:102170002E3A031D2529DC0A0319DD0A5C088400B8
:102180005D0885000008F10071082A3A031DF22855
:102190005E0884005F0885000008F0000131000837
:1021A000F10070088400710885000008A200013168
:1021B0000008A3005E0884005F0885000230000765
:1021C000F00000300131003DF1005E0886005F083C
:1021D000870070088100710841318100DC0A031911
:1021E000DD0A2429A201A3015C0884005D088500A2
:1021F0000008F0000030F1007008E5008031D320C5
:1022000090317008031924292208F0002308F100F6
:102210000A30F4000030F5008031E12090312100D7
:102220005C0884005D0885000008F20072087007F1
:10223000A2000030713DA3003030A2020030A33B69
:10224000DC0A0319DD0AF4282729A201A3015C088E
:10225000F0005D08F100DC0A0319DD0A7008840053
:10226000710885000008A6004B2A20006808F000CD
:102270006908F1000F2D200066177D2A7D2A2000B5
:10228000E6162000E6177D2A21005E0884005F081C
:1022900085000008F00001310008F100700884009A
:1022A000710885000008E00001310008E1005E08C7
:1022B00084005F08850002300007F0000030013123
:1022C000003DF1005E0886005F088700700881000D
:1022D00071084131810000306106031D7129003011
:1022E0006006031D77296130E0000030E100E20163
:1022F000E3016208600784006308613D850000080F
:1023000003198D2901306207F0000030633DF100B0
:102310007008E2007108E3007929220823040319F8
:102320009D2963082302031D9729620822020318CE
:102330009D292208E2002308E30025086302031D0B
:10234000A329240862020318AA296208A4026308C8
:10235000A53BAC29A401A5012000E619CA2921004A
:102360002408F0002508F1000130A4020030A53B4C
:10237000700871040319CA295A0886005B0887008F
:1023800020308100DA0A0319DB0A2000E80A031969
:10239000E90AAF2921006208F2006308F300013066
:1023A0006202F0000030633BF1007008E200710847
:1023B000E300720873040319F929600884006108B6
:1023C00085005A0886005B08870000088100DA0A49
:1023D0000319DB0A01306007F0000030613DF100B5
:1023E0007008E0007108E1002000E80A0319E90A1A
:1023F000CA292000E61D172A21002408F00025081C
:10240000F1000130A4020030A53B700871040319EB
:10241000172A5A0886005B08870020308100DA0AF4
:102420000319DB0A2000E80A0319E90AFC29052838
:1024300021005E0884005F0885000008F00001317B
:102440000008F10070088400710885000008A600EB
:102450005E0884005F08850002300007F00000304D
:102460000131003DF1005E0886005F0887007008BA
:102470008100710841318100A630E0000030E100A8
:102480000130E2000030E3008D29C0302000E60476
:102490000030E7047D2A21002608003A0319352977
:1024A00026086C3A03193B2926084C3A03193B29A4
:1024B00026086F3A03193B292608643A03193E2976
:1024C0002608693A03193E292608703A03193F295C
:1024D0002608583A03193F292608783A0319412952
:1024E0002608733A031944292608633A0319182A5F
:1024F0002608753A0319452A3C2AC0302000660593
:10250000F1006708F2000030F20500307206031D8A
:102510008B2A00307106031DD22A21005E08840038
:102520005F0885000008F00001310008F100700824
:102530008400710885000008E00001310008E10016
:102540005E0884005F08850002300007F00000305C
:102550000131003DF1005E0886005F0887007008C9
:10256000810071084131810080306106F0008030C7
:102570007002031DBD2A003060020318D12A033007
:102580002000E6040030E70421006008003CF00071
:102590006108031C013EF101F1027008E0007108BE
:1025A000E100F92A21005E0884005F088500000828
:1025B000F00001310008F100700884007108850006
:1025C0000008E00001310008E1005E0884005F08B7
:1025D000850002300007F00000300131003DF100BD
:1025E0005E0886005F08870070088100710841312D
:1025F000810000302306031DFF2A00302206031D40
:102600000C2B00306106031D072B00306006031DF4
:102610000C2BA20A0319A30AC03020006605F000A3
:102620007008F3007C2B01302100A6002608053A33
:102630000319352B2608F000F101F035F10D2E308D
:1026400070078400A530713D85000008F10001315C
:102650000008F20072086102031D302B710860024D
:102660000318332B352BA60A162B8C2B2100013097
:10267000A6002608043A0319582B2608F000F10199
:10268000F035F10D383070078400A530713D8500BC
:102690000008F10001310008F20072086102031D18
:1026A000532B710860020318562B582BA60A392B9E
:1026B0008C2B21000130A6002608063A03197B2B3B
:1026C0002608F000F101F035F10D2230700784008A
:1026D000A530713D85000008F10001310008F200CD
:1026E00072086102031D762B710860020318792BB2
:1026F0007B2BA60A5C2B8C2B7308003A0319132B37
:102700007308C03A0319132B7308803A0319362B48
:102710007308403A0319592B21008030F0008030B3
:1027200023067002031D962B2208260203189B2BFA
:102730002208A600A92B80302306F000803070020A
:10274000031DA42B260822020318A92B2608A20089
:10275000A301240825040319BE2B033020006605BD
:10276000F0006708F1000030F105700871040319EA
:10277000BE2B01302100A4020030A53B2100803097
:102780002306F000803025067002031DC92B2408A3
:1027900022020318D02B2208A4022308A53BD22B27
:1027A000A401A501C43020006605F10067080839BE
:1027B000F2007208083A031DDF2B40307106031D3A
:1027C000EB2B2100240825040319EA2B0130A40275
:1027D0000030A53B0D2CC03020006605F1006708D5
:1027E0000839F2007208083A031DF82B8030710690
:1027F000031D0D2C8030F000803021002506700272
:10280000031D042C2408023C03180B2C0230A402E4
:102810000030A53B0D2CA401A50121005A08E500BC
:102820005B08E60080310B2190317008DA007108F6
:10283000DB0021002208F0002308F1000130A20291
:102840000030A33B700871040319E42CC030200051
:102850006605F00070082100E400C62C2208F00094
:102860002308F100F035F10D2E3070078400A530FB
:10287000713D85000008F40001310008F500600892
:10288000F0006108F10080313A2290310A30F40002
:102890000030F50080313A2290317808F000790854
:1028A000F100303070072100A600D62C2000E61E73
:1028B000802C21002208F0002308F100F035F10DF2
:1028C000383070078400A530713D85000008F400A1
:1028D00001310008F5006008F0006108F100803166
:1028E0003A2290310F30F0050030F1057830700752
:1028F0008400A430713D850000082100A600A62CAC
:1029000021002208F0002308F100F035F10D3830E5
:1029100070078400A530713D85000008F400013186
:102920000008F5006008F0006108F10080313A22EB
:1029300090310F30F0050030F105893070078400C8
:10294000A430713D850000082100A600D62C220885
:10295000F0002308F100F035F10D223070078400FB
:10296000A530713D85000008F40001310008F50034
:102970006008F0006108F10080313A2290310730A0
:1029800070052100A6003030A607D62C6408003A56
:1029900003192E2C6408C03A03192E2C6408803ABF
:1029A0000319562C6408403A0319A72C5A088600CC
:1029B0005B08870026088100DA0A0319DB0A200079
:1029C000E80A0319E90A192C2000E61D092D8030B8
:1029D000F0008030210025067002031DF12C240830
:1029E000003C0318092D5A0886005B088700203038
:1029F0008100DA0A0319DB0A2000E80A0319E90A50
:102A000001302100A4020030A53B24082504031D49
:102A1000F32C052820006808F0006908F100080080
:102A200030302100BA00D030F100A330F200390874
:102A30007206031D1D2D710838060319282D00305C
:102A40003906031D252D003038060319282D292DA0
:102A5000512F1A30380784000030393D85000008B6
:102A6000F30001310008F400F930F1009730F20072
:102A700074087206031D3E2D710873060319542D48
:102A80001A30380784000030393D85000008F10015
:102A900001310008F20000307206031D512D003094
:102AA00071060319542D552D512F1A303807840003
:102AB0000030393D85000008F00001310008F100C8
:102AC0000130700784000030713D85000008F1007E
:102AD00001310008F20000307206031D712D003034
:102AE0007106031D742D512F1A30380784000030F1
:102AF000393D85000008F00001310008F100033085
:102B0000700784000030713D85000008F10000303E
:102B10007102031CDE2D1A30380784000030393D65
:102B200085000008F00001310008F1000330700753
:102B300084000030713D85000008F1007108073CF9
:102B4000031CDE2D1A30380784000030393D850023
:102B50000008F20001310008F30001307207840020
:102B60000030733D85000008F00001310008F100DD
:102B700070088400710885000008F40003307207B3
:102B800084000030733D85000008F0007008F200FA
:102B90000130F0000030F10072080319D32DF03538
:102BA000F10DFF3ECD2D7408F0050030F1057008E1
:102BB00071040319DD2D3130BA00482F1A3038075F
:102BC00084000030393D85000008F0000131000824
:102BD000F1000330700784000030713D850000086B
:102BE000F10008307102031C4B2E1A3038078400A4
:102BF0000030393D85000008F00001310008F10087
:102C00000330700784000030713D85000008F1003A
:102C100071080F3C031C4B2E1A303807840000301B
:102C2000393D85000008F20001310008F300013051
:102C3000720784000030733D85000008F000013108
:102C40000008F10070088400710885000008F40095
:102C500001310008F5000330720784000030733D35
:102C600085000008F0007008F2000130F00000302C
:102C7000F10072080319402EF035F10DFF3E3A2E97
:102C80007408F0057508F1057008710403194A2EDF
:102C90003130BA00482F1A30380784000030393DEF
:102CA00085000008F00001310008F10003307007D2
:102CB00084000030713D85000008F1001030710281
:102CC000031CCA2E1A30380784000030393D8500B5
:102CD0000008F00001310008F100033070078400A3
:102CE0000030713D85000008F10071081F3C031C95
:102CF000CA2E1A30380784000030393D850000089C
:102D0000F20001310008F300013072078400003046
:102D1000733D85000008F00001310008F1007008E3
:102D20008400710885000008F50001310008F600F4
:102D300001310008F70001310008F8000330720784
:102D400084000030733D85000008F0007008F40036
:102D50000130F0000030F1000030F2000030F300EC
:102D600074080319B92EF035F10DF20DF30DFF3E85
:102D7000B12E7508F0057608F1057708F205780898
:102D8000F30570087104720473040319C92E3130FD
:102D9000BA00482F1A30380784000030393D8500CA
:102DA0000008F00001310008F100033070078400D2
:102DB0000030713D85000008F10020307102031CD5
:102DC000482F1A30380784000030393D850000084C
:102DD000F00001310008F10003307007840000307A
:102DE000713D85000008F10071083F3C031C482F2D
:102DF0001A30380784000030393D85000008F200A1
:102E000001310008F3000130720784000030733D87
:102E100085000008F00001310008F100700884000E
:102E2000710885000008F50001310008F600013145
:102E30000008F70001310008F80003307207840031
:102E40000030733D85000008F0007008F400013088
:102E5000F0000030F1000030F2000030F3007408A0
:102E60000319382FF035F10DF20DF30DFF3E302F21
:102E70007508F0057608F1057708F2057808F3057E
:102E800070087104720473040319482F3130BA00BA
:102E90000130DA000F30DB003A08DC0080315625C3
:042EA0009031080065
:102EA400200072087606A100F801F9017308770280
:102EB400031C742F7708FD007308F7007D08F300E6
:102EC4007608FD007208F6007D08F2007508FD0022
:102ED4007108F5007D08F1007408FD007008F40025
:102EE4007D08F00077080319F52F7208FA00F2172D
:102EF400F61777087302F7000319A72F0830770233
:102F0400031C9D2FF7007408F9007508F400760877
:102F1400F500F60108307702031C9D2FF7007408B2
:102F2400F9007508F400F50108307702031C9D2FA1
:102F34007A08F200F52F77080319A72F0310F60C6F
:102F4400F50CF40CF90CF70BA02FA11FB42FF90901
:102F5400F409F509F609F90A0319F40A0319F50A3B
:102F64000319F60A7908F80774080318740FF007B0
:102F740075080318750FF10776080318760FF20722
:102F8400A11BCD2F031CDD2FF20CF10CF00CF80C5F
:102F9400F30FDD2FEF2F0318E32FF809F009F109E0
:102FA400F209F80A0319F00A0319F10A0319F20ADB
:102FB4008030FA06E92F0130FC008031A6269031DA
:102FC400F72F0230FC008031A6269031F72F043011
:102FD400FC00803177269031F72F0830FC008031D7
:0E2FE400C3259031F72F0030FC0000000800DC
:10300000D030F100A330F200210039087206031D10
:103010000B28710838060319162800303906031DDD
:1030200013280030380603191628172865291A3086
:10303000380784000030393D85000008F300013175
:103040000008F400F930F1009730F20074087206BD
:10305000031D2C2871087306031942281A303807FB
:1030600084000030393D85000008F100013100087E
:10307000F20000307206031D3F280030710603196C
:103080004228432865291A30380784000030393D2A
:1030900085000008F00001310008F10001307007E0
:1030A00084000030713D85000008F1000131000806
:1030B000F20000307206031D5F2800307106031D08
:1030C000622865291A30380784000030393D8500B0
:1030D0000008F00001310008F10003307007CC0057
:1030E0000030713DCD0031291A303807840000309E
:1030F000393D85000008F00001310008F100013081
:10310000700784000030713D85000008F000013137
:103110000008F10070088400710885000008BA00FA
:10312000BB010030BB00BC30CE000030CF006930A6
:10313000D000A530D1003A08D2003B08D30080313E
:10314000CF2598315A29BC30CE000030CF00FC305A
:10315000D0008730D1001A30380784000030393D64
:1031600085000008F00001310008F100013070070F
:1031700084000030713D85000008F0000131000836
:10318000F10070088400710885000008D200013148
:103190000008D3008031CF2598315A29BC30CE00A9
:1031A0000030CF00FB30D0009F30D1001A303807FC
:1031B00084000030393D85000008F000013100082E
:1031C000F1000130700784000030713D8500000877
:1031D000F00001310008F1007008840071088500DA
:1031E0000008D20001310008D30001310008D400EA
:1031F00001310008D5008031F82598315A29BC30BA
:10320000CE000030CF004630D000A530D1001A30BB
:10321000380784000030393D85000008F000013196
:103220000008F1000130700784000030713D850016
:103230000008F00001310008F100700884007108F6
:1032400085000008D20001310008D30001310008D8
:10325000D40001310008D5008031F82598315A2971
:103260005A294C0884004D0885000008F1007108B7
:10327000013A031974284C0884004D0885000008A1
:10328000F1007108023A0319A3284C0884004D0884
:1032900085000008F1007108043A0319CE284C0893
:1032A00084004D0885000008F1007108083A0319F0
:1032B000FF2830290130CE000D30CF00BC30D000C7
:0C32C0000030D100803130269831080029
:1032CC0021003108A33A031D6D29D03030060319B3
:1032DC00782900303106031D75290030300603199A
:1032EC0078297929E32A20002608270428042904B0
:1032FC0003199A292808860029088700210030081C
:10330C00810031084131810041313208810033089C
:10331C0041318100413120002608F0002708F100DE
:10332C008031A4279831E32A1A3021003007840019
:10333C000030313D85000008F10001310008F20039
:10334C007208973A031DAC29F93071060319C2298A
:10335C001A30300784000030313D85000008F10040
:10336C0001310008F20000307206031DBF29003045
:10337C0071060319C229C329E32A21001A30300728
:10338C0084000030313D85000008F0000131000858
:10339C00F1000130700784000030713D8500000899
:1033AC00F00001310008F100700871040319E32AE0
:1033BC001A30300784000030313D85000008F000E1
:1033CC0001310008F10003307007F6000030713D48
:1033DC00F700BA2A1A30300784000030313D8500DE
:1033EC000008F00001310008F10001307007840082
:1033FC000030713D85000008F10001310008F20039
:10340C00710884007208850032080007F00071080A
:10341C0086007208870070088100E32A1A30300792
:10342C0084000030313D85000008F00001310008B7
:10343C00F1000130700784000030713D85000008F8
:10344C00F20001310008F300720884007308850053
:10345C0032080007F00033080131003DF10072081A
:10346C008600730887007008810071084131810063
:10347C00E32A1A30300784000030313D8500000803
:10348C00F00001310008F1000130700784000030B9
:10349C00713D85000008F40001310008F500740846
:1034AC0084007508850032080007F00033080131EC
:1034BC00003DF1000030B31BFF300131003DF20044
:1034CC000030B31BFF300131003DF300740886005F
:1034DC0075088700700881007108413181007208FD
:1034EC0041318100730841318100E32A1A303007E1
:1034FC0084000030313D85000008F00001310008E7
:10350C00F1000130700784000030713D8500000827
:10351C00F40001310008F50074088400750885007A
:10352C0032080007F00033080131003DF100003093
:10353C00B31BFF300131003DF2000030B31BFF30F4
:10354C000131003DF300740886007508870070088F
:10355C00810071084131810072084131810073088A
:10356C0041318100E32AE32A76088400770885003C
:10357C000008F1007108013A0319F029760884005B
:10358C00770885000008F1007108023A0319142A23
:10359C0076088400770885000008F1007108043A69
:1035AC0003193F2A76088400770885000008F1008B
:0C35BC007108083A03197C2AB92A08009B
:1035C80021003108A33A031DEB2AD0303006031935
:1035D800F62A00303106031DF32A0030300603199D
:1035E800F62AF72A062C200032083304340435045E
:1035F8000319182B34088600350887002100300885
:10360800810031084131810041313208810033089D
:1036180041318100413120003208F0003308F100C7
:103628008031A4279831062C1A30210030078400F5
:103638000030313D85000008F10001310008F2003A
:103648007208973A031D2A2BF93071060319402B8B
:103658001A30300784000030313D85000008F10041
:1036680001310008F20000307206031D3D2B0030C6
:1036780071060319402B412B062C21001A30300704
:1036880084000030313D85000008F0000131000859
:10369800F1000130700784000030713D850000089A
:1036A800F00001310008F100700871040319062CBC
:1036B8001A30300784000030313D85000008F000E2
:1036C80001310008F10003307007B6000030713D89
:1036D800B700F12B1A30300784000030313D8500E7
:1036E8000008F00001310008F10001307007840083
:1036F8000030713D85000008B40001310008B500B4
:103708003208F0003308F100803187279831210012
:1037180034088400350885000008F40001310008E9
:10372800F50001310008F60001310008F70090317A
:103738005227983121003408860035088700700820
:10374800810071084131810072084131810073089C
:1037580041318100062C1A30300784000030313D99
:1037680085000008F00001310008F1000130700701
:1037780084000030713D85000008B4000131000864
:10378800B5003208F0003308F100803187279831FE
:10379800210034088400350885000008F400013150
:1037A8000008F50001310008F60001310008F700B3
:1037B8009031522798312100340886003508870057
:1037C800700881007108413181007208413181001F
:1037D800730841318100062C062C3608840037080E
:1037E80085000008F1007108043A03196E2B3608A9
:1037F8008400370885000008F1007108083A0319A9
:06380800AF2BF02B0800BD
:10380E0021003108A33A031D0E2CD03030060319C7
:10381E00192C00303106031D162C0030300603190A
:10382E00192C1A2C832C30082000CC0021003108D2
:10383E002000CD002E082F04300431040319432C30
:10384E0018304C07840000304D3D8500300886004E
:10385E00310887000008F00001310008F1007008FF
:10386E00810071084131810041312E08F0002F088E
:10387E00F1008031A427983120002208230424046B
:10388E00250403195B2C24088600250887004C08A4
:10389E0081004D084131810041312208F00023089A
:1038AE00F1008031A4279831083020004C078400A5
:1038BE0000304D3D85000008F00001310008F10098
:1038CE0001310008F20001310008F30070082100F8
:1038DE00B2007108B3007208B4007308B500700826
:1038EE007104720473040319832C3208F000330838
:0A38FE00F1008031A4279831080082
:1039080021003108A33A031D8B2CD030300603194F
:10391800962C00303106031D932C00303006031915
:10392800962C972CC52E2000360837043804390405
:103938000319B82C38088600390887002100300898
:10394800810031084131810041313208810033085A
:1039580041318100413120003608F0003708F1007C
:103968008031A4279831C52E1A30210030078400F1
:103978000030313D85000008F10001310008F200F7
:103988007208973A031DCA2CF93071060319E02C06
:103998001A30300784000030313D85000008F100FE
:1039A80001310008F20000307206031DDD2C0030E2
:1039B80071060319E02CE12CC52E21001A303007BE
:1039C80084000030313D85000008F0000131000816
:1039D800F1000130700784000030713D8500000857
:1039E800F00001310008F100700871040319C52EB8
:1039F8001A30300784000030313D85000008F0009F
:103A080001310008F1000330700784000030713D77
:103A180085000008F10000307102031C5F2D1A3088
:103A2800300784000030313D85000008F000013186
:103A38000008F1000330700784000030713D8500F4
:103A48000008F1007108073C031C5F2D1A3030078D
:103A580084000030313D85000008F0000131000885
:103A6800F1000130700784000030713D85000008C6
:103A7800F20001310008F3000330700784000030C1
:103A8800713D85000008F0007008F1000130F00079
:103A980071080319522DF035FF3E4D2D7208840030
:103AA800730885000008F00672088600730887000E
:103AB80070088100C52E1A30300784000030313D6F
:103AC80085000008F00001310008F100033070079C
:103AD80084000030713D85000008F1000830710253
:103AE800031CCB2D1A30300784000030313D85008F
:103AF8000008F00001310008F1000330700784006D
:103B08000030713D85000008F10071080F3C031C6E
:103B1800CB2D1A30300784000030313D8500000875
:103B2800F00001310008F100013070078400003016
:103B3800713D85000008F30001310008F4000330EE
:103B4800700784000030713D85000008F00070089F
:103B5800F2000130F0000030F10072080319B82DAE
:103B6800F035F10DFF3EB22D73088400740885000E
:103B78000008F00601310008F10673088600740891
:103B8800870070088100710841318100C52E1A3004
:103B9800300784000030313D85000008F000013115
:103BA8000008F1000330700784000030713D850083
:103BB8000008F10010307102031C482E1A3030073B
:103BC80084000030313D85000008F0000131000814
:103BD800F1000330700784000030713D8500000853
:103BE800F10071081F3C031C482E1A30300784006E
:103BF8000030313D85000008F00001310008F10077
:103C08000130700784000030713D85000008F40021
:103C180001310008F5000330700784000030713D61
:103C280085000008F0007008F2000130F000003054
:103C3800F10072080319242EF035F10DFF3E1E2EF7
:103C480074088400750885000030F11BFF30F2000D
:103C5800F3000008F00601310008F1060131000800
:103C6800F20601310008F30674088600750887001B
:103C7800700881007108413181007208413181006A
:103C8800730841318100C52E1A3030078400003096
:103C9800313D85000008F00001310008F1000330D3
:103CA800700784000030713D85000008F100203065
:103CB8007102031CC52E1A30300784000030313DD4
:103CC80085000008F00001310008F100033070079A
:103CD80084000030713D85000008F10071083F3C08
:103CE800031CC52E1A30300784000030313D850092
:103CF8000008F00001310008F1000130700784006D
:103D08000030713D85000008F40001310008F5001D
:103D18000330700784000030713D85000008F00012
:103D28007008F2000130F0000030F1007208031949
:103D3800A12EF035F10DFF3E9B2E74088400750806
:103D480085000030F11BFF30F200F3000008F00698
:103D580001310008F10601310008F20601310008BE
:103D6800F3067408860075088700700881007108DA
:103D7800413181007208413181007308413181006D
:043D8800C52E08003C
:103D8C000D302100B0000030B100B2019630B3000C
:103D9C00B4018031B227983170080319D82E013044
:103DAC00F000332F0D30B0000030B1000130B20004
:103DBC009630B300B4018031B227983170080319E2
:103DCC00EA2E0230F000332F0D30B0000030B1007D
:103DDC000230B2009630B300B4018031B227983172
:103DEC0070080319FC2E0330F000332F0D30B00097
:103DFC000030B1000330B2009630B300B401803112
:103E0C00B2279831700803190E2F0630F000332FAB
:103E1C000D30B0000030B1000430B2009630B30069
:103E2C00B4018031B227983170080319202F053066
:103E3C00F000332F0D30B0000030B1000530B2006F
:103E4C009630B300B4018031B22798317008031951
:0C3E5C00322F0430F000332FF00108007A
:103E680020004D08A33A031D3B2FD0304C06031900
:103E7800462F00304D06031D432F00304C06031912
:103E8800462F472F6E2F0C304C07840000304D3DD5
:103E980085000008F00001310008F1000131000838
:103EA800F20001310008F30070082100AA0071082F
:103EB800AB007208AC007308AD007008710472049E
:103EC800730403196E2F2A08F0002B08F1008031C3
:063ED800A4279831080048
:103EDE0021008F120F120F108F100F118F11200053
:103EEE008F120F128F110F118F100F1080310E20A5
:103EFE00983180310E20983180310E2098318F14F8
:103F0E000F148F168031032098318F1280310E20BE
:103F1E0098318F168031032098318F1280310E2008
:103F2E0098318F168031032098318F1280310E20F8
:103F3E0098310F108F168031032098318F128031F7
:103F4E000E2098318F168031032098318F128F10EA
:103F5E008F158F168031032098318F1280310E20ED
:103F6E0098318F110F148F168031032098318F12D4
:103F7E000F108F168031032098318F1280310E2052
:103F8E0098318F168031032098318F120F148F16AF
:103F9E008031032098318F1280310E2098310F100E
:103FAE008F168031032098318F128F150F158F14B5
:103FBE000F148F168031032098318F1280310E200E
:063FCE0098316A1408009E
:1040000021002B08A33A031D0728D0302A060319E4
:10401000122800302B06031D0F2800302A06031932
:1040200012281328252910302A07840000302B3D40
:1040300085000008F00001310008F100013100089E
:10404000F20001310008F300700871047204730477
:104050000319492810302A07840000302B3D8500C1
:104060000008F00001310008F10001310008F20001
:1040700001310008F30072088600730887002A08DF
:1040800081002B084131810041318031A427A031CA
:1040900025291A3021002A07840000302B3D850095
:1040A0000008F10001310008F2007208973A031D80
:1040B0005B28F9307106031971281A302A07840029
:1040C00000302B3D85000008F10001310008F200AE
:1040D00000307206031D6E28003071060319712826
:1040E0007228252921001A302A07840000302B3D30
:1040F00085000008F00001310008F1007008AC00F4
:104100007108AD00F128252920004E084F04500405
:10411000510403199E285008860051088700210089
:104120002A0881002B0841318100413120004E08CE
:10413000F0004F08F1008031A427A031252920008C
:1041400056085704580459040319B928580886001A
:104150005908870021002A0881002B08413181007D
:10416000413120005608F0005708F1008031A427A3
:10417000A031252920005208530454045504031982
:10418000D428540886005508870021002A08810099
:104190002B0841318100413120005208F0005308C2
:1041A000F1008031A427A031252920002A082B0402
:1041B0002C042D040319EF282C0886002D088700F5
:1041C00021002A0881002B08413181004131200063
:1041D0002A08F0002B08F1008031A427A0312529FE
:1041E000252921002C0884002D0885000008F100F5
:1041F0007108003A031983282C0884002D088500D3
:104200000008F1007108013A031984282C08840081
:104210002D0885000008F1007108023A03199F2853
:104220002C0884002D0885000008F1007108033A6D
:104230000319BA282C0884002D0885000008F10015
:0C4240007108043A0319D528F028080082
:10424C0021002B08A33A031D2D29D0302A0603196F
:10425C00382900302B06031D352900302A06031996
:10426C0038293929EF2914302A07840000302B3DD6
:10427C0085000008F00001310008F1000131000850
:10428C00F20001310008F300700871047204730429
:10429C000319752914302A07840000302B3D850042
:1042AC000008F00001310008F10001310008F200B3
:1042BC0001310008F30072088600730887002A0891
:1042CC0081002B084131810041312C0881002D08DF
:1042DC004131810041318031A427A031EF291A30BE
:1042EC0021002A07840000302B3D85000008F000D7
:1042FC0001310008F1007008AE007108AF00BB2955
:10430C00EF292A08B0002B08B1002C08B2002D08A8
:10431C00B30098318424A031EF2921002A08B00081
:10432C002B08B1002C08B2002D08B300983166217F
:10433C00A031EF2921002A08B0002B08B1002C086D
:10434C00B2002D08B30098316621A031EF2921006D
:10435C002A08B0002B08B1002C08B2002D08B300BD
:10436C009831E422A031EF29EF2921002E08840096
:10437C002F0885000008F1007108003A03198629FE
:10438C002E0884002F0885000008F1007108013AFE
:10439C00031987292E0884002F0885000008F100D6
:1043AC007108023A031993292E0884002F088500FE
:1043BC000008F1007108033A0319A0292E088400A3
:1043CC002F0885000008F1007108043A0319AD2983
:0443DC00BA290800F2
:1043E0007625210090122000901221008E012000DD
:1043F0008E01FF3021008D00951398316F27A03179
:104400000C302100E50080311720A031013021005F
:10441000E50080311720A03100302100AA000730CC
:10442000AB00B830AC000030AD008831E327A031DC
:1044300027302100AA000E30AB00B830AC000030AD
:10444000AD008831C827A03100302100AA00183003
:10445000AB00B830AC000030AD0088319227A031FD
:1044600010302100AA001530AB00B830AC0000308D
:10447000AD008831AD27A0315C302100B000A43000
:10448000B10098310724A0319831C626A0317008B8
:10449000A900BD2A8031F627A031023070078400C0
:1044A0000030713D850000082100B0000131000896
:1044B000B10098310724A031D72A8031F627A031E6
:1044C000700884007108850000082100B0000131E7
:1044D0000008B10098310724A031D72A8031F6278F
:1044E000A0310630700784000030713D850000085F
:1044F0002100B00001310008B10098310724A0313B
:1045000098313427A031D72A8031F627A0310430E2
:10451000700784000030713D850000082100B00064
:1045200001310008B10098310724A031D72A803129
:10453000F627A03170082100AA007108AB000130F5
:10454000AC000030AD002621D72A8031F627A031FB
:1045500070082100AA007108AB00FF30AC00FF30EA
:10456000AD002621D72A8031F627A031700821001E
:10457000AA007108AB000020D72A21002908023ABE
:1045800003194A2A2908033A03195D2A2908063A19
:1045900003196E2A2908013A0319842A2908043AC2
:1045A0000319972A2908053A0319A52AB32A442A88
:0245B000D82A07
:104AEC00DC308400A23085004430F0000130F1004D
:104AFC0022308600003087008031ED27A03108007D
:080FF800253434347534003453
:0C2FF2000034003400340034003400349B
:103FD40030343134323433343434353436343734A1
:103FE4003834393461346234633464346534663467
:023FF400003497
:0A3FF600253434344C3475340034A3
:0845B80000340034003400342B
:0845C000003400340034003423
:0845C80000340034003400341B
:0845D000003400340034003413
:0845D80000340034003400340B
:0845E000003400340034003403
:1045E80045344E3454344534523420342034203445
:0245F80000348D
:1045FA00533445344C344534433454342034203411
:02460A0000347A
:04460C00D034A334CF
:084610000034003400340034D2
:084618000034003400340034CA
:084620000034003400340034C2
:0446280064340034C2
:0A462C006E3475346C346C340034C5
:0A4636006E3475346C346C340034BB
:1046400001340034003400340834003400340034C1
:104650004034003400340034003402340034003478
:10466000003410340034003400348034003400341A
:104670000034003404340034003400342034003476
:104680000034003400340134003400340034083481
:10469000003400340034403400340034003400343A
:1046A00001340034003400340A340034003400345F
:1046B0006434003400340034E8340334003400340B
:1046C0001034273400340034A034863401340034EC
:1046D000403442340F3400348034963498340034FB
:1046E0000034E134F53405340034CA349A343B34B0
:1046F0000134003400340034103400340034003409
:1047000000340134003400340034103400340034F8
:1047100000340034013400340034003410340034E8
:1047200000340034003401340034003400341034D8
:10473000B434A334EC34A3340834A434D034A334D4
:1047400000340034003400340034003400340034C9
:1047500000340034003400340034003400340034B9
:084760000034A5344C34A534EB
:10476800EC34A3349834A3340834A434D034A334B8
:104778000034003400340034003400340034003491
:104788000034003400340034003400340034003481
:084798001134A5345834A53496
:1047A0000034003400340034003400340034003469
:1047B0000034003400340034003400340034003459
:1047C0000034003400340034003400340034003449
:0847D000003400340034003411
:1047D8009834A334B434A3340834A434D034A33480
:1047E8000034003400340034003400340034003421
:1047F8000034003400340034003400340034003411
:08480800CD34A4345E34A53464
:104810005C34A4342434A434D034A334EC34A3342E
:1048200000340034003400340034003400340034E8
:1048300000340034003400340034003400340034D8
:08484000DE34A434F93497348E
:104848000834A4345C34A434D034A3344034A434BD
:1048580000340034003400340034003400340034B0
:1048680000340034003400340034003400340034A0
:08487800BC34A434F934973478
:10488000D034A334D034A3342434A434D034A33467
:104890000034003400340034003400340034003478
:1048A00018340734B8340034003400340034003491
:0848B000EF34A434F93497340D
:1048B8002434A4340834A434D034A334D034A334F6
:1048C8007C34073400340034713407340034003445
:1048D8000034003400340034003400340034003430
:0848E800AB34A434F934973419
:1048F000303431343234333434343534363437347C
:104900003834393441344234433444344534463401
:02491000003471
:104912003034313432343334343435343634373459
:10492200383439346134623463346434653466341F
:0249320000344F
:104934003034313432343334343435343634373437
:1049440038343934413442344334443445344634BD
:0249540000342D
:104956004D3465346E34753420343134203420348B
:1049660020342034203420342034203420342034A1
:0249760000340B
:104978004D3465346E347534203432342034203468
:10498800203420342034203420342034203420347F
:024998000034E9
:10499A004534643469347434203462346934743488
:1049AA00203420342034203420342034203420345D
:0249BA000034C7
:1049BC004D3465346E347534203433342034203423
:1049CC00203420342034203420342034203420343B
:0249DC000034A5
:1049DE004D3465346E3475342034323431342034F1
:1049EE002034203420342034203420342034203419
:0249FE00003483
:104A0000453464346934743420347334693467341D
:104A10006E3465346434203420342034203420341F
:024A2000003460
:104A22004534643469347434203475346E347334E8
:104A3200693467346E3420342034203420342034F6
:024A420000343E
:104A44000134003408340034403400340034023477
:084A54000034103400348034FA
:104A5C00013400340A34003464340034E834033450
:044A6C0010342734A7
:104A70000134003410340034003401340034103474
:0C4A8000253434344C344C34643400349D
:0C4A8C00253434344C344C347534003480
:0C4A980003340E340034013400340034C8
:0C4AA40069343D34253436346434003469
:0C4AB00002340E340034013400340034B1
:0C4ABC00013410340034053400340034A0
:0A4AC800253434344C3464340034D7
:084AD20025343434753400343E
:084ADA00253434346434003447
:084AE20025343434643400343F
:020000040001F9
:04000E00E23FFF1EB0
:00000001FF
