:04000000A8310028FB
:0C0006004230FD00FD0B05280000080042
:0A00120000000000000000000800DC
:10001C001D30FC009130FD00FD0B1228FC0B12284A
:02002C000800CA
:10002E002000FB01FA01F901F801A001730DF80D92
:10003E007408F8027508031C750FF9027608031C84
:10004E00760FFA027708031C770FFB020001031CE0
:10005E000130A002F30D0730FC00730DF80DF90D01
:10006E00FA0DFB0DA00D7408731C4F28F8027508CD
:10007E00031C750FF9027608031C760FFA02770837
:10008E00031C770FFB020001031C0130A002602845
:10009E00F80775080318750FF90776080318760F19
:1000AE00FA0777080318770FFB07000103180130D2
:1000BE00A007F30DFC0B3428720DF80DF90DFA0D97
:1000CE00FB0DA00D7408731C7E28F8027508031C26
:1000DE00750FF9027608031C760FFA027708031CD7
:1000EE00770FFB020001031C0130A0028F28F807D6
:1000FE0075080318750FF90776080318760FFA07B7
:10010E0077080318770FFB07000103180130A007CB
:10011E00F20D0730FC00720DF80DF90DFA0DFB0D06
:10012E00A00D7408721CAD28F8027508031C750F1B
:10013E00F9027608031C760FFA027708031C770F74
:10014E00FB020001031C0130A002BE28F80775084F
:10015E000318750FF90776080318760FFA07770854
:10016E000318770FFB07000103180130A007F20DEB
:10017E00FC0B9228710DF80DF90DFA0DFB0DA00D6B
:10018E007408721CDC28F8027508031C750FF9023E
:10019E007608031C760FFA027708031C770FFB0212
:1001AE000001031C0130A002ED28F80775080318A2
:1001BE00750FF90776080318760FFA0777080318F4
:1001CE00770FFB07000103180130A007F10D073070
:1001DE00FC00710DF80DF90DFA0DFB0DA00D740854
:1001EE00711C0B29F8027508031C750FF9027608AD
:1001FE00031C760FFA027708031C770FFB0200012F
:10020E00031C0130A0021C29F80775080318750F8E
:10021E00F90776080318760FFA0777080318770F91
:10022E00FB07000103180130A007F10DFC0BF028AD
:10023E00700DF80DF90DFA0DFB0DA00D7408711C63
:10024E003A29F8027508031C750FF9027608031C8B
:10025E00760FFA027708031C770FFB020001031CCE
:10026E000130A0024B29F80775080318750FF9071E
:10027E0076080318760FFA0777080318770FFB072F
:10028E00000103180130A007F00D0730FC00700DBF
:10029E00F80DF90DFA0DFB0DA00D7408701C6929EF
:1002AE00F8027508031C750FF9027608031C760F09
:1002BE00FA027708031C770FFB020001031C0130C2
:1002CE00A0027A29F80775080318750FF907760842
:1002DE000318760FFA0777080318770FFB0700014C
:1002EE0003180130A007F00DFC0B4E2970188D2954
:1002FE007408F80775080318750FF90776080318C0
:0E030E00760FFA0777080318770FFB07080031
:10031C0020006A1D062AEA1CA9296A1C98292D307E
:10032C00F3009A292B30F3002100690886006A0833
:10033C00870073088100E90A0319EA0A2000E80A19
:10034C000319E90AEB296A1CBA29210069088600FD
:10035C006A08870020308100E90A0319EA0A2000A4
:10036C00E80A0319E90AEB29C0306A05F1006B08A9
:10037C000839F2007208083A031DC629803071064C
:10038C00031DEB292100690886006A0887003030BC
:10039C008100E90A0319EA0A2000E80A0319E90AAC
:1003AC00EA1EDB295830F400DD297830F4002100F6
:1003BC00690886006A08870074088100E90A031935
:1003CC00EA0A2000E80A0319E90A66086704031917
:1003DC00052A2100690886006A08870030308100F0
:1003EC00E90A0319EA0A2000E80A0319E90A0130AC
:1003FC00E6020030E73B66086704031DEF29982AE4
:10040C00660867040319222AEA19222A21006908BE
:10041C0086006A08870020308100E90A0319EA0A7D
:10042C002000E80A0319E90A0130E6020030E73B34
:10043C0066086704031D0C2AEA1C3A2A6A1C292A3E
:10044C002D30F5002B2A2B30F50021006908860091
:10045C006A08870075088100E90A0319EA0A200076
:10046C00E80A0319E90A4A2A6A1C4A2A210069087F
:10047C0086006A08870020308100E90A0319EA0A1D
:10048C002000E80A0319E90AC0306A05F1006B087C
:10049C000839F2007208083A031D562A40307106DA
:1004AC00031D672A2100690886006A08870030301E
:1004BC008100E90A0319EA0A2000E80A0319E90A8B
:1004CC00982AC0306A05F1006B080839F2007208EE
:1004DC00083A031D732A80307106031D982A2100E7
:1004EC00690886006A08870030308100E90A031920
:1004FC00EA0A2000E80A0319E90AEA1E882A583099
:10050C00F6008A2A7830F6002100690886006A080D
:10051C00870076088100E90A0319EA0A2000E80A34
:10052C000319E90A8030F00080306E067002031D5A
:10053C00A12A6D086C020318B22A210069088600F2
:10054C006A08870030308100E90A0319EA0A2000A2
:10055C00E80A0319E90A982A21006908F0006A08D8
:04056C00F100080092
:100570002100E91BBE2A20008F11C02A20008F1500
:100580002100691BC62A20000F11C82A20000F1560
:100590002100E91ACE2A20008F10D02A20008F14C3
:1005A0002100691AD62A20000F10D82A20000F1423
:1005B00021002418DE2A20000F16E02A20000F1246
:1005C0008F1609208F122100E919E92A20008F11C6
:1005D000EB2A20008F1521006919F12A20000F1144
:1005E000F32A20000F152100E918F92A20008F10A6
:1005F000FB2A20008F1421006918012B20000F1006
:10060000032B20000F1421002418092B20000F16A3
:100610000B2B20000F128F1609208F122100241C93
:0A062000132B0E20142B03200800FA
:10062A002000F801F9011030FC00710DF80DF90DE8
:10063A007408F8027508031C750FF90203182C2BAD
:10064A007408F80775080318750FF9070310F00DF9
:08065A00F10DFC0B1A2B080046
:10066200552B2000EA152100E90A0319EA0A892B11
:1006720020006A142100E90A0319EA0A892B2000E2
:10068200EA142100E90A0319EA0A892B2000EB1572
:100692002100E90A0319EA0A892B20006A152100C0
:1006A200E90A0319EA0A892B2100690884006A0809
:1006B20085000008F10071082D3A0319322B6908F0
:1006C20084006A0885000008F1007108203A0319C5
:1006D200392B690884006A0885000008F100710856
:1006E2002B3A0319402B690884006A088500000828
:1006F200F1007108233A0319472B690884006A083C
:1007020085000008F1007108303A03194E2B8A2B3C
:10071200312B2000EA1C8E2B6A10EA1D912B6A11E4
:0C07220021006908F0006A08F1000800DE
:10072E00B22B2100A215E90A0319EA0AE62B2214BC
:10073E00E90A0319EA0AE62BA214E90A0319EA0ADE
:10074E00E62BA315E90A0319EA0AE62B2215E90A94
:10075E000319EA0AE62B2100690884006A0885005D
:10076E000008F10071082D3A0319982B69088400CE
:10077E006A0885000008F1007108203A03199E2BC3
:10078E00690884006A0885000008F10071082B3A98
:10079E000319A32B690884006A0885000008F1007C
:1007AE007108233A0319A82B690884006A0885008A
:1007BE000008F1007108303A0319AD2BE72B972B87
:1007CE00A21CEA2B2210A21DED2B22116908F000AB
:0607DE006A08F1000800AA
:1007E4002000FB01FA01F9018030F800F10CF00C53
:1007F400031C052C7408F90775080318750FFA070C
:100804000318FB0A0310F01F0D2C7408FA0775086F
:100814000318750FFB07FB0CFA0CF90CF80C031CFE
:10082400F82B7B08F3007A08F2007908F1007808C5
:04083400F0000800C8
:100838002100221D8A2CA21C352C221C262C2D308E
:10084800F300282C2B30F300690886006A0887001B
:1008580073088100E90A0319EA0AA00A0319A10A20
:10086800712C221C442C690886006A0887002030F5
:100878008100E90A0319EA0AA00A0319A10A712CDE
:10088800C0302205F10023080839F2007208083A3E
:10089800031D502C80307106031D712C69088600D9
:1008A8006A08870030308100E90A0319EA0AA00AB9
:1008B8000319A10AA21E632C5830F400652C783065
:1008C800F400690886006A08870074088100E90A4C
:1008D8000319EA0AA00A0319A10A27082804031918
:1008E800892C690886006A08870030308100E90A87
:1008F8000319EA0AA00A0319A10A0130A702003065
:10090800A83B27082804031D752C102D2708280448
:100918000319A42CA219A42C690886006A08870068
:1009280020308100E90A0319EA0AA00A0319A10A7A
:100938000130A7020030A83B27082804031D902C8B
:10094800A21CBA2C221CAB2C2D30F500AD2C2B3060
:10095800F500690886006A08870075088100E90AB9
:100968000319EA0AA00A0319A10AC82C221CC82CD8
:10097800690886006A08870020308100E90A03199F
:10098800EA0AA00A0319A10AC0302205F1002308C7
:100998000839F2007208083A031DD42C4030710659
:1009A800031DE32C690886006A088700303081003F
:1009B800E90A0319EA0AA00A0319A10A102DC0308E
:1009C8002205F10023080839F2007208083A031DCD
:1009D800EF2C80307106031D102D690886006A0807
:1009E800870030308100E90A0319EA0AA00A0319CE
:1009F800A10AA21E022D5830F600042D7830F60008
:100A0800690886006A08870076088100E90A0319E0
:100A1800EA0AA00A0319A10A8030F00080302606ED
:100A28007002031D1A2D250820006F0203182A2DB5
:100A38002100690886006A08870030308100E90AC9
:100A48000319EA0AA00A0319A10A102D210069084E
:080A5800F0006A08F10008003B
:100A600021006908393C031C3C2D30306902031C0D
:0C0A70003C2D0130F0003D2DF00108008D
:100A7C00210024105E08E900B8222100241408008B
:100A8C00572D80302100DE00692DC030DE00692D2D
:100A9C009430DE00692DD430DE00692D8030DE000C
:100AAC00692D21005E08013A0319472D5E08023AB0
:100ABC0003194B2D5E08033A03194E2D5E08043AB8
:100ACC000319512D542D5F03F0005E08F0077008D8
:100ADC00DE0024147008E900B822210024106008FC
:0A0AEC00E900B822210024140800DC
:100AF600D6302100DA000030DB005208DE00530851
:100B0600DF005408E0005508E100DA30E20000306A
:100B1600E3008831002080317008D8007108D900C0
:100B26007008520786007108533D870081015808F6
:080B3600F0005908F10008006D
:0E0B3E00F201F101F001F801F30100300800AE
:080B4C00FA1FF213003008004B
:100B54007B15FB1FB42D0130F300F201F101F0010C
:080B6400FA0DF20CFF3008004D
:100B6C00C72D80302100D200D92DC030D200D92D14
:100B7C009430D200D92DD430D200D92D8030D2006F
:100B8C00D92D21005208013A0319B72D5208023A07
:100B9C000319BB2D5208033A0319BE2D5208043A0F
:100BAC000319C12DC42D5303F0005208F00770082F
:100BBC00D2007008E900B82221002410D601560892
:100BCC00540784000030553D850000080319F92DA9
:100BDC005608540784000030553D85000008DE009F
:0A0BEC003E25D60AE52D241408006A
:100BF600D6302100DC000030DD005208DE0053084C
:100C0600DF005408E0005508E100DC30E200003067
:100C1600E30090310020803170082100DA0071086D
:100C2600DB007008520786007108533D870081017A
:0A0C36005A08F0005B08F100080006
:100C4000210054088400550885000008F000700851
:100C500003194C2E5208DE005308DF0054088400AC
:100C6000550885000008E0004625D40A0319D50A76
:100C700054088400550885000008F0007008031926
:100C80004C2E54088400550885000008DE003E25DF
:0A0C9000D40A0319D50A382E080013
:100C9A00FB14FB1F572EFF30F300F200F100F000A7
:080CAA00FA0DF20CFF30080006
:100CB20021003C083D040319702E3C0884003D08C5
:100CC20085000008F00070080319702E0130D20070
:100CD2000130D3003C08D4003D08D500202608008E
:100CE200F130F100A830F20021003D087206031D28
:100CF2007C2E71083C060319872E00303D06031D29
:100D0200842E00303C060319872E882EA72EBE3073
:100D1200D2000030D3007B30D400AA30D5002000AE
:100D220050082100D600200051082100D7007B2561
:100D32000130D2000930D300BE30D4000030D500DB
:0E0D4200B62501302000D0020030D13B080061
:100D50007C18DE2EFC18AF2E7C19FD2EA82EA101CA
:100D60007208031DCF2E7108F2007008F100780898
:100D7000F000F801A1157208031DCF2E7108F200D2
:100D80007008F100F001A11121167208031DCF2E89
:100D90007108F200F101A11572080319F12E210862
:100DA000F302031D031CF52E0310F21BDE2EF80DBB
:100DB000F00DF10DF20DF30BD52EF52E7B1B701CF3
:100DC000F92EF81FF92EF00A0319F10A0319F20A95
:100DD000031DF92EF20CF10CF00CF30A0319FD2E91
:100DE000F92E0130FC009F25002F0230FC00AA25BF
:100DF000002F0430FC00A625002F0830FC004D26F3
:040E000000000800E6
:100E040001302100D2000930D3003E30D40000303C
:060E1400D500B625080020
:100E1A00A1017208031D222F7108F2007008F10067
:100E2A00F001A1157208031D222F7108F200F101C9
:100E3A00A111211672080319302F2108F302031D8C
:100E4A00031C342F0310F21B382FF00DF10DF20D95
:100E5A00F30B282F342F0130FC009F253B2F023043
:0E0E6A00FC00AA253B2F0430FC00A625080042
:100E780001302100D2000930D3004730D4000030BF
:060E8800D500B6250800AC
:100E8E0020007008F8007108F000F101F201F30182
:100E9E00FB01FC019630F300FA01F01F5C2FF809FC
:100EAE00F009F80A0319F00AFA177008F100780829
:0A0EBE00F000F801F2010D27080012
:0A0EC80071088A007008820008001B
:100ED2000330FC009530FD00FD0B6D2FFC0B6D2FD8
:020EE200080006
:100EE40021003108A83A031D792FF1303006031987
:100EF400842F00303106031D812F00303006031982
:100F0400842F852FE82F30082000D60021003108D7
:100F14002000D7003A083B043C043D040319AC2FDD
:100F24001830560784000030573D85003C08860081
:100F34003D0887000008F00001310008F100700846
:100F4400810071084131810041313A08F0003B08C9
:100F5400F100642720002A082B042C042D04031913
:100F6400C22F2C0886002D088700560881005708D8
:100F74004131810041312A08F0002B08F100642737
:100F840008302000560784000030573D85000008D3
:100F9400F00001310008F10001310008F2000131D4
:100FA4000008F30070082100B2007108B300720851
:100FB400B4007308B5007008710472047304031953
:0E0FC400E82F3208F0003308F100642708001F
:100FD20012001E00F003031DE92FF103031DE92F88
:020FE200080005
:0C0FE40020005608F0005708F10008003B
:101000002100A001A101A201A3016008F000610874
:10101000F100E00A0319E10A7008840071088500F4
:101020000008F00070082000EF0070080319002D80
:101030006F08253A03192C2821005E0886005F08F6
:10104000870020006F0881002100DE0A0319DF0AF3
:10105000A00A0319A10A05282100A701A801A201DD
:10106000A3016008E9006108EA0080319723883114
:101070007008E0007108E1007008840071088500C4
:101080000008F0000030F1007008E90080313025E0
:101090008831700803197E28A701A8012708F000ED
:1010A0002808F1000A30F4000030F5008031F22306
:1010B0008831210060088400610885000008F20082
:1010C00072087007A7000030713DA8003030A702F9
:1010D0000030A83BE00A0319E10A600884006108B7
:1010E00085000008F0000030F1007008E900803150
:1010F000302588317008031D4E28B128600884000F
:10110000610885000008F10071082A3A031DB12822
:1011100062088400630885000008F00001310008BF
:10112000F10070088400710885000008A7000131F3
:101130000008A800620884006308850002300007E8
:10114000F00000300131003DF100620886006308C4
:10115000870070088100710841318100E00A03199D
:10116000E10A60088400610885000008F100710848
:101170002E3A031D2529E00A0319E10A60088400BC
:10118000610885000008F10071082A3A031DF22861
:1011900062088400630885000008F000013100083F
:1011A000F10070088400710885000008A500013175
:1011B0000008A6006208840063088500023000076A
:1011C000F00000300131003DF10062088600630844
:1011D000870070088100710841318100E00A03191D
:1011E000E10A2429A501A6016008840061088500A0
:1011F0000008F0000030F1007008E900803130256F
:1012000088317008031924292508F0002608F10008
:101210000A30F4000030F5008031F22388312100DB
:1012200060088400610885000008F20072087007F9
:10123000A5000030713DA6003030A5020030A63B6D
:10124000E00A0319E10AF4282729A501A60160088C
:10125000F0006108F100E00A0319E10A7008840057
:101260007108850000082000EF00472A21002008AF
:10127000F0002108F100052D21002217792A792A92
:101280002100A2162100A217792A210062088400F9
:10129000630885000008F00001310008F1007008C3
:1012A0008400710885000008E40001310008E500B1
:1012B000620884006308850002300007F0000030F7
:1012C0000131003DF1006208860063088700700864
:1012D000810071084131810000306506031D7229CB
:1012E00000306406031D78296130E4000030E50019
:1012F000E601E7016608640784006708653D85002C
:10130000000803198E2901306607F0000030673DA0
:10131000F1007008E6007108E7007A292508260424
:1013200003199E2967082602031D982966082502CD
:1013300003189E292508E6002608E700280867020A
:10134000031DA429270866020318AB296608A70213
:101350006708A83BAD29A701A801A219C829270839
:10136000F0002808F1000130A7020030A83B700807
:1013700071040319C8295E0886005F0887002030C1
:101380008100DE0A0319DF0AA00A0319A10AAF29A6
:101390006608F2006708F30001306602F0000030D2
:1013A000673BF1007008E6007108E70072087304FB
:1013B0000319F52964088400650885005E08860025
:1013C0005F08870000088100DE0A0319DF0A013088
:1013D0006407F0000030653DF1007008E40071081A
:1013E000E500A00A0319A10AC829A21D102A27088E
:1013F000F0002808F1000130A7020030A83B700877
:1014000071040319102A5E0886005F0887002030E7
:101410008100DE0A0319DF0AA00A0319A10AF729CD
:101420000528210062088400630885000008F00098
:1014300001310008F100700884007108850000087F
:101440002000EF002100620884006308850002305C
:101450000007F00000300131003DF1006208860015
:101460006308870070088100710841318100210004
:101470006F30E4000030E5000130E6000030E700A6
:101480008E292100C030A2040030A304792A200054
:101490006F08003A031936296F086C3A03193C2982
:1014A0006F084C3A03193C296F086F3A03193C291D
:1014B0006F08643A03193F296F08693A03193F29F5
:1014C0006F08703A031940296F08583A03194029E8
:1014D0006F08783A031942296F08733A03194529AE
:1014E0006F08633A0319112A6F08753A0319412AE4
:1014F000372AC03021002205F1002308F200003015
:10150000F20500307206031D872A00307106031DA4
:10151000CB2A62088400630885000008F0000131CE
:101520000008F10070088400710885000008E400DC
:1015300001310008E500620884006308850002307C
:101540000007F00000300131003DF1006208860024
:101550006308870070088100710841318100803084
:101560006506F00080307002031DB82A0030640266
:101570000318CA2A0330A2040030A3046408003C04
:10158000F0006508031C013EF101F1027008E4005F
:101590007108E500F12A62088400630885000008EC
:1015A000F00001310008F100700884007108850026
:1015B0000008E40001310008E500620884006308C7
:1015C000850002300007F00000300131003DF100DD
:1015D0006208860063088700700881007108413145
:1015E000810000302606031DF72A00302506031D62
:1015F000042B00306506031DFF2A00306406031D1E
:10160000042BA50A0319A60AC0302205F0007008B1
:10161000F300792B01302000EF006F08053A031921
:101620002E2B6F08F000F101F035F10DF630700748
:1016300084008F30713D85000008F1000131000801
:10164000F200720821006502031D282B7108640254
:1016500003182B2B2E2B2000EF0A0D2B892B20009B
:101660000130EF006F08043A0319532B6F08F000A4
:10167000F101F035F10DF830700784008730713DCD
:1016800085000008F10001310008F2007208210015
:101690006502031D4D2B710864020318502B532B58
:1016A0002000EF0A322B892B20000130EF006F0859
:1016B000063A0319782B6F08F000F101F035F10DAF
:1016C000F230700784009F30713D85000008F10002
:1016D00001310008F200720821006502031D722B1F
:1016E000710864020318752B782B2000EF0A572B22
:1016F000892B7308003A03190A2B7308C03A03199F
:101700000A2B7308803A03192F2B7308403A0319E8
:10171000542B8030F0008030210026067002031D1B
:10172000942B250820006F0203189B2B210025080D
:101730002000EF00AE2B803021002606F000803024
:101740007002031DA72B20006F082100250203183B
:10175000AE2B20006F082100A500A601210027085C
:1017600028040319C22B03302205F0002308F100DE
:101770000030F105700871040319C22B0130A70273
:101780000030A83B80302606F0008030280670022A
:10179000031DCC2B270825020318D32B2508A702ED
:1017A0002608A83BD52BA701A801C4302205F100CB
:1017B00023080839F2007208083A031DE12B403073
:1017C0007106031DEC2B270828040319EB2B0130AD
:1017D000A7020030A83B0C2CC0302205F1002308E2
:1017E0000839F2007208083A031DF82B80307106A0
:1017F000031D0C2C8030F000803028067002031D81
:10180000032C2708023C03180A2C0230A7020030E0
:10181000A83B0C2CA701A8015E08E9005F08EA00BC
:1018200080311C2488317008DE007108DF00250833
:10183000F0002608F1000130A5020030A63B700838
:1018400071040319DE2CC0302205F0007008E80096
:10185000BD2C2508F0002608F100F035F10DF6301A
:10186000700784008F30713D85000008F40001315D
:101870000008F5006408F0006508F10080311523C8
:1018800088310A30F4000030F500803115238831AA
:101890007808F0007908F10030307007EF00CE2CA6
:1018A0002100A21E782C2508F0002608F100F03552
:1018B000F10DF830700784008730713D8500000815
:1018C000F40001310008F5006408F0006508F1003B
:1018D0008031152388310F30F0050030F105F330E9
:1018E00070078400A930713D85000008EF009D2C31
:1018F00021002508F0002608F100F035F10DF83040
:10190000700784008730713D85000008F4000131C4
:101910000008F5006408F0006508F1008031152327
:1019200088310F30F0050030F105E2307007840097
:10193000A930713D85000008EF00CE2C210025085C
:10194000F0002608F100F035F10DF2307007840048
:101950009F30713D85000008F40001310008F5005A
:101960006408F0006508F1008031152388310730E4
:101970007005EF003030EF07CE2C21006808003AE8
:101980000319292C6808C03A0319292C6808803AE1
:101990000319502C6808403A03199E2C21005E0858
:1019A00086005F08870020006F0881002100DE0AA2
:1019B0000319DF0AA00A0319A10A172CA21DFF2C84
:1019C0008030F000803028067002031DE92C2708C3
:1019D000003C0318FF2C5E0886005F08870020305B
:1019E0008100DE0A0319DF0AA00A0319A10A0130E7
:1019F000A7020030A83B27082804031DEB2C05286C
:0C1A000021002008F0002108F10008007F
:101A0C0030302100BE00F130F100A830F2003D086A
:101A1C007206031D132D71083C0603191E2D003090
:101A2C003D06031D1B2D00303C0603191E2D1F2DDA
:101A3C00D42E1A303C07840000303D3D8500000850
:101A4C00F30001310008F4008D30F100AA30F200EF
:101A5C0074087206031D342D7108730603194A2D80
:101A6C001A303C07840000303D3D85000008F10031
:101A7C0001310008F20000307206031D472D0030C2
:101A8C00710603194A2D4B2DD42E1A303C078400B5
:101A9C0000303D3D85000008F00001310008F100E8
:101AAC000130700784000030713D85000008F100A2
:101ABC0001310008F20000307206031D672D003062
:101ACC007106031D6A2DD42E1A303C078400003099
:101ADC003D3D85000008F00001310008F1000330A5
:101AEC00700784000030713D85000008F10008305B
:101AFC0071020318BD2D1A303C07840000303D3DA7
:101B0C0085000008F20001310008F3000130720773
:101B1C0084000030733D85000008F000013100089E
:101B2C00F10070088400710885000008F40003308F
:101B3C00720784000030733D85000008F0007008C7
:101B4C00F2000130F0000030F10072080319B22DE0
:101B5C00F035F10DFF3EAC2D7408F0050030F105A9
:101B6C00700871040319BC2D3130BE00CB2E1A3015
:101B7C003C07840000303D3D85000008F000013139
:101B8C000008F1000330700784000030713D8500BF
:101B9C000008F100103071020318132E1A303C07A4
:101BAC00840000303D3D85000008F2000131000842
:101BBC00F3000130720784000030733D850000088B
:101BCC00F00001310008F1007008840071088500F4
:101BDC000008F40001310008F5000330720784009E
:101BEC000030733D85000008F0007008F2000130F1
:101BFC00F0000030F10072080319082EF035F10DD9
:101C0C00FF3E022E7408F0057508F105700871048A
:101C1C000319122E3130BE00CB2E1A303C07840033
:101C2C0000303D3D85000008F00001310008F10056
:101C3C000330700784000030713D85000008F1000E
:101C4C002030710203187B2E1A303C0784000030C0
:101C5C003D3D85000008F20001310008F300013021
:101C6C00720784000030733D85000008F0000131DC
:101C7C000008F10070088400710885000008F50068
:101C8C0001310008F60001310008F70001310008AD
:101C9C00F8000330720784000030733D85000008A3
:101CAC00F0007008F4000130F0000030F10000305A
:101CBC00F2000030F300740803196A2EF035F10DB0
:101CCC00F20DF30DFF3E622E7508F0057608F10556
:101CDC007708F2057808F305700871047204730430
:101CEC0003197A2E3130BE00CB2E1A303C078400FB
:101CFC0000303D3D85000008F20001310008F30082
:101D0C000130720784000030733D85000008F0003C
:101D1C0001310008F100700884007108850000088A
:101D2C00F50001310008F60001310008F70001311F
:101D3C000008F8000330720784000030733D850002
:101D4C000008F0007008F4000130F0000030F100E1
:101D5C000030F2000030F30074080319BB2EF0358C
:101D6C00F10DF20DF30DFF3EB32E7508F00576085C
:101D7C00F1057708F2057808F30570087104720410
:101D8C0073040319CB2E3130BE000130DE000F304E
:0E1D9C00DF003E08E000803146258831080057
:101DAA00200072087606A100F801F901730877028B
:101DBA00031CF72E7708FD007308F7007D08F3006F
:101DCA007608FD007208F6007D08F2007508FD002D
:101DDA007108F5007D08F1007408FD007008F40030
:101DEA007D08F00077080319782F7208FA00F217B5
:101DFA00F61777087302F70003192A2F08307702BB
:101E0A00031C202FF7007408F9007508F4007608FF
:101E1A00F500F60108307702031C202FF70074083A
:101E2A00F9007508F400F50108307702031C202F29
:101E3A007A08F200782F770803192A2F0310F60C74
:101E4A00F50CF40CF90CF70B232FA11F372FF90906
:101E5A00F409F509F609F90A0319F40A0319F50A46
:101E6A000319F60A7908F80774080318740FF007BB
:101E7A0075080318750FF10776080318760FF2072D
:101E8A00A11B502F031C602FF20CF10CF00CF80C64
:101E9A00F30F602F722F0318662FF809F009F10962
:101EAA00F209F80A0319F00A0319F10A0319F20AE6
:101EBA008030FA066C2F0130FC008031A826883168
:101ECA007A2F0230FC008031A82688317A2F04301C
:101EDA00FC0080310D2788317A2F0830FC008031D0
:0E1EEA004D2688317A2F0030FC0000000800E1
:101EF8002100B6013208F1000130F0007108031921
:101F0800882FF035FF3E832F7008B5003008840015
:101F18003108850070080005F10071080130031DC3
:101F28000030F0003408F0060319B82F3308003CDD
:101F38000318A62F803169278831803169278831B5
:101F4800B3039A2F3008840031088500350800054E
:101F5800F10071080130031D0030F0003408F0066C
:0E1F68000319B82FFF30B6003608F00008004D
:101F760020005708A83A031DC22FF1305606031950
:101F8600CD2F00305706031DCA2F00305606031901
:101F9600CD2FCE2FF52F0C30560784000030573D3D
:101FA60085000008F00001310008F1000131000849
:101FB600F20001310008F30070082100AA00710840
:101FC600AB007208AC007308AD00700871047204AF
:101FD60073040319F52F2A08F0002B08F10080314D
:061FE600642788310800A9
:102000002000E801E901EA01EB0121006008F0008D
:102010006108F100E00A0319E10A70088400710800
:1020200085000008F00070082000EC00700803191B
:102030001F2E6C08253A03192E2821005E08860001
:102040005F08870020006C0881002100DE0A031968
:10205000DF0A2000E80A0319E90A0528E601E7017A
:10206000EA01EB0121006008E9006108EA00803123
:10207000312390317008E0007108E100700884009D
:10208000710885000008F0000030F1007008E900D8
:102090008031302590317008031984282000E60132
:1020A000E70120006608F0006708F1000A30F4003C
:1020B0000030F5008031F223903121006008840067
:1020C000610885000008F200720870072000E60031
:1020D0000030713DE7003030E6020030E73B210080
:1020E000E00A0319E10A600884006108850000081D
:1020F000F0000030F1007008E900803130259031A7
:102100007008031D5128B928600884006108850003
:102110000008F10071082A3A031DB92862088400FA
:10212000630885000008F00001310008F100700824
:1021300084007108850000082000E60001310008D5
:10214000E700210062088400630885000230000770
:10215000F00000300131003DF100620886006308A4
:10216000870070088100710841318100E00A03197D
:10217000E10A60088400610885000008F100710828
:102180002E3A031D3429E00A0319E10A600884008D
:10219000610885000008F10071082A3A031DFC2837
:1021A00062088400630885000008F000013100081F
:1021B000F100700884007108850000082000ED001F
:1021C00001310008EE0021006208840063088500E8
:1021D00002300007F00000300131003DF1006208DC
:1021E0008600630887007008810071084131810012
:1021F000E00A0319E10A33292000ED01EE01210074
:1022000060088400610885000008F0000030F100DB
:102210007008E900803130259031700803193329A6
:1022200020006D08F0006E08F1000A30F400003064
:10223000F5008031F22390312100600884006108AC
:1022400085000008F200720870072000ED000030E1
:10225000713DEE003030ED020030EE3B2100E00A2F
:102260000319E10AFF2837292000ED01EE012100C2
:102270006008F0006108F100E00A0319E10A700843
:1022800084007108850000082000EC006D2A6808B1
:10229000F0006908F100232E6A1637296A179E2A72
:1022A0009E2AEA16EA179E2A210062088400630823
:1022B00085000008F00001310008F100700884007A
:1022C000710885000008E40001310008E50062089B
:1022D00084006308850002300007F00000300131FF
:1022E000003DF100620886006308870070088100E5
:1022F00071084131810000306506031D81290030DD
:102300006406031D87295C30E4000030E500E60127
:10231000E7016608640784006708653D85000008DA
:1023200003199D2901306607F0000030673DF10078
:102330007008E6007108E700892920006D086E0426
:102340000319B5292100670820006E02031DAC297E
:102350002100660820006D020318B5296D082100D0
:10236000E60020006E082100E70020006708210039
:102370006702031DBF2920006608210066020318BA
:10238000C92966082000E602210067082000E73B13
:10239000CC292000E601E701EA19E9296608F000E6
:1023A0006708F1000130E6020030E73B7008710475
:1023B0000319E92921005E0886005F0887002030A4
:1023C0008100DE0A0319DF0A2000E80A0319E90A7E
:1023D000CE2921006608F2006708F300013066028A
:1023E000F0000030673BF1007008E6007108E7007C
:1023F000720873040319182A6408840065088500AC
:102400005E0886005F08870000088100DE0A031965
:10241000DF0A01306407F0000030653DF10070080C
:10242000E4007108E5002000E80A0319E90AE92937
:102430002000EA1D362A6608F0006708F100013026
:10244000E6020030E73B700871040319362A2100C8
:102450005E0886005F08870020308100DE0A0319CD
:10246000DF0A2000E80A0319E90A1B2A05282100CF
:1024700062088400630885000008F000013100084C
:10248000F100700884007108850000082000EC004D
:102490002100620884006308850002300007F00014
:1024A00000300131003DF1006208860063088700BA
:1024B0007008810071084131810021006C30E40016
:1024C0000030E5000130E6000030E7009D29C03013
:1024D0002000EA040030EB049E2A6C08003A03193D
:1024E00047296C086C3A03194C296C084C3A0319BB
:1024F0004C296C086F3A03194E296C08643A031989
:1025000050296C08693A031950296C08703A03196C
:1025100051296C08583A031951296C08783A031963
:1025200052296C08733A031954296C08633A031949
:10253000372A6C08753A0319672A5D2AC0306A0584
:10254000F1006B08F2000030F20500307206031D46
:10255000AB2A00307106031D3F2B6A1EDD2A2100C5
:1025600062088400630885000008F000013100085B
:10257000F10070088400710885000008E400013152
:102580000008E50001310008E60001310008E7001D
:10259000620884006308850004300007F000003002
:1025A0000131003DF1006208860063088700700871
:1025B0008100710841318100112B210062088400E3
:1025C000630885000008F00001310008F100700880
:1025D0008400710885000008F00001310008F10056
:1025E0000030F11BFF30F200F3007008E4007108C6
:1025F000E5007208E6007308E700620884006308DB
:10260000850002300007F00000300131003DF1008C
:1026100062088600630887007008810071084131F4
:10262000810080306706F00080307002031D222B8D
:1026300000306602031D222B00306502031D222B91
:102640000030640203183E2B03302000EA040030FF
:10265000EB04F001F101F201F30121006408F00242
:102660006508F13B6608F23B6708F33B7008E4003D
:102670007108E5007208E6007308E700992B200056
:102680006A1E702B21006208840063088500000820
:10269000F00001310008F100700884007108850025
:1026A0000008E40001310008E50001310008E600FF
:1026B00001310008E70062088400630885000430E7
:1026C0000007F00000300131003DF1006208860093
:1026D0006308870070088100710841318100992BDF
:1026E000210062088400630885000008F0000131C1
:1026F0000008F10070088400710885000008E400FB
:1027000001310008E500E601E70162088400630882
:10271000850002300007F00000300131003DF1007B
:1027200062088600630887007008810071084131E3
:102730008100003020006E06031DA02B00306D06C6
:10274000031DB82B0030F00021006706031DB22BDB
:1027500070086606031DB22B70086506031DB22BB8
:102760006408003A031DB82B2000ED0A0319EE0A95
:102770002000C0306A05F0007008F5005E2C2000D3
:102780000130EC006C080A3A0319F32B6C08F000D6
:10279000F101F035F10DF035F10D9E307007840038
:1027A000A730713D85000008F10001310008F200FA
:1027B00001310008F30001310008F4007408210021
:1027C0006702031DED2B73086602031DED2B7208D3
:1027D0006502031DED2B710864020318F02BF32B27
:1027E0002000EC0AC22B6E2C20000130EC006C089B
:1027F000083A0319282C6C08F000F101F035F10DAE
:10280000F035F10DC63070078400A730713D8500AA
:102810000008F10001310008F20001310008F30066
:1028200001310008F400740821006702031D222C06
:1028300073086602031D222C72086502031D222CF8
:10284000710864020318252C282C2000EC0AF72BB1
:102850006E2C20000130EC006C080C3A03195D2C42
:102860006C08F000F101F035F10DF035F10D6E302E
:1028700070078400A730713D85000008F100013128
:102880000008F20001310008F30001310008F400F3
:10289000740821006702031D572C73086602031D8C
:1028A000572C72086502031D572C71086402031827
:1028B0005A2C5D2C2000EC0A2C2C6E2C7508003A4A
:1028C0000319BF2B7508C03A0319BF2B7508803A4E
:1028D0000319F42B7508403A0319292C2000803085
:1028E000F00080306E067002031D782C6D086C02BB
:1028F00003187D2C6D08EC008B2C80306E06F000E8
:1029000080307002031D862C6C086D0203188B2C1E
:102910006C08ED00EE016608670403199E2C033075
:102920006A05F0006B08F1000030F10570087104D1
:1029300003199E2C0130E6020030E73B80306E0622
:10294000F000803067067002031DA82C66086D0237
:102950000318AF2C6D08E6026E08E73BB12CE601C8
:10296000E701C4306A05F1006B080839F20072080B
:10297000083A031DBD2C40307106031DC82C6608A3
:1029800067040319C72C0130E6020030E73BE82C4E
:10299000C0306A05F1006B080839F2007208083A85
:1029A000031DD42C80307106031DE82C8030F0000C
:1029B000803067067002031DDF2C6608023C031896
:1029C000E62C0230E6020030E73BE82CE601E701A6
:1029D00021005E08E9005F08EA0080318E21903115
:1029E0007008DE007108DF0020006D08F0006E083E
:1029F000F1000130ED020030EE3B70087104031964
:102A0000FB2DC0306A05F00070082100E800D92DC8
:102A100020006D08F0006E08F100F035F10DF03582
:102A2000F10D9E3070078400A730713D85000008CD
:102A3000F40001310008F50001310008F600013111
:102A40000008F70021006408F0006508F10066083E
:102A5000F2006708F3008031172090310A30F4004B
:102A6000F501F601F7018031172090317808F00068
:102A70007908F1007A08F2007B08F3003030700723
:102A8000EC00EA2D2000EA1E792D6D08F0006E089A
:102A9000F100F035F10DF035F10DC630700784000E
:102AA000A730713D85000008F40001310008F500F1
:102AB00001310008F60001310008F7002100640828
:102AC000F0006508F1006608F2006708F300803145
:102AD000172090310F30F0050030F105F205F305B5
:102AE000E63070078400A730713D85000008EC00D7
:102AF000AC2D6D08F0006E08F100F035F10DF035E9
:102B0000F10DC63070078400A730713D85000008C4
:102B1000F40001310008F50001310008F600013130
:102B20000008F70021006408F0006508F10066085D
:102B3000F2006708F3008031172090310F30F00564
:102B40000030F105F205F305483070078400AA3023
:102B5000713D85000008EC00EA2D20006D08F000B2
:102B60006E08F100F035F10DF035F10D6E307007A3
:102B70008400A730713D85000008F4000131000891
:102B8000F50001310008F60001310008F7002100CE
:102B90006408F0006508F1006608F2006708F300B9
:102BA00080311720903107307005EC003030EC0791
:102BB000EA2D21006808003A0319082D6808C03A78
:102BC0000319082D6808803A0319422D6808403A15
:102BD0000319AD2D21005E0886005F0887002000E4
:102BE0006C0881002100DE0A0319DF0A2000E80AD0
:102BF0000319E90AF42CEA1D1E2E8030F000803003
:102C000067067002031D062E6608003C03181E2E80
:102C100021005E0886005F08870020308100DE0A00
:102C20000319DF0A2000E80A0319E90A0130E60265
:102C30000030E73B66086704031D082E0528680876
:082C4000F0006908F100080032
:102C4800F130F100A830F20021003D087206031DA2
:102C58002F2E71083C0603193A2E00303D06031D3D
:102C6800372E00303C0603193A2E3B2E892F1A3096
:102C78003C07840000303D3D85000008F300013129
:102C88000008F4008D30F100AA30F20074087206D2
:102C9800031D502E710873060319662E1A303C075F
:102CA800840000303D3D85000008F1000131000836
:102CB800F20000307206031D632E003071060319FE
:102CC800662E672E892F1A303C07840000303D3D60
:102CD80085000008F00001310008F100013070079C
:102CE80084000030713D85000008F10001310008C2
:102CF800F20000307206031D832E00307106031D9A
:102D0800862E892F1A303C07840000303D3D85000F
:102D18000008F00001310008F10003307007D0000E
:102D28000030713DD100552F1A303C078400003027
:102D38003D3D85000008F00001310008F100013038
:102D4800700784000030713D85000008F0000131F3
:102D58000008F10070088400710885000008BE00B2
:102D6800BF010030BF00C030D2000030D300B73000
:102D7800D400AA30D5003E08D6003F08D7008031DD
:102D88007B2590317E2FC030D2000030D300B33085
:102D9800D400AA30D5001A303C07840000303D3DED
:102DA80085000008F00001310008F10001307007CB
:102DB80084000030713D85000008F00001310008F2
:102DC800F10070088400710885000008D600013100
:102DD8000008D70080317B2590317E2FC030D2008B
:102DE8000030D300A530D400AA30D5001A303C07F3
:102DF800840000303D3D85000008F00001310008E6
:102E0800F1000130700784000030713D8500000832
:102E1800F00001310008F100700884007108850095
:102E28000008D60001310008D70001310008D80099
:102E380001310008D9008031FB2590317E2FC03048
:102E4800D2000030D3008730D400AA30D5001A3021
:102E58003C07840000303D3D85000008F00001314A
:102E68000008F1000130700784000030713D8500D2
:102E78000008F00001310008F100700884007108B2
:102E880085000008D60001310008D700013100088C
:102E9800D80001310008D9008031FB2590317E2F00
:102EA8007E2F50088400510885000008F100710841
:102EB800013A0319982E500884005108850000082B
:102EC800F1007108023A0319C72E5008840051080E
:102ED80085000008F1007108043A0319F22E500821
:102EE8008400510885000008F1007108083A0319A8
:102EF800232F542F0130D2000D30D300C030D4001E
:0C2F08000030D5008031B6259031080063
:102F14000D302100B0000030B100B2019630B30092
:102F2400B40188317C279031700803199C2F01303B
:102F3400F000F72F0D30B0000030B1000130B200C6
:102F44009630B300B40188317C279031700803199E
:102F5400AE2F0230F000F72F0D30B0000030B1007A
:102F64000230B2009630B300B40188317C2790312E
:102F740070080319C02F0330F000F72F0D30B00094
:102F84000030B1000330B2009630B300B401883190
:102F94007C27903170080319D22F0630F000F72FE8
:102FA4000D30B0000030B1000430B2009630B300F0
:102FB400B40188317C27903170080319E42F05305F
:102FC400F000F72F0D30B0000030B1000530B20032
:102FD4009630B300B40188317C279031700803190E
:0C2FE400F62F0430F000F72FF001080079
:10300000F130F100A830F20021003D087206031DE6
:103010000B2871083C060319162800303D06031DD5
:10302000132800303C060319162817286A291A307D
:103030003C07840000303D3D85000008F30001316D
:103040000008F4008D30F100AA30F2007408720616
:10305000031D2C2871087306031942281A303C07F7
:10306000840000303D3D85000008F100013100087A
:10307000F20000307206031D3F280030710603196C
:10308000422843286A291A303C07840000303D3D1D
:1030900085000008F00001310008F10001307007E0
:1030A00084000030713D85000008F1000131000806
:1030B000F20000307206031D5F2800307106031D08
:1030C00062286A291A303C07840000303D3D8500A3
:1030D0000008F00001310008F10003307007D00053
:1030E0000030713DD10036291A303C078400003091
:1030F0003D3D85000008F00001310008F10001307D
:10310000700784000030713D85000008F000013137
:103110000008F10070088400710885000008BE00F6
:103120000030BE1BFF30BF000030BE1BFF30BF00B1
:10313000C030D2000030D300BB30D400AA30D5005C
:103140003E08D6003F08D70080317B2598315F29A3
:10315000C030D2000030D300AF30D400AA30D50048
:103160001A303C07840000303D3D85000008F00027
:1031700001310008F1000130700784000030713D1A
:1031800085000008F00001310008F100700884009B
:10319000710885000008D60001310008D700803191
:1031A0007B2598315F29C030D2000030D300AA308F
:1031B000D400AA30D5001A303C07840000303D3DD1
:1031C00085000008F00001310008F10001307007AF
:1031D00084000030713D85000008F00001310008D6
:1031E000F10070088400710885000008D6000131E4
:1031F0000008D70001310008D80001310008D900CB
:103200008031FB2598315F29C030D2000030D300D7
:103210009330D400AA30D5001A303C078400003027
:103220003D3D85000008F00001310008F10001304B
:10323000700784000030713D85000008F000013106
:103240000008F10070088400710885000008D600AD
:1032500001310008D70001310008D8000131000811
:10326000D9008031FB2598315F295F2950088400FF
:10327000510885000008F1007108013A031974280B
:1032800050088400510885000008F1007108023AD6
:103290000319A82850088400510885000008F1008F
:1032A0007108043A0319D328500884005108850096
:1032B0000008F1007108083A031904293529013082
:1032C000D2000D30D300C030D4000030D5008031A2
:0632D000B625983108004C
:1032D6001A302100380784000030393D8500000887
:1032E600F00001310008F10004307007840000305E
:1032F600713D85000008F10001310008F2007208F6
:10330600973A031D8829F83071060319A9291A303E
:10331600380784000030393D85000008F00001318F
:103326000008F1000430700784000030713D85000C
:103336000008F10001310008F20000307206031D9A
:10334600A629003071060319A929E6291A3038077B
:1033560084000030393D85000008F0000131000886
:10336600F1000130700784000030713D85000008CF
:10337600F40001310008F500740884007508850022
:103386003A080007F0003B080131003DF10000302B
:10339600BB1BFF300131003DF2000030BB1BFF308C
:1033A6000131003DF3007408860075088700700837
:1033B6008100710841318100720841318100730832
:1033C600413181005C2B1A30380784000030393DCA
:1033D60085000008F20001310008F3000130720791
:1033E60084000030733D85000008F00001310008BC
:1033F600F10070088400710885003A080007F6009D
:103406003B080131003DF7000030BB1BFF300131A6
:10341600003DF8000030BB1BFF300131003DF900D4
:103426000430720784000030733D85000008F00008
:1034360001310008F1007008840071088500000859
:10344600F20001310008F30001310008F4000131F7
:103456000008F50080307906F000803075067002AD
:10346600031D3F2A74087802031D3F2A730877025A
:10347600031D3F2A720876020318812A1A3038077C
:1034860084000030393D85000008F0000131000855
:10349600F1000130700784000030713D850000089E
:1034A600F40001310008F500043070078400003094
:1034B600713D85000008F00001310008F100700838
:1034C6008400710885000008F00001310008F10051
:1034D60001310008F20001310008F300740886008B
:1034E60075088700700881007108413181007208F3
:1034F600413181007308413181005C2B1A30380755
:1035060084000030393D85000008F20001310008D2
:10351600F3000130720784000030733D8500000817
:10352600F00001310008F100700884007108850080
:103536003A080007F5003B080131003DF60000306F
:10354600BB1BFF300131003DF7000030BB1BFF30D5
:103556000131003DF8000430720784000030733DED
:1035660085000008F00001310008F1000430700702
:1035760084000030713D85000008F100013100082B
:10358600F20001310008F30001310008F400803038
:103596007406F000803078067002031DDC2A770876
:1035A6007302031DDC2A76087202031DDC2A7508E5
:1035B60071020318202B1A30380784000030393D79
:1035C60085000008F00001310008F10001307007A5
:1035D60084000030713D85000008F40001310008C8
:1035E600F5000430700784000030713D8500000846
:1035F600F00001310008F10004307007840000304B
:10360600713D85000008F00001310008F10001312C
:103616000008F20001310008F300740886007508FE
:1036260087007008810071084131810072084131BC
:1036360081007308413181005C2B1A303807840001
:103646000030393D85000008F00001310008F10026
:103656000130700784000030713D85000008F400D9
:1036660001310008F50074088400750885003A08E1
:103676000007F0003B080131003DF1000030BB1BA4
:10368600FF300131003DF2000030BB1BFF3001313D
:10369600003DF300740886007508870070088100F5
:1036A600710841318100720841318100730841314E
:0436B6008100080087
:1036BA001A302100380784000030393D850000089F
:1036CA00F00001310008F100043070078400003076
:1036DA00713D85000008F10001310008F20072080E
:1036EA00973A031D7A2BF830710603199B2B1A306F
:1036FA00380784000030393D85000008F0000131A8
:10370A000008F1000430700784000030713D850024
:10371A000008F10001310008F20000307206031DB2
:10372A00982B0030710603199B2BC62B1A303807C9
:10373A0084000030393D85000008F000013100089E
:10374A00F1000130700784000030713D85000008E7
:10375A00F20001310008F300720884007308850042
:10376A003A080007F0003B080131003DF1007208F9
:10377A008600730887007008810071084131810052
:10378A00022D1A30380784000030393D85000008C0
:10379A00F20001310008F3000130720784000030A2
:1037AA00733D85000008F00001310008F10070083F
:1037BA008400710885003A080007F6003B080131C9
:1037CA00003DF7000430720784000030733D850025
:1037DA000008F00001310008F10070088400710847
:1037EA0085000008F20001310008F30001310008E9
:1037FA00F40001310008F5008030F71B7F30F0003B
:10380A00803075067002031D182C0030F71BFF303C
:10381A00F00074087002031D182C73087702031D48
:10382A00182C7208760203184E2C1A3038078400B6
:10383A000030393D85000008F00001310008F10030
:10384A000130700784000030713D85000008F200E5
:10385A0001310008F3000430700784000030713D24
:10386A0085000008F00001310008F10070088400AA
:10387A00710885000008F00001310008F1007208A3
:10388A008600730887007008810071084131810041
:10389A00022D1A30380784000030393D85000008AF
:1038AA00F20001310008F300013072078400003091
:1038BA00733D85000008F00001310008F10070082E
:1038CA008400710885003A080007F5003B080131B9
:1038DA00003DF6000430720784000030733D850015
:1038EA000008F00001310008F1000430700784007C
:1038FA000030713D85000008F10001310008F20036
:10390A0001310008F30001310008F4008030740628
:10391A00F0008030F61B7F307002031DA02C0030AF
:10392A00F61BFF307302031DA02C76087202031DDA
:10393A00A02C750871020318D82C1A303807840095
:10394A000030393D85000008F00001310008F1001F
:10395A000130700784000030713D85000008F200D4
:10396A0001310008F3000430700784000030713D13
:10397A0085000008F00001310008F10004307007EA
:10398A0084000030713D85000008F0000131000814
:10399A00F1007208860073088700700881007108B8
:1039AA0041318100022D1A30380784000030393D38
:1039BA0085000008F00001310008F10001307007AD
:1039CA0084000030713D85000008F20001310008D2
:1039DA00F30072088400730885003A080007F000B3
:1039EA003B080131003DF100720886007308870028
:0C39FA0070088100710841318100080054
:103A06001A302100380784000030393D850000084F
:103A1600F00001310008F100043070078400003026
:103A2600713D85000008F10001310008F2007208BE
:103A3600973A031D202DF83071060319412D1A30CF
:103A4600380784000030393D85000008F000013158
:103A56000008F1000430700784000030713D8500D5
:103A66000008F10001310008F20000307206031D63
:103A76003E2D003071060319412D7E2D1A30380770
:103A860084000030393D85000008F000013100084F
:103A9600F1000130700784000030713D8500000898
:103AA600F40001310008F5007408840075088500EB
:103AB6003A080007F0003B080131003DF1000030F4
:103AC600BB1BFF300131003DF2000030BB1BFF3055
:103AD6000131003DF3007408860075088700700800
:103AE60081007108413181007208413181007308FB
:103AF60041318100F42E1A30380784000030393DF8
:103B060085000008F20001310008F3000130720759
:103B160084000030733D85000008F0000131000884
:103B2600F10070088400710885003A080007F60065
:103B36003B080131003DF7000030BB1BFF3001316F
:103B4600003DF8000030BB1BFF300131003DF9009D
:103B56000430720784000030733D85000008F000D1
:103B660001310008F1007008840071088500000822
:103B7600F20001310008F30001310008F4000131C0
:103B86000008F50080307906F00080307506700276
:103B9600031DD72D74087802031DD72D73087702ED
:103BA600031DD72D720876020318192E1A3038070E
:103BB60084000030393D85000008F000013100081E
:103BC600F1000130700784000030713D8500000867
:103BD600F40001310008F50004307007840000305D
:103BE600713D85000008F00001310008F100700801
:103BF6008400710885000008F00001310008F1001A
:103C060001310008F20001310008F3007408860053
:103C160075088700700881007108413181007208BB
:103C260041318100730841318100F42E1A30380782
:103C360084000030393D85000008F200013100089B
:103C4600F3000130720784000030733D85000008E0
:103C5600F00001310008F100700884007108850049
:103C66003A080007F5003B080131003DF600003038
:103C7600BB1BFF300131003DF7000030BB1BFF309E
:103C86000131003DF8000430720784000030733DB6
:103C960085000008F00001310008F10004307007CB
:103CA60084000030713D85000008F10001310008F4
:103CB600F20001310008F30001310008F400803001
:103CC6007406F000803078067002031D742E7708A3
:103CD6007302031D742E76087202031D742E750876
:103CE60071020318B82E1A30380784000030393DA7
:103CF60085000008F00001310008F100013070076E
:103D060084000030713D85000008F4000131000890
:103D1600F5000430700784000030713D850000080E
:103D2600F00001310008F100043070078400003013
:103D3600713D85000008F00001310008F1000131F5
:103D46000008F20001310008F300740886007508C7
:103D56008700700881007108413181007208413185
:103D66008100730841318100F42E1A30380784002F
:103D76000030393D85000008F00001310008F100EF
:103D86000130700784000030713D85000008F400A2
:103D960001310008F50074088400750885003A08AA
:103DA6000007F0003B080131003DF1000030BB1B6D
:103DB600FF300131003DF2000030BB1BFF30013106
:103DC600003DF300740886007508870070088100BE
:103DD6007108413181007208413181007308413117
:043DE6008100080050
:103DEA0021003108A83A031DFC2EF13030060319D0
:103DFA00072F00303106031D042F00303006031947
:103E0A00072F082FD62F2000320833043404350434
:103E1A000319292F34088600350887002100300845
:103E2A008100310841318100413132088100330873
:103E3A0041318100413120003208F0003308F1009D
:103E4A00803164279831D62F1A3021003007840038
:103E5A000030313D85000008F10001310008F20010
:103E6A007208AA3A031D3B2F8D3071060319512F90
:103E7A001A30300784000030313D85000008F10017
:103E8A0001310008F20000307206031D4E2F003087
:103E9A0071060319512F522FD62F21001A303007DD
:103EAA0084000030313D85000008F000013100082F
:103EBA00F1000130700784000030713D8500000870
:103ECA00F10001310008F20000307206031D6F2F65
:103EDA0000307106031D722FD62F1A303007840066
:103EEA000030313D85000008F00001310008F10082
:103EFA0003307007B4000030713DB500AE2F3008B2
:103F0A00B8003108B9003208BA003308BB00A03142
:103F1A0000209831D62F3008B8003108B90032088D
:103F2A00BA003308BB005D23D62F3008B800310829
:103F3A00B9003208BA003308BB000325D62F30086F
:103F4A00B8003108B9003208BA003308BB006B2147
:103F5A00D62F34088400350885000008F10071085E
:103F6A00013A0319842F34088400350885000008B3
:103F7A00F1007108023A0319902F340884003508B9
:103F8A0085000008F1007108043A03199A2F3408D1
:103F9A008400350885000008F1007108083A031901
:043FAA00A42F080038
:103FAE0021002A082000D20021002B082000D30077
:103FBE0021002C082000D40021002D082000D5005F
:103FCE0056082100B000200057082100B1008031B2
:063FDE0072279831080073
:104000001A302100380784000030393D850000084F
:10401000F00001310008F100043070078400003026
:10402000713D85000008F10001310008F2007208BE
:10403000973A031D1D28F830710603193E281A30DF
:10404000380784000030393D85000008F000013158
:104050000008F1000430700784000030713D8500D5
:104060000008F10001310008F20000307206031D63
:104070003B280030710603193E2862281A303807A1
:1040800084000030393D85000008F000013100084F
:10409000F1000130700784000030713D8500000898
:1040A000F10001310008F2007108840072088500F7
:1040B0003A080007F000710886007208870070084F
:1040C000810091291A30380784000030393D85007D
:1040D0000008F20001310008F3000130720784008B
:1040E0000030733D85000008F00001310008F10048
:1040F00070088400710885000008F00070083A0715
:10410000F6000030F01BFF303B3DF7000430720733
:1041100084000030733D85000008F0000131000884
:10412000F10070088400710885000008F200013178
:104130000008F30001310008F40001310008F50027
:104140008030F71B7F30F000803075067002031D51
:10415000B7280030F71BFF30F00074087002031D11
:10416000B72873087702031DB72872087602031870
:10417000E7281A30380784000030393D85000008F0
:10418000F00001310008F1000130700784000030B8
:10419000713D85000008F20001310008F300043091
:1041A000700784000030713D85000008F000013187
:1041B0000008F10070088400710885000008F00014
:1041C00072088600730887007008810091291A30F0
:1041D000380784000030393D85000008F2000131C5
:1041E0000008F3000130720784000030733D850041
:1041F0000008F00001310008F10070088400710827
:1042000085000008F00070083A07F5000030F01B48
:10421000FF303B3DF6000430720784000030733DF0
:1042200085000008F00001310008F100043070073B
:1042300084000030713D85000008F1000131000864
:10424000F20001310008F30001310008F400803071
:104250007406F0008030F61B7F307002031D3C298D
:104260000030F61BFF307302031D3C2976087202F2
:10427000031D3C297508710203186E291A3038078E
:1042800084000030393D85000008F000013100084D
:10429000F1000130700784000030713D8500000896
:1042A000F20001310008F300043070078400003090
:1042B000713D85000008F00001310008F100043074
:1042C000700784000030713D85000008F00072081E
:1042D0008600730887007008810091291A3038071A
:1042E00084000030393D85000008F00001310008ED
:1042F000F1000130700784000030713D8500000836
:10430000F10001310008F200710884007208850094
:104310003A080007F00071088600720887007008EC
:044320008100080010
:1043240021003108A83A031D9929F13030060319F8
:10433400A42900303106031DA129003030060319D9
:10434400A429A529642B20002E082F04300431044D
:104354000319C62930088600310887002100300877
:104364008100310841318100413132088100330834
:1043740041318100413120002E08F0002F08F10066
:1043840080316427A031642B1A3021003007840067
:104394000030313D85000008F10001310008F200D1
:1043A4007208AA3A031DD8298D3071060319EE2923
:1043B4001A30300784000030313D85000008F100D8
:1043C40001310008F20000307206031DEB290030B1
:1043D40071060319EE29EF29642B21001A303007E6
:1043E40084000030313D85000008F00001310008F0
:1043F400F1000130700784000030713D8500000831
:10440400F10001310008F20000307206031D0C2A8D
:1044140000307106031D0F2A642B1A303007840004
:104424000030313D85000008F00001310008F10042
:104434000330700784000030713D85000008F100EE
:104444000830710203185B2A1A30300784000030E8
:10445400313D85000008F00001310008F100013011
:10446400700784000030713D85000008F2000131BE
:104474000008F3000330700784000030713D8500AC
:104484000008F0007008F1000130F0007108031911
:104494004E2AF035FF3E492A7208840073088500CD
:1044A4000008F0067208860073088700700881000F
:1044B400642B1A30300784000030313D8500000839
:1044C400F00001310008F10003307007840000306F
:1044D400713D85000008F100103071020318B02A04
:1044E4001A30300784000030313D85000008F000A8
:1044F40001310008F1000130700784000030713D83
:1045040085000008F30001310008F400033070074F
:1045140084000030713D85000008F0007008F2004E
:104524000130F0000030F100720803199D2AF035C3
:10453400F10DFF3E972A7308840074088500000873
:10454400F00601310008F10673088600740887003C
:1045540070088100710841318100642B1A303007E2
:1045640084000030313D85000008F000013100086E
:10457400F1000330700784000030713D85000008AD
:10458400F100203071020318162B1A303007840012
:104594000030313D85000008F00001310008F100D1
:1045A4000130700784000030713D85000008F4007C
:1045B40001310008F5000330700784000030713DBC
:1045C40085000008F0007008F2000130F0000030AF
:1045D400F10072080319F22AF035F10DFF3EEC2ABE
:1045E40074088400750885000030F11BFF30F20068
:1045F400F3000008F00601310008F106013100085B
:10460400F20601310008F306740886007508870075
:1046140070088100710841318100720841318100C4
:10462400730841318100642B1A3030078400003054
:10463400313D85000008F00001310008F10001302F
:10464400700784000030713D85000008F4000131DA
:104654000008F5000330700784000030713D8500C8
:104664000008F0007008F2000130F0000030F100A2
:1046740072080319412BF035F10DFF3E3B2B7408F2
:104684008400750885000030F11BFF30F200F30050
:104694000008F00601310008F10601310008F206B5
:1046A40001310008F3067408860075088700700855
:1046B4008100710841318100720841318100730821
:0646C400413181000800F5
:1046CA0021003108A83A031D6C2BF130300603197A
:1046DA00772B00303106031D742B00303006031986
:1046EA00772B782B8A2C20003608370438043904B3
:1046FA000319992B380886003908870021003008E9
:10470A00810031084131810041313208810033088A
:10471A0041318100413120003608F0003708F100AC
:10472A0080316427A0318A2C1A3021003007840096
:10473A000030313D85000008F10001310008F20027
:10474A007208AA3A031DAB2B8D3071060319C12BCF
:10475A001A30300784000030313D85000008F1002E
:10476A0001310008F20000307206031DBE2B003032
:10477A0071060319C12BC22B8A2C21001A3030076B
:10478A0084000030313D85000008F0000131000846
:10479A00F1000130700784000030713D8500000887
:1047AA00F10001310008F20000307206031DDF2B10
:1047BA0000307106031DE22B8A2C1A303007840060
:1047CA000030313D85000008F00001310008F10099
:1047DA0003307007B6000030713DB700762C1A30EE
:1047EA00300784000030313D85000008F0000131B7
:1047FA000008F1000130700784000030713D850027
:10480A000008B40001310008B5003208F00033088E
:10481A00F10080314727A03121003408840035088F
:10482A0085000008F40001310008F5000131000894
:10483A00F60001310008F7008831D526A0312100A1
:10484A0034088600350887007008810071084131F4
:10485A0081007208413181007308413181008A2C3C
:10486A001A30300784000030313D85000008F0001E
:10487A0001310008F1000130700784000030713DF9
:10488A0085000008B40001310008B5003208F000C4
:10489A003308F10080314727A03121003408840011
:1048AA00350885000008F40001310008F5000131DF
:1048BA000008F60001310008F7008831D526A0313A
:1048CA0021003408860035088700700881007108C5
:1048DA004131810072084131810073084131810000
:1048EA008A2C36088400370885000008F100710810
:1048FA00043A0319F42B36088400370885000008A7
:0C490A00F1007108083A0319352C080070
:1049160021002B08A83A031D922CF1302A06031910
:104926009D2C00302B06031D9A2C00302A060319F5
:104936009D2C9E2C432D14302A07840000302B3DDD
:1049460085000008F00001310008F100013100087F
:10495600F20001310008F300700871047204730458
:104966000319DA2C14302A07840000302B3D850009
:104976000008F00001310008F10001310008F200E2
:1049860001310008F30072088600730887002A08C0
:1049960081002B084131810041312C0881002D080E
:1049A60041318100413180316427A031432D1A30D5
:1049B60021002A07840000302B3D85000008F00006
:1049C60001310008F1007008AE007108AF001A2D21
:1049D6002A08B0002B08B1002C08B2002D08B3003D
:1049E6009221432D21002A08B0002B08B1002C0883
:1049F600B2002D08B3009831F526A031432D2100D1
:104A06002A08B0002B08B1002C08B2002D08B3000C
:104A16009831F526A031432D21002A08B0002B0835
:104A2600B1002C08B2002D08B3006523432D2100E8
:104A36002E0884002F0885000008F1007108013A4D
:104A46000319EB2C2E0884002F0885000008F100BE
:104A56007108023A0319F52C2E0884002F088500E8
:104A66000008F1007108033A0319022D2E0884008C
:104A76002F0885000008F1007108043A03190F2D6C
:024A8600080026
:104A880021002A082000D80021002B082000D90086
:104A980021002C082000DA0021002D082000DB006E
:104AA80056082100B000200057082100B1008031CD
:064AB8007227A031080086
:104ABE0021002A082000A60021002B082000A700B4
:104ACE0021002C082000A80021002D082000A9009C
:104ADE0056082100B000200057082100B100803197
:064AEE007227A031080050
:104AF40021002B08A83A031D812DF1302A06031941
:104B04008C2D00302B06031D892D00302A06031935
:104B14008C2D8D2D922E10302A07840000302B3DD1
:104B240085000008F00001310008F100013100089F
:104B3400F20001310008F300700871047204730478
:104B44000319C32D10302A07840000302B3D850043
:104B54000008F00001310008F10001310008F20002
:104B640001310008F30072088600730887002A08E0
:104B740081002B0841318100413180316427A0310B
:104B8400922E1A3021002A07840000302B3D850024
:104B94000008F10001310008F2007208AA3A031D6E
:104BA400D52D8D3071060319EB2D1A302A07840098
:104BB40000302B3D85000008F10001310008F200AF
:104BC40000307206031DE82D003071060319EB2D29
:104BD400EC2D922E21001A302A07840000302B3D40
:104BE40085000008F00001310008F1007008AC00F5
:104BF4007108AD00692E2000520853045404550472
:104C04000319172E540886005508870021002A0826
:104C140081002B0841318100413120005208F0000D
:104C24005308F10080316427A031922E20005808E7
:104C340059045A045B040319322E5A0886005B088F
:104C4400870021002A0881002B084131810041316D
:104C540020005808F0005908F10080316427A03181
:104C6400922E2000260827042804290403194D2E17
:104C7400280886002908870021002A0881002B08BB
:104C840041318100413120002608F0002708F1005D
:104C940080316427A031922E2000220823042404AA
:104CA40025040319682E240886002508870021009E
:104CB4002A0881002B08413181004131200022085B
:104CC400F0002308F10080316427A031922E2100E6
:104CD4002C0884002D0885000008F1007108013AB1
:104CE4000319FD2D2C0884002D0885000008F1000F
:104CF4007108023A0319182E2C0884002D08850027
:104D04000008F1007108033A0319332E2C088400BB
:104D14002D0885000008F1007108043A03194E2E8D
:024D2400080085
:104D260021008F120F120F108F100F118F112000FC
:104D36008F120F128F110F118F100F1080310E204E
:104D4600A03180310E20A03180310E20A0318F1489
:104D56000F148F1680310920A0318F1280310E205A
:104D6600A0318F1680310920A0318F1280310E209C
:104D7600A0318F1680310920A0318F1280310E208C
:104D8600A0310F108F1680310920A0318F1280318B
:104D96000E20A0318F1680310920A0318F128F107E
:104DA6008F158F1680310920A0318F1280310E2089
:104DB600A0318F110F148F1680310920A0318F1268
:104DC6000F108F1680310920A0318F1280310E20EE
:104DD600A0318F1680310920A0318F120F148F1643
:104DE60080310920A0318F1280310E20A0310F10A2
:104DF6008F1680310920A0318F128F150F158F1451
:104E06000F148F1680310920A0318F1280310E20A9
:084E1600A03121002414080062
:104E1E0021002A082000BA0021002B082000BB0028
:104E2E0021002C082000BC0021002D082000BD0010
:104E3E0056082100B000200057082100B100803133
:064E4E007227A0310800EC
:10500000C022210090122000901221008E01200069
:105010008E01FF3021008D009513A0319326A83119
:105020000C30E9008031B822A83101302100E900BC
:105030008031B822A83159302100AA000630AB00D7
:10504000BC30AC000030AD00A0310F27A8310030DB
:105050002100AA001830AB00BC30AC000030AD001D
:10506000A0315F25A83124302100AA001630AB0002
:10507000BC30AC000030AD00A0314425A831063072
:105080002100AA000D30AB00BC30AC000030AD00F8
:105090009831D727A83199302100B000A930B1004C
:1050A00080317227A83190318A27A8317008A90071
:1050B000D2288031F227A8310230700784000030F6
:1050C000713D850000082100B00001310008B100E9
:1050D00080317227A831EC288031F227A83170087E
:1050E00084007108850000082100B000013100082B
:1050F000B10080317227A831EC288031F227A83125
:105100000630700784000030713D850000082100E2
:10511000B00001310008B10080317227A831883118
:10512000BB27A831EC288031F227A8310430700762
:1051300084000030713D850000082100B00001317D
:105140000008B10080317227A831EC288031F227A5
:10515000A83170082100AA007108AB000130AC0032
:105160000030AD00A0318B24A831EC288031F2272B
:10517000A83170082100AA007108AB00FF30AC0014
:10518000FF30AD00A0318B24A831EC288031F2270C
:10519000A83170082100AA007108AB00A0317A255F
:1051A000A831EC2821002908023A031959282908B6
:1051B000033A03196C282908063A03197D2829089F
:1051C000013A031993282908043A0319A628290843
:0C51D000053A0319B628C6285328ED281C
:105580002A308400A73085004430F0000130F1005B
:1055900022308600003087008031E927A8310800DA
:100FF000013400341034003400340134003410342F
:101FEC00013400340A34003464340034E8340334EB
:041FFC001034273442
:102FF0000034003400340034003400340034003431
:103FE40001340034083400344034003400340234E2
:083FF400003410340034803465
:084E5400003400340034003486
:084E5C0000340034003400347E
:084E6400003400340034003476
:084E6C0000340034003400346E
:084E7400003400340034003466
:084E7C0000340034003400345E
:084E8400003400340034003456
:104E8C002034533445344C34453443345434203476
:024E9C000034E0
:104E9E00203445344E345434453452342034203486
:024EAE000034CE
:044EB0006434003432
:084EB400003400340034003426
:044EBC00F134A834F1
:084EC00000340034003400341A
:0A4EC8006E3475346C346C34003421
:0A4ED2006E3475346C346C34003417
:104EDC00013400340034003408340034003400341D
:104EEC0040340034003400340034023400340034D4
:104EFC000034103400340034003480340034003476
:104F0C0000340034043400340034003420340034D1
:104F1C0000340034003401340034003400340834DC
:104F2C000034003400344034003400340034003495
:104F3C0001340034003400340A34003400340034BA
:104F4C006434003400340034E83403340034003466
:104F5C001034273400340034A03486340134003447
:104F6C00403442340F340034803496349834003456
:104F7C000034E134F53405340034CA349A343B340B
:104F8C000134003400340034103400340034003464
:104F9C000034013400340034003410340034003454
:104FAC000034003401340034003400341034003444
:104FBC000034003400340134003400340034103434
:104FCC003034313432343334343435343634373499
:104FDC00383439344134423443344434453446341F
:024FEC0000348F
:104FEE000A340034003400341434003400340034F5
:1051E200003400340034003400340034003400341D
:1051F200003400340034003400340034003400340D
:1052020000340034003400340034003400340034FC
:085212000034003400340034C4
:10521A004534A9342934A9346134A934F134A83481
:10522A0000340034003400340034003400340034D4
:10523A0000340034003400340034003400340034C4
:08524A00D134A9348134AA34E7
:105252000D34A9344534A9346134A934F134A83465
:10526200003400340034003400340034003400349C
:10527200003400340034003400340034003400348C
:085282005934AA349F34AA3408
:10528A002934A9340D34A9346134A934F134A83449
:10529A000034003400340034003400340034003464
:1052AA000034003400340034003400340034003454
:0852BA006A34AA349934AA34C5
:1052C2009934A9347D34A934F134A8344534A9344D
:1052D200003400340034003400340034003400342C
:1052E200003400340034003400340034003400341C
:0852F2001534AA348D34AA34EE
:1052FA006134A9349934A934F134A834B534A934C1
:10530A0000340034003400340034003400340034F3
:10531A0000340034003400340034003400340034E3
:08532A003734AA348D34AA3493
:105332007D34A9346134A934F134A834F134A83469
:1053420002340734003400343C340734003400346F
:1053520000340034003400340034003400340034AB
:085362002634AA348D34AA346C
:10536A00F134A834F134A8347D34A934F134A834A2
:10537A000034003400340034003400340034003483
:10538A0071340634BC340034003400340034003440
:08539A000434AA348D34AA3456
:1053A2004534643469347434203475346E3473345F
:1053B200693467346E34203420342034203420346D
:0253C2000034B5
:1053C400303431343234333434343534363437349D
:1053D4003834393461346234633464346534663463
:0253E400003493
:1053E600303431343234333434343534363437347B
:1053F6003834393441344234433444344534463401
:02540600003470
:105408004D3465346E347534203432342E343134AE
:1054180020342034203420342034203420342034E4
:0254280000344E
:10542A004D3465346E3475342034333420342034AA
:10543A0020342034203420342034203420342034C2
:02544A0000342C
:10544C004D3465346E34753420343134203420348A
:10545C0020342034203420342034203420342034A0
:02546C0000340A
:10546E004D3465346E347534203432342034203467
:10547E00203420342034203420342034203420347E
:02548E000034E8
:1054900030343134323433343434353436343734D0
:1054A0003834393461346234633464346534663496
:0254B0000034C6
:1054B2004534643469347434203473346934673461
:1054C2006E34653464342034203420342034203463
:0254D2000034A4
:1054D4004534643469347434203462346934743443
:1054E4002034203420342034203420342034203418
:0254F400003482
:0C54F60069343D3425343634643400340D
:0C55020002340E3400340134F734A734B6
:0C550E00253434344C344C3475340034F3
:0C551A000034003400340034003400344D
:0C552600253434344C344C3464340034EC
:0C5532000134103400340534F834973490
:0C553E0003340E3400340134F834973488
:0A554A00253434344C347534003439
:0A555400253434344C346434003440
:08555E002534343464340034B8
:0855660025343434753400349F
:08556E00253434347534003497
:085576002534343464340034A0
:020000040001F9
:04000E00E23FFF1EB0
:00000001FF
